{
  "_format": "hh-sol-artifact-1",
  "contractName": "CivilShare",
  "sourceName": "contracts/CivilShare.sol",
  "abi": [
    {
      "inputs": [],
      "name": "AccessControlBadConfirmation",
      "type": "error"
    },
    {
      "inputs": [
        {
          "internalType": "address",
          "name": "account",
          "type": "address"
        },
        {
          "internalType": "bytes32",
          "name": "neededRole",
          "type": "bytes32"
        }
      ],
      "name": "AccessControlUnauthorizedAccount",
      "type": "error"
    },
    {
      "inputs": [
        {
          "internalType": "address",
          "name": "target",
          "type": "address"
        }
      ],
      "name": "AddressEmptyCode",
      "type": "error"
    },
    {
      "inputs": [
        {
          "internalType": "address",
          "name": "implementation",
          "type": "address"
        }
      ],
      "name": "ERC1967InvalidImplementation",
      "type": "error"
    },
    {
      "inputs": [],
      "name": "ERC1967NonPayable",
      "type": "error"
    },
    {
      "inputs": [],
      "name": "FailedCall",
      "type": "error"
    },
    {
      "inputs": [],
      "name": "InvalidInitialization",
      "type": "error"
    },
    {
      "inputs": [],
      "name": "NotInitializing",
      "type": "error"
    },
    {
      "inputs": [],
      "name": "ReentrancyGuardReentrantCall",
      "type": "error"
    },
    {
      "inputs": [],
      "name": "UUPSUnauthorizedCallContext",
      "type": "error"
    },
    {
      "inputs": [
        {
          "internalType": "bytes32",
          "name": "slot",
          "type": "bytes32"
        }
      ],
      "name": "UUPSUnsupportedProxiableUUID",
      "type": "error"
    },
    {
      "anonymous": false,
      "inputs": [
        {
          "indexed": true,
          "internalType": "uint256",
          "name": "id",
          "type": "uint256"
        }
      ],
      "name": "CampaignCompleted",
      "type": "event"
    },
    {
      "anonymous": false,
      "inputs": [
        {
          "indexed": false,
          "internalType": "uint256",
          "name": "id",
          "type": "uint256"
        },
        {
          "indexed": true,
          "internalType": "address",
          "name": "owner",
          "type": "address"
        }
      ],
      "name": "CampaignCreated",
      "type": "event"
    },
    {
      "anonymous": false,
      "inputs": [
        {
          "indexed": false,
          "internalType": "uint256",
          "name": "id",
          "type": "uint256"
        }
      ],
      "name": "CampaignDeactivated",
      "type": "event"
    },
    {
      "anonymous": false,
      "inputs": [
        {
          "indexed": false,
          "internalType": "uint256",
          "name": "id",
          "type": "uint256"
        },
        {
          "indexed": false,
          "internalType": "address",
          "name": "donor",
          "type": "address"
        },
        {
          "indexed": false,
          "internalType": "uint256",
          "name": "amount",
          "type": "uint256"
        }
      ],
      "name": "CampaignDeactivatedWithRefund",
      "type": "event"
    },
    {
      "anonymous": false,
      "inputs": [
        {
          "indexed": true,
          "internalType": "uint256",
          "name": "campaignId",
          "type": "uint256"
        },
        {
          "indexed": false,
          "internalType": "uint256",
          "name": "amount",
          "type": "uint256"
        }
      ],
      "name": "CampaignETHWithdrawn",
      "type": "event"
    },
    {
      "anonymous": false,
      "inputs": [
        {
          "indexed": true,
          "internalType": "uint256",
          "name": "id",
          "type": "uint256"
        },
        {
          "indexed": true,
          "internalType": "address",
          "name": "donor",
          "type": "address"
        },
        {
          "indexed": true,
          "internalType": "address",
          "name": "token",
          "type": "address"
        },
        {
          "indexed": false,
          "internalType": "uint256",
          "name": "amount",
          "type": "uint256"
        }
      ],
      "name": "CampaignTokenDonation",
      "type": "event"
    },
    {
      "anonymous": false,
      "inputs": [
        {
          "indexed": true,
          "internalType": "uint256",
          "name": "campaignId",
          "type": "uint256"
        },
        {
          "indexed": true,
          "internalType": "address",
          "name": "token",
          "type": "address"
        },
        {
          "indexed": false,
          "internalType": "uint256",
          "name": "amount",
          "type": "uint256"
        }
      ],
      "name": "CampaignTokenWithdrawn",
      "type": "event"
    },
    {
      "anonymous": false,
      "inputs": [
        {
          "indexed": true,
          "internalType": "uint256",
          "name": "id",
          "type": "uint256"
        },
        {
          "indexed": true,
          "internalType": "address",
          "name": "voter",
          "type": "address"
        },
        {
          "indexed": false,
          "internalType": "uint256",
          "name": "newTotal",
          "type": "uint256"
        }
      ],
      "name": "CampaignUpvoted",
      "type": "event"
    },
    {
      "anonymous": false,
      "inputs": [
        {
          "indexed": false,
          "internalType": "uint256",
          "name": "id",
          "type": "uint256"
        }
      ],
      "name": "CampaignVerified",
      "type": "event"
    },
    {
      "anonymous": false,
      "inputs": [
        {
          "indexed": false,
          "internalType": "uint256",
          "name": "id",
          "type": "uint256"
        },
        {
          "indexed": false,
          "internalType": "uint256",
          "name": "amount",
          "type": "uint256"
        }
      ],
      "name": "CampaignWithdrawn",
      "type": "event"
    },
    {
      "anonymous": false,
      "inputs": [
        {
          "indexed": true,
          "internalType": "uint256",
          "name": "campaignId",
          "type": "uint256"
        },
        {
          "indexed": true,
          "internalType": "address",
          "name": "donor",
          "type": "address"
        },
        {
          "indexed": false,
          "internalType": "uint256",
          "name": "amount",
          "type": "uint256"
        },
        {
          "indexed": false,
          "internalType": "address",
          "name": "token",
          "type": "address"
        },
        {
          "indexed": false,
          "internalType": "bool",
          "name": "isEth",
          "type": "bool"
        }
      ],
      "name": "Donated",
      "type": "event"
    },
    {
      "anonymous": false,
      "inputs": [
        {
          "indexed": true,
          "internalType": "uint256",
          "name": "id",
          "type": "uint256"
        },
        {
          "indexed": true,
          "internalType": "address",
          "name": "donor",
          "type": "address"
        },
        {
          "indexed": false,
          "internalType": "uint256",
          "name": "amount",
          "type": "uint256"
        }
      ],
      "name": "ETHDonationReceived",
      "type": "event"
    },
    {
      "anonymous": false,
      "inputs": [
        {
          "indexed": true,
          "internalType": "uint256",
          "name": "campaignId",
          "type": "uint256"
        },
        {
          "indexed": true,
          "internalType": "address",
          "name": "user",
          "type": "address"
        },
        {
          "indexed": false,
          "internalType": "uint256",
          "name": "amount",
          "type": "uint256"
        }
      ],
      "name": "ETHRefundClaimed",
      "type": "event"
    },
    {
      "anonymous": false,
      "inputs": [
        {
          "indexed": false,
          "internalType": "uint64",
          "name": "version",
          "type": "uint64"
        }
      ],
      "name": "Initialized",
      "type": "event"
    },
    {
      "anonymous": false,
      "inputs": [
        {
          "indexed": true,
          "internalType": "uint256",
          "name": "campaignId",
          "type": "uint256"
        },
        {
          "indexed": true,
          "internalType": "uint256",
          "name": "milestoneIndex",
          "type": "uint256"
        },
        {
          "indexed": false,
          "internalType": "uint256",
          "name": "amount",
          "type": "uint256"
        }
      ],
      "name": "MilestoneETHReleased",
      "type": "event"
    },
    {
      "anonymous": false,
      "inputs": [
        {
          "indexed": false,
          "internalType": "uint256",
          "name": "campaignId",
          "type": "uint256"
        },
        {
          "indexed": false,
          "internalType": "uint256",
          "name": "milestoneIndex",
          "type": "uint256"
        },
        {
          "indexed": false,
          "internalType": "uint256",
          "name": "amount",
          "type": "uint256"
        }
      ],
      "name": "MilestoneReleased",
      "type": "event"
    },
    {
      "anonymous": false,
      "inputs": [
        {
          "indexed": true,
          "internalType": "uint256",
          "name": "campaignId",
          "type": "uint256"
        },
        {
          "indexed": true,
          "internalType": "uint256",
          "name": "milestoneIndex",
          "type": "uint256"
        },
        {
          "indexed": true,
          "internalType": "address",
          "name": "token",
          "type": "address"
        },
        {
          "indexed": false,
          "internalType": "uint256",
          "name": "amount",
          "type": "uint256"
        }
      ],
      "name": "MilestoneTokenReleased",
      "type": "event"
    },
    {
      "anonymous": false,
      "inputs": [
        {
          "indexed": false,
          "internalType": "bool",
          "name": "isPaused",
          "type": "bool"
        }
      ],
      "name": "PausedToggled",
      "type": "event"
    },
    {
      "anonymous": false,
      "inputs": [
        {
          "indexed": true,
          "internalType": "uint256",
          "name": "id",
          "type": "uint256"
        },
        {
          "indexed": true,
          "internalType": "address",
          "name": "user",
          "type": "address"
        },
        {
          "indexed": false,
          "internalType": "uint256",
          "name": "amount",
          "type": "uint256"
        }
      ],
      "name": "RefundClaimed",
      "type": "event"
    },
    {
      "anonymous": false,
      "inputs": [
        {
          "indexed": true,
          "internalType": "bytes32",
          "name": "role",
          "type": "bytes32"
        },
        {
          "indexed": true,
          "internalType": "bytes32",
          "name": "previousAdminRole",
          "type": "bytes32"
        },
        {
          "indexed": true,
          "internalType": "bytes32",
          "name": "newAdminRole",
          "type": "bytes32"
        }
      ],
      "name": "RoleAdminChanged",
      "type": "event"
    },
    {
      "anonymous": false,
      "inputs": [
        {
          "indexed": true,
          "internalType": "bytes32",
          "name": "role",
          "type": "bytes32"
        },
        {
          "indexed": true,
          "internalType": "address",
          "name": "account",
          "type": "address"
        },
        {
          "indexed": true,
          "internalType": "address",
          "name": "sender",
          "type": "address"
        }
      ],
      "name": "RoleGranted",
      "type": "event"
    },
    {
      "anonymous": false,
      "inputs": [
        {
          "indexed": true,
          "internalType": "bytes32",
          "name": "role",
          "type": "bytes32"
        },
        {
          "indexed": true,
          "internalType": "address",
          "name": "account",
          "type": "address"
        },
        {
          "indexed": true,
          "internalType": "address",
          "name": "sender",
          "type": "address"
        }
      ],
      "name": "RoleRevoked",
      "type": "event"
    },
    {
      "anonymous": false,
      "inputs": [
        {
          "indexed": true,
          "internalType": "address",
          "name": "token",
          "type": "address"
        },
        {
          "indexed": false,
          "internalType": "bool",
          "name": "isAllowed",
          "type": "bool"
        }
      ],
      "name": "TokenAllowlistUpdated",
      "type": "event"
    },
    {
      "anonymous": false,
      "inputs": [
        {
          "indexed": true,
          "internalType": "uint256",
          "name": "campaignId",
          "type": "uint256"
        },
        {
          "indexed": true,
          "internalType": "address",
          "name": "user",
          "type": "address"
        },
        {
          "indexed": true,
          "internalType": "address",
          "name": "token",
          "type": "address"
        },
        {
          "indexed": false,
          "internalType": "uint256",
          "name": "amount",
          "type": "uint256"
        }
      ],
      "name": "TokenRefundClaimed",
      "type": "event"
    },
    {
      "anonymous": false,
      "inputs": [
        {
          "indexed": true,
          "internalType": "address",
          "name": "donor",
          "type": "address"
        },
        {
          "indexed": true,
          "internalType": "address",
          "name": "token",
          "type": "address"
        },
        {
          "indexed": false,
          "internalType": "uint256",
          "name": "amount",
          "type": "uint256"
        }
      ],
      "name": "TreasuryTokenDonation",
      "type": "event"
    },
    {
      "anonymous": false,
      "inputs": [
        {
          "indexed": false,
          "internalType": "address",
          "name": "to",
          "type": "address"
        },
        {
          "indexed": false,
          "internalType": "uint256",
          "name": "amount",
          "type": "uint256"
        }
      ],
      "name": "TreasuryWithdrawn",
      "type": "event"
    },
    {
      "anonymous": false,
      "inputs": [
        {
          "indexed": true,
          "internalType": "address",
          "name": "forwarder",
          "type": "address"
        }
      ],
      "name": "TrustedForwarderUpdated",
      "type": "event"
    },
    {
      "anonymous": false,
      "inputs": [
        {
          "indexed": true,
          "internalType": "address",
          "name": "implementation",
          "type": "address"
        }
      ],
      "name": "Upgraded",
      "type": "event"
    },
    {
      "stateMutability": "payable",
      "type": "fallback"
    },
    {
      "inputs": [],
      "name": "ADMIN_ROLE",
      "outputs": [
        {
          "internalType": "bytes32",
          "name": "",
          "type": "bytes32"
        }
      ],
      "stateMutability": "view",
      "type": "function"
    },
    {
      "inputs": [],
      "name": "CAMPAIGN_CREATION_COOLDOWN",
      "outputs": [
        {
          "internalType": "uint256",
          "name": "",
          "type": "uint256"
        }
      ],
      "stateMutability": "view",
      "type": "function"
    },
    {
      "inputs": [],
      "name": "DAO_ROLE",
      "outputs": [
        {
          "internalType": "bytes32",
          "name": "",
          "type": "bytes32"
        }
      ],
      "stateMutability": "view",
      "type": "function"
    },
    {
      "inputs": [],
      "name": "DEFAULT_ADMIN_ROLE",
      "outputs": [
        {
          "internalType": "bytes32",
          "name": "",
          "type": "bytes32"
        }
      ],
      "stateMutability": "view",
      "type": "function"
    },
    {
      "inputs": [],
      "name": "UPGRADE_INTERFACE_VERSION",
      "outputs": [
        {
          "internalType": "string",
          "name": "",
          "type": "string"
        }
      ],
      "stateMutability": "view",
      "type": "function"
    },
    {
      "inputs": [],
      "name": "UPVOTE_THRESHOLD",
      "outputs": [
        {
          "internalType": "uint256",
          "name": "",
          "type": "uint256"
        }
      ],
      "stateMutability": "view",
      "type": "function"
    },
    {
      "inputs": [
        {
          "internalType": "address",
          "name": "",
          "type": "address"
        }
      ],
      "name": "allowedTokens",
      "outputs": [
        {
          "internalType": "bool",
          "name": "",
          "type": "bool"
        }
      ],
      "stateMutability": "view",
      "type": "function"
    },
    {
      "inputs": [
        {
          "internalType": "uint256",
          "name": "",
          "type": "uint256"
        },
        {
          "internalType": "address",
          "name": "",
          "type": "address"
        }
      ],
      "name": "campaignAllowedTokens",
      "outputs": [
        {
          "internalType": "bool",
          "name": "",
          "type": "bool"
        }
      ],
      "stateMutability": "view",
      "type": "function"
    },
    {
      "inputs": [
        {
          "internalType": "uint256",
          "name": "",
          "type": "uint256"
        },
        {
          "internalType": "address",
          "name": "",
          "type": "address"
        }
      ],
      "name": "campaignDonations",
      "outputs": [
        {
          "internalType": "uint256",
          "name": "",
          "type": "uint256"
        }
      ],
      "stateMutability": "view",
      "type": "function"
    },
    {
      "inputs": [
        {
          "internalType": "uint256",
          "name": "",
          "type": "uint256"
        }
      ],
      "name": "campaignExists",
      "outputs": [
        {
          "internalType": "bool",
          "name": "",
          "type": "bool"
        }
      ],
      "stateMutability": "view",
      "type": "function"
    },
    {
      "inputs": [
        {
          "internalType": "uint256",
          "name": "",
          "type": "uint256"
        },
        {
          "internalType": "uint256",
          "name": "",
          "type": "uint256"
        }
      ],
      "name": "campaignMilestones",
      "outputs": [
        {
          "internalType": "string",
          "name": "name",
          "type": "string"
        },
        {
          "internalType": "uint256",
          "name": "amount",
          "type": "uint256"
        },
        {
          "internalType": "bool",
          "name": "isReleased",
          "type": "bool"
        }
      ],
      "stateMutability": "view",
      "type": "function"
    },
    {
      "inputs": [
        {
          "internalType": "uint256",
          "name": "",
          "type": "uint256"
        }
      ],
      "name": "campaigns",
      "outputs": [
        {
          "internalType": "uint256",
          "name": "id",
          "type": "uint256"
        },
        {
          "internalType": "uint256",
          "name": "target",
          "type": "uint256"
        },
        {
          "internalType": "uint256",
          "name": "deadline",
          "type": "uint256"
        },
        {
          "internalType": "uint256",
          "name": "amountCollected",
          "type": "uint256"
        },
        {
          "internalType": "uint256",
          "name": "createdAt",
          "type": "uint256"
        },
        {
          "internalType": "uint256",
          "name": "nextMilestoneIndex",
          "type": "uint256"
        },
        {
          "internalType": "uint256",
          "name": "ethEscrowed",
          "type": "uint256"
        },
        {
          "internalType": "uint256",
          "name": "donationCount",
          "type": "uint256"
        },
        {
          "internalType": "address",
          "name": "owner",
          "type": "address"
        },
        {
          "internalType": "enum CivilShare.CampaignStatus",
          "name": "status",
          "type": "uint8"
        },
        {
          "internalType": "bool",
          "name": "isEscrow",
          "type": "bool"
        },
        {
          "internalType": "string",
          "name": "title",
          "type": "string"
        },
        {
          "internalType": "string",
          "name": "description",
          "type": "string"
        },
        {
          "internalType": "string",
          "name": "image",
          "type": "string"
        },
        {
          "internalType": "string",
          "name": "category",
          "type": "string"
        },
        {
          "internalType": "string",
          "name": "metadataURI",
          "type": "string"
        }
      ],
      "stateMutability": "view",
      "type": "function"
    },
    {
      "inputs": [
        {
          "internalType": "uint256",
          "name": "campaignId",
          "type": "uint256"
        },
        {
          "internalType": "uint256",
          "name": "milestoneIndex",
          "type": "uint256"
        }
      ],
      "name": "claimMilestone",
      "outputs": [],
      "stateMutability": "nonpayable",
      "type": "function"
    },
    {
      "inputs": [
        {
          "internalType": "uint256",
          "name": "campaignId",
          "type": "uint256"
        },
        {
          "internalType": "uint256",
          "name": "milestoneIndex",
          "type": "uint256"
        },
        {
          "internalType": "address",
          "name": "token",
          "type": "address"
        }
      ],
      "name": "claimMilestoneToken",
      "outputs": [],
      "stateMutability": "nonpayable",
      "type": "function"
    },
    {
      "inputs": [
        {
          "internalType": "uint256",
          "name": "_id",
          "type": "uint256"
        }
      ],
      "name": "claimRefund",
      "outputs": [],
      "stateMutability": "nonpayable",
      "type": "function"
    },
    {
      "inputs": [
        {
          "internalType": "uint256",
          "name": "_id",
          "type": "uint256"
        },
        {
          "internalType": "address",
          "name": "token",
          "type": "address"
        }
      ],
      "name": "claimTokenRefund",
      "outputs": [],
      "stateMutability": "nonpayable",
      "type": "function"
    },
    {
      "inputs": [
        {
          "internalType": "address",
          "name": "_owner",
          "type": "address"
        },
        {
          "internalType": "string",
          "name": "_title",
          "type": "string"
        },
        {
          "internalType": "string",
          "name": "_description",
          "type": "string"
        },
        {
          "internalType": "uint256",
          "name": "_target",
          "type": "uint256"
        },
        {
          "internalType": "uint256",
          "name": "_deadline",
          "type": "uint256"
        },
        {
          "internalType": "string",
          "name": "_image",
          "type": "string"
        },
        {
          "internalType": "string",
          "name": "_category",
          "type": "string"
        },
        {
          "internalType": "string",
          "name": "_metadataURI",
          "type": "string"
        },
        {
          "internalType": "bool",
          "name": "_isEscrow",
          "type": "bool"
        },
        {
          "internalType": "address[]",
          "name": "_acceptedTokens",
          "type": "address[]"
        }
      ],
      "name": "createCampaign",
      "outputs": [
        {
          "internalType": "uint256",
          "name": "",
          "type": "uint256"
        }
      ],
      "stateMutability": "nonpayable",
      "type": "function"
    },
    {
      "inputs": [
        {
          "internalType": "uint256",
          "name": "_id",
          "type": "uint256"
        }
      ],
      "name": "deactivateCampaign",
      "outputs": [],
      "stateMutability": "nonpayable",
      "type": "function"
    },
    {
      "inputs": [
        {
          "internalType": "address",
          "name": "token",
          "type": "address"
        },
        {
          "internalType": "uint256",
          "name": "amount",
          "type": "uint256"
        }
      ],
      "name": "donateTokenToTreasury",
      "outputs": [],
      "stateMutability": "nonpayable",
      "type": "function"
    },
    {
      "inputs": [
        {
          "internalType": "uint256",
          "name": "_id",
          "type": "uint256"
        }
      ],
      "name": "donateWithEth",
      "outputs": [],
      "stateMutability": "payable",
      "type": "function"
    },
    {
      "inputs": [
        {
          "internalType": "uint256",
          "name": "_id",
          "type": "uint256"
        },
        {
          "internalType": "address",
          "name": "tokenAddress",
          "type": "address"
        },
        {
          "internalType": "uint256",
          "name": "amount",
          "type": "uint256"
        }
      ],
      "name": "donateWithToken",
      "outputs": [],
      "stateMutability": "nonpayable",
      "type": "function"
    },
    {
      "inputs": [
        {
          "internalType": "uint256",
          "name": "",
          "type": "uint256"
        },
        {
          "internalType": "address",
          "name": "",
          "type": "address"
        }
      ],
      "name": "ethRefunds",
      "outputs": [
        {
          "internalType": "uint256",
          "name": "",
          "type": "uint256"
        }
      ],
      "stateMutability": "view",
      "type": "function"
    },
    {
      "inputs": [
        {
          "internalType": "uint256",
          "name": "start",
          "type": "uint256"
        },
        {
          "internalType": "uint256",
          "name": "end",
          "type": "uint256"
        }
      ],
      "name": "getActiveCampaigns",
      "outputs": [
        {
          "components": [
            {
              "internalType": "uint256",
              "name": "id",
              "type": "uint256"
            },
            {
              "internalType": "uint256",
              "name": "target",
              "type": "uint256"
            },
            {
              "internalType": "uint256",
              "name": "deadline",
              "type": "uint256"
            },
            {
              "internalType": "uint256",
              "name": "amountCollected",
              "type": "uint256"
            },
            {
              "internalType": "uint256",
              "name": "createdAt",
              "type": "uint256"
            },
            {
              "internalType": "uint256",
              "name": "nextMilestoneIndex",
              "type": "uint256"
            },
            {
              "internalType": "uint256",
              "name": "ethEscrowed",
              "type": "uint256"
            },
            {
              "internalType": "uint256",
              "name": "donationCount",
              "type": "uint256"
            },
            {
              "internalType": "address",
              "name": "owner",
              "type": "address"
            },
            {
              "internalType": "enum CivilShare.CampaignStatus",
              "name": "status",
              "type": "uint8"
            },
            {
              "internalType": "bool",
              "name": "isEscrow",
              "type": "bool"
            },
            {
              "internalType": "address[]",
              "name": "acceptedTokens",
              "type": "address[]"
            },
            {
              "internalType": "string",
              "name": "title",
              "type": "string"
            },
            {
              "internalType": "string",
              "name": "description",
              "type": "string"
            },
            {
              "internalType": "string",
              "name": "image",
              "type": "string"
            },
            {
              "internalType": "string",
              "name": "category",
              "type": "string"
            },
            {
              "internalType": "string",
              "name": "metadataURI",
              "type": "string"
            }
          ],
          "internalType": "struct CivilShare.Campaign[]",
          "name": "",
          "type": "tuple[]"
        }
      ],
      "stateMutability": "view",
      "type": "function"
    },
    {
      "inputs": [],
      "name": "getAllowedTokens",
      "outputs": [
        {
          "internalType": "address[]",
          "name": "",
          "type": "address[]"
        }
      ],
      "stateMutability": "view",
      "type": "function"
    },
    {
      "inputs": [
        {
          "internalType": "uint256",
          "name": "_id",
          "type": "uint256"
        }
      ],
      "name": "getCampaignById",
      "outputs": [
        {
          "components": [
            {
              "internalType": "uint256",
              "name": "id",
              "type": "uint256"
            },
            {
              "internalType": "uint256",
              "name": "target",
              "type": "uint256"
            },
            {
              "internalType": "uint256",
              "name": "deadline",
              "type": "uint256"
            },
            {
              "internalType": "uint256",
              "name": "amountCollected",
              "type": "uint256"
            },
            {
              "internalType": "uint256",
              "name": "createdAt",
              "type": "uint256"
            },
            {
              "internalType": "uint256",
              "name": "nextMilestoneIndex",
              "type": "uint256"
            },
            {
              "internalType": "uint256",
              "name": "ethEscrowed",
              "type": "uint256"
            },
            {
              "internalType": "uint256",
              "name": "donationCount",
              "type": "uint256"
            },
            {
              "internalType": "address",
              "name": "owner",
              "type": "address"
            },
            {
              "internalType": "enum CivilShare.CampaignStatus",
              "name": "status",
              "type": "uint8"
            },
            {
              "internalType": "bool",
              "name": "isEscrow",
              "type": "bool"
            },
            {
              "internalType": "address[]",
              "name": "acceptedTokens",
              "type": "address[]"
            },
            {
              "internalType": "string",
              "name": "title",
              "type": "string"
            },
            {
              "internalType": "string",
              "name": "description",
              "type": "string"
            },
            {
              "internalType": "string",
              "name": "image",
              "type": "string"
            },
            {
              "internalType": "string",
              "name": "category",
              "type": "string"
            },
            {
              "internalType": "string",
              "name": "metadataURI",
              "type": "string"
            }
          ],
          "internalType": "struct CivilShare.Campaign",
          "name": "",
          "type": "tuple"
        }
      ],
      "stateMutability": "view",
      "type": "function"
    },
    {
      "inputs": [
        {
          "internalType": "uint256",
          "name": "start",
          "type": "uint256"
        },
        {
          "internalType": "uint256",
          "name": "end",
          "type": "uint256"
        }
      ],
      "name": "getCampaignRange",
      "outputs": [
        {
          "components": [
            {
              "internalType": "uint256",
              "name": "id",
              "type": "uint256"
            },
            {
              "internalType": "uint256",
              "name": "target",
              "type": "uint256"
            },
            {
              "internalType": "uint256",
              "name": "deadline",
              "type": "uint256"
            },
            {
              "internalType": "uint256",
              "name": "amountCollected",
              "type": "uint256"
            },
            {
              "internalType": "uint256",
              "name": "createdAt",
              "type": "uint256"
            },
            {
              "internalType": "uint256",
              "name": "nextMilestoneIndex",
              "type": "uint256"
            },
            {
              "internalType": "uint256",
              "name": "ethEscrowed",
              "type": "uint256"
            },
            {
              "internalType": "uint256",
              "name": "donationCount",
              "type": "uint256"
            },
            {
              "internalType": "address",
              "name": "owner",
              "type": "address"
            },
            {
              "internalType": "enum CivilShare.CampaignStatus",
              "name": "status",
              "type": "uint8"
            },
            {
              "internalType": "bool",
              "name": "isEscrow",
              "type": "bool"
            },
            {
              "internalType": "address[]",
              "name": "acceptedTokens",
              "type": "address[]"
            },
            {
              "internalType": "string",
              "name": "title",
              "type": "string"
            },
            {
              "internalType": "string",
              "name": "description",
              "type": "string"
            },
            {
              "internalType": "string",
              "name": "image",
              "type": "string"
            },
            {
              "internalType": "string",
              "name": "category",
              "type": "string"
            },
            {
              "internalType": "string",
              "name": "metadataURI",
              "type": "string"
            }
          ],
          "internalType": "struct CivilShare.Campaign[]",
          "name": "",
          "type": "tuple[]"
        }
      ],
      "stateMutability": "view",
      "type": "function"
    },
    {
      "inputs": [
        {
          "internalType": "uint256",
          "name": "start",
          "type": "uint256"
        },
        {
          "internalType": "uint256",
          "name": "end",
          "type": "uint256"
        }
      ],
      "name": "getCompletedCampaigns",
      "outputs": [
        {
          "components": [
            {
              "internalType": "uint256",
              "name": "id",
              "type": "uint256"
            },
            {
              "internalType": "uint256",
              "name": "target",
              "type": "uint256"
            },
            {
              "internalType": "uint256",
              "name": "deadline",
              "type": "uint256"
            },
            {
              "internalType": "uint256",
              "name": "amountCollected",
              "type": "uint256"
            },
            {
              "internalType": "uint256",
              "name": "createdAt",
              "type": "uint256"
            },
            {
              "internalType": "uint256",
              "name": "nextMilestoneIndex",
              "type": "uint256"
            },
            {
              "internalType": "uint256",
              "name": "ethEscrowed",
              "type": "uint256"
            },
            {
              "internalType": "uint256",
              "name": "donationCount",
              "type": "uint256"
            },
            {
              "internalType": "address",
              "name": "owner",
              "type": "address"
            },
            {
              "internalType": "enum CivilShare.CampaignStatus",
              "name": "status",
              "type": "uint8"
            },
            {
              "internalType": "bool",
              "name": "isEscrow",
              "type": "bool"
            },
            {
              "internalType": "address[]",
              "name": "acceptedTokens",
              "type": "address[]"
            },
            {
              "internalType": "string",
              "name": "title",
              "type": "string"
            },
            {
              "internalType": "string",
              "name": "description",
              "type": "string"
            },
            {
              "internalType": "string",
              "name": "image",
              "type": "string"
            },
            {
              "internalType": "string",
              "name": "category",
              "type": "string"
            },
            {
              "internalType": "string",
              "name": "metadataURI",
              "type": "string"
            }
          ],
          "internalType": "struct CivilShare.Campaign[]",
          "name": "",
          "type": "tuple[]"
        }
      ],
      "stateMutability": "view",
      "type": "function"
    },
    {
      "inputs": [
        {
          "internalType": "uint256",
          "name": "start",
          "type": "uint256"
        },
        {
          "internalType": "uint256",
          "name": "end",
          "type": "uint256"
        }
      ],
      "name": "getExpiredCampaigns",
      "outputs": [
        {
          "components": [
            {
              "internalType": "uint256",
              "name": "id",
              "type": "uint256"
            },
            {
              "internalType": "uint256",
              "name": "target",
              "type": "uint256"
            },
            {
              "internalType": "uint256",
              "name": "deadline",
              "type": "uint256"
            },
            {
              "internalType": "uint256",
              "name": "amountCollected",
              "type": "uint256"
            },
            {
              "internalType": "uint256",
              "name": "createdAt",
              "type": "uint256"
            },
            {
              "internalType": "uint256",
              "name": "nextMilestoneIndex",
              "type": "uint256"
            },
            {
              "internalType": "uint256",
              "name": "ethEscrowed",
              "type": "uint256"
            },
            {
              "internalType": "uint256",
              "name": "donationCount",
              "type": "uint256"
            },
            {
              "internalType": "address",
              "name": "owner",
              "type": "address"
            },
            {
              "internalType": "enum CivilShare.CampaignStatus",
              "name": "status",
              "type": "uint8"
            },
            {
              "internalType": "bool",
              "name": "isEscrow",
              "type": "bool"
            },
            {
              "internalType": "address[]",
              "name": "acceptedTokens",
              "type": "address[]"
            },
            {
              "internalType": "string",
              "name": "title",
              "type": "string"
            },
            {
              "internalType": "string",
              "name": "description",
              "type": "string"
            },
            {
              "internalType": "string",
              "name": "image",
              "type": "string"
            },
            {
              "internalType": "string",
              "name": "category",
              "type": "string"
            },
            {
              "internalType": "string",
              "name": "metadataURI",
              "type": "string"
            }
          ],
          "internalType": "struct CivilShare.Campaign[]",
          "name": "",
          "type": "tuple[]"
        }
      ],
      "stateMutability": "view",
      "type": "function"
    },
    {
      "inputs": [
        {
          "internalType": "address",
          "name": "_user",
          "type": "address"
        }
      ],
      "name": "getLastCreated",
      "outputs": [
        {
          "internalType": "uint256",
          "name": "",
          "type": "uint256"
        }
      ],
      "stateMutability": "view",
      "type": "function"
    },
    {
      "inputs": [
        {
          "internalType": "bytes32",
          "name": "role",
          "type": "bytes32"
        }
      ],
      "name": "getRoleAdmin",
      "outputs": [
        {
          "internalType": "bytes32",
          "name": "",
          "type": "bytes32"
        }
      ],
      "stateMutability": "view",
      "type": "function"
    },
    {
      "inputs": [],
      "name": "getStats",
      "outputs": [
        {
          "internalType": "uint256",
          "name": "totalCampaigns",
          "type": "uint256"
        },
        {
          "internalType": "uint256",
          "name": "totalETH",
          "type": "uint256"
        }
      ],
      "stateMutability": "view",
      "type": "function"
    },
    {
      "inputs": [
        {
          "internalType": "uint256",
          "name": "id",
          "type": "uint256"
        }
      ],
      "name": "getTotalDonatedForCampaign",
      "outputs": [
        {
          "internalType": "uint256",
          "name": "eth",
          "type": "uint256"
        },
        {
          "internalType": "address[]",
          "name": "tokens",
          "type": "address[]"
        },
        {
          "internalType": "uint256[]",
          "name": "amounts",
          "type": "uint256[]"
        }
      ],
      "stateMutability": "view",
      "type": "function"
    },
    {
      "inputs": [
        {
          "internalType": "address",
          "name": "_user",
          "type": "address"
        }
      ],
      "name": "getUserCampaigns",
      "outputs": [
        {
          "components": [
            {
              "internalType": "uint256",
              "name": "id",
              "type": "uint256"
            },
            {
              "internalType": "uint256",
              "name": "target",
              "type": "uint256"
            },
            {
              "internalType": "uint256",
              "name": "deadline",
              "type": "uint256"
            },
            {
              "internalType": "uint256",
              "name": "amountCollected",
              "type": "uint256"
            },
            {
              "internalType": "uint256",
              "name": "createdAt",
              "type": "uint256"
            },
            {
              "internalType": "uint256",
              "name": "nextMilestoneIndex",
              "type": "uint256"
            },
            {
              "internalType": "uint256",
              "name": "ethEscrowed",
              "type": "uint256"
            },
            {
              "internalType": "uint256",
              "name": "donationCount",
              "type": "uint256"
            },
            {
              "internalType": "address",
              "name": "owner",
              "type": "address"
            },
            {
              "internalType": "enum CivilShare.CampaignStatus",
              "name": "status",
              "type": "uint8"
            },
            {
              "internalType": "bool",
              "name": "isEscrow",
              "type": "bool"
            },
            {
              "internalType": "address[]",
              "name": "acceptedTokens",
              "type": "address[]"
            },
            {
              "internalType": "string",
              "name": "title",
              "type": "string"
            },
            {
              "internalType": "string",
              "name": "description",
              "type": "string"
            },
            {
              "internalType": "string",
              "name": "image",
              "type": "string"
            },
            {
              "internalType": "string",
              "name": "category",
              "type": "string"
            },
            {
              "internalType": "string",
              "name": "metadataURI",
              "type": "string"
            }
          ],
          "internalType": "struct CivilShare.Campaign[]",
          "name": "",
          "type": "tuple[]"
        }
      ],
      "stateMutability": "view",
      "type": "function"
    },
    {
      "inputs": [
        {
          "internalType": "bytes32",
          "name": "role",
          "type": "bytes32"
        },
        {
          "internalType": "address",
          "name": "account",
          "type": "address"
        }
      ],
      "name": "grantRole",
      "outputs": [],
      "stateMutability": "nonpayable",
      "type": "function"
    },
    {
      "inputs": [
        {
          "internalType": "uint256",
          "name": "",
          "type": "uint256"
        },
        {
          "internalType": "address",
          "name": "",
          "type": "address"
        }
      ],
      "name": "hasDonatedToCampaign",
      "outputs": [
        {
          "internalType": "bool",
          "name": "",
          "type": "bool"
        }
      ],
      "stateMutability": "view",
      "type": "function"
    },
    {
      "inputs": [
        {
          "internalType": "bytes32",
          "name": "role",
          "type": "bytes32"
        },
        {
          "internalType": "address",
          "name": "account",
          "type": "address"
        }
      ],
      "name": "hasRole",
      "outputs": [
        {
          "internalType": "bool",
          "name": "",
          "type": "bool"
        }
      ],
      "stateMutability": "view",
      "type": "function"
    },
    {
      "inputs": [
        {
          "internalType": "uint256",
          "name": "",
          "type": "uint256"
        },
        {
          "internalType": "address",
          "name": "",
          "type": "address"
        }
      ],
      "name": "hasVoted",
      "outputs": [
        {
          "internalType": "bool",
          "name": "",
          "type": "bool"
        }
      ],
      "stateMutability": "view",
      "type": "function"
    },
    {
      "inputs": [],
      "name": "initialize",
      "outputs": [],
      "stateMutability": "nonpayable",
      "type": "function"
    },
    {
      "inputs": [
        {
          "internalType": "uint256",
          "name": "",
          "type": "uint256"
        },
        {
          "internalType": "address",
          "name": "",
          "type": "address"
        }
      ],
      "name": "isCampaignDonor",
      "outputs": [
        {
          "internalType": "bool",
          "name": "",
          "type": "bool"
        }
      ],
      "stateMutability": "view",
      "type": "function"
    },
    {
      "inputs": [
        {
          "internalType": "address",
          "name": "",
          "type": "address"
        }
      ],
      "name": "lastCreated",
      "outputs": [
        {
          "internalType": "uint256",
          "name": "",
          "type": "uint256"
        }
      ],
      "stateMutability": "view",
      "type": "function"
    },
    {
      "inputs": [
        {
          "internalType": "uint256",
          "name": "_id",
          "type": "uint256"
        }
      ],
      "name": "markAsCompleted",
      "outputs": [],
      "stateMutability": "nonpayable",
      "type": "function"
    },
    {
      "inputs": [],
      "name": "numberOfCampaigns",
      "outputs": [
        {
          "internalType": "uint256",
          "name": "",
          "type": "uint256"
        }
      ],
      "stateMutability": "view",
      "type": "function"
    },
    {
      "inputs": [],
      "name": "paused",
      "outputs": [
        {
          "internalType": "bool",
          "name": "",
          "type": "bool"
        }
      ],
      "stateMutability": "view",
      "type": "function"
    },
    {
      "inputs": [],
      "name": "proxiableUUID",
      "outputs": [
        {
          "internalType": "bytes32",
          "name": "",
          "type": "bytes32"
        }
      ],
      "stateMutability": "view",
      "type": "function"
    },
    {
      "inputs": [
        {
          "internalType": "uint256",
          "name": "",
          "type": "uint256"
        },
        {
          "internalType": "address",
          "name": "",
          "type": "address"
        },
        {
          "internalType": "address",
          "name": "",
          "type": "address"
        }
      ],
      "name": "refunds",
      "outputs": [
        {
          "internalType": "uint256",
          "name": "",
          "type": "uint256"
        }
      ],
      "stateMutability": "view",
      "type": "function"
    },
    {
      "inputs": [
        {
          "internalType": "bytes32",
          "name": "role",
          "type": "bytes32"
        },
        {
          "internalType": "address",
          "name": "callerConfirmation",
          "type": "address"
        }
      ],
      "name": "renounceRole",
      "outputs": [],
      "stateMutability": "nonpayable",
      "type": "function"
    },
    {
      "inputs": [
        {
          "internalType": "bytes32",
          "name": "role",
          "type": "bytes32"
        },
        {
          "internalType": "address",
          "name": "account",
          "type": "address"
        }
      ],
      "name": "revokeRole",
      "outputs": [],
      "stateMutability": "nonpayable",
      "type": "function"
    },
    {
      "inputs": [
        {
          "internalType": "address",
          "name": "token",
          "type": "address"
        },
        {
          "internalType": "bool",
          "name": "isAllowed",
          "type": "bool"
        }
      ],
      "name": "setAllowedToken",
      "outputs": [],
      "stateMutability": "nonpayable",
      "type": "function"
    },
    {
      "inputs": [
        {
          "internalType": "address",
          "name": "_forwarder",
          "type": "address"
        }
      ],
      "name": "setTrustedForwarder",
      "outputs": [],
      "stateMutability": "nonpayable",
      "type": "function"
    },
    {
      "inputs": [
        {
          "internalType": "bytes4",
          "name": "interfaceId",
          "type": "bytes4"
        }
      ],
      "name": "supportsInterface",
      "outputs": [
        {
          "internalType": "bool",
          "name": "",
          "type": "bool"
        }
      ],
      "stateMutability": "view",
      "type": "function"
    },
    {
      "inputs": [],
      "name": "togglePause",
      "outputs": [],
      "stateMutability": "nonpayable",
      "type": "function"
    },
    {
      "inputs": [
        {
          "internalType": "uint256",
          "name": "",
          "type": "uint256"
        },
        {
          "internalType": "address",
          "name": "",
          "type": "address"
        }
      ],
      "name": "tokenAmountCollected",
      "outputs": [
        {
          "internalType": "uint256",
          "name": "",
          "type": "uint256"
        }
      ],
      "stateMutability": "view",
      "type": "function"
    },
    {
      "inputs": [
        {
          "internalType": "uint256",
          "name": "",
          "type": "uint256"
        },
        {
          "internalType": "address",
          "name": "",
          "type": "address"
        }
      ],
      "name": "tokenEscrowed",
      "outputs": [
        {
          "internalType": "uint256",
          "name": "",
          "type": "uint256"
        }
      ],
      "stateMutability": "view",
      "type": "function"
    },
    {
      "inputs": [
        {
          "internalType": "uint256",
          "name": "",
          "type": "uint256"
        }
      ],
      "name": "topDonationAmount",
      "outputs": [
        {
          "internalType": "uint256",
          "name": "",
          "type": "uint256"
        }
      ],
      "stateMutability": "view",
      "type": "function"
    },
    {
      "inputs": [
        {
          "internalType": "uint256",
          "name": "",
          "type": "uint256"
        }
      ],
      "name": "topDonors",
      "outputs": [
        {
          "internalType": "address",
          "name": "",
          "type": "address"
        }
      ],
      "stateMutability": "view",
      "type": "function"
    },
    {
      "inputs": [],
      "name": "totalAmountDonated",
      "outputs": [
        {
          "internalType": "uint256",
          "name": "",
          "type": "uint256"
        }
      ],
      "stateMutability": "view",
      "type": "function"
    },
    {
      "inputs": [],
      "name": "trustedForwarder",
      "outputs": [
        {
          "internalType": "address",
          "name": "",
          "type": "address"
        }
      ],
      "stateMutability": "view",
      "type": "function"
    },
    {
      "inputs": [
        {
          "internalType": "address",
          "name": "newImplementation",
          "type": "address"
        },
        {
          "internalType": "bytes",
          "name": "data",
          "type": "bytes"
        }
      ],
      "name": "upgradeToAndCall",
      "outputs": [],
      "stateMutability": "payable",
      "type": "function"
    },
    {
      "inputs": [
        {
          "internalType": "uint256",
          "name": "_id",
          "type": "uint256"
        }
      ],
      "name": "upvote",
      "outputs": [],
      "stateMutability": "nonpayable",
      "type": "function"
    },
    {
      "inputs": [
        {
          "internalType": "uint256",
          "name": "",
          "type": "uint256"
        }
      ],
      "name": "upvotes",
      "outputs": [
        {
          "internalType": "uint256",
          "name": "",
          "type": "uint256"
        }
      ],
      "stateMutability": "view",
      "type": "function"
    },
    {
      "inputs": [
        {
          "internalType": "address",
          "name": "",
          "type": "address"
        },
        {
          "internalType": "uint256",
          "name": "",
          "type": "uint256"
        }
      ],
      "name": "userCampaigns",
      "outputs": [
        {
          "internalType": "uint256",
          "name": "",
          "type": "uint256"
        }
      ],
      "stateMutability": "view",
      "type": "function"
    },
    {
      "inputs": [
        {
          "internalType": "uint256",
          "name": "id",
          "type": "uint256"
        },
        {
          "internalType": "bytes32",
          "name": "expectedHash",
          "type": "bytes32"
        }
      ],
      "name": "validateMetadataURI",
      "outputs": [
        {
          "internalType": "bool",
          "name": "",
          "type": "bool"
        }
      ],
      "stateMutability": "view",
      "type": "function"
    },
    {
      "inputs": [
        {
          "internalType": "uint256",
          "name": "_id",
          "type": "uint256"
        }
      ],
      "name": "verifyCampaign",
      "outputs": [],
      "stateMutability": "nonpayable",
      "type": "function"
    },
    {
      "inputs": [
        {
          "internalType": "uint256",
          "name": "_id",
          "type": "uint256"
        },
        {
          "internalType": "address",
          "name": "token",
          "type": "address"
        }
      ],
      "name": "withdrawCampaignFunds",
      "outputs": [],
      "stateMutability": "nonpayable",
      "type": "function"
    },
    {
      "inputs": [
        {
          "internalType": "address payable",
          "name": "to",
          "type": "address"
        },
        {
          "internalType": "address",
          "name": "token",
          "type": "address"
        },
        {
          "internalType": "uint256",
          "name": "amount",
          "type": "uint256"
        }
      ],
      "name": "withdrawTreasuryBalance",
      "outputs": [],
      "stateMutability": "nonpayable",
      "type": "function"
    },
    {
      "stateMutability": "payable",
      "type": "receive"
    }
  ],
  "bytecode": "0x60a08060405234602e57306080526000600d5561531990816100348239608051818181611f230152611fc80152f35b600080fdfe60806040526004361015610010575b005b60003560e01c806301ddf0701461419157806301ffc9a71461413b578063024ece891461400c57806307ca140d14613fee57806311eb949814613af65780631212d4f5146138d9578063141961bc1461378957806319ac74bd146137305780631f74645e146136e8578063248a9ca3146136c2578063249e659f1461353d5780632f2ff15d1461350c5780633178492a1461349d578063325e84e614613455578063353c5bd2146128e057806336568abe1461288a5780633aa2d4b1146126d55780633b594a68146126a45780633bb1f28b146125845780633e019901146125375780634138de6a146122c9578063438596321461227c578063471c027c146122505780634ad04197146121665780634f1ef28614611f7a57806352d1902d14611f10578063560184f814611bd7578063564a7ac114611b8f5780635b7baf6414611a9d5780635c975abb14611a7a5780635cbaddab14611a465780635f259cfe146118f2578063636a5467146118d45780636bf8fd42146117a45780636c713c8f146112875780636c9016ce1461175757806375b238fc1461171c5780637c0971fd146116c15780637da0a877146116985780637eca30fe146115275780638129fc1c146113a55780638aaa2284146112c15780638aab2c7e146112875780638d9ed5f91461123f57806391d14854146111e557806395e60f461461103f57806396114c3f14611013578063a1e5084c14610e95578063a217fddf14610e79578063ad3cb1cc14610e32578063b653145814610c67578063bf3ec80c14610a1b578063c0a6026c14610905578063c266aef71461079a578063c4ae3168146106f1578063c59d4847146106cc578063d547741f14610696578063da7422281461062f578063db9fc9f7146105e2578063e6ffcaa114610470578063e744092e14610431578063e9c2651814610408578063f0f89eea146103ea578063f52cb29b146103015763ff367af40361000e57346102fc5760003660031901126102fc57602060405160648152f35b600080fd5b346102fc5760203660031901126102fc5733600090815260008051602061522483398151915260209081526040909120547f828635a891091ed676512ab0ab2e966391437a035beb146b02cb74cb841d128b91906004359060ff1680156103af575b61036c90614c8f565b806000526003825261038560ff60406000205416614885565b600081815260028352604090819020600801805460ff60a01b1916600360a01b17905551908152a1005b50600080516020615204833981519152600090815260008051602061528483398151915283526040808220338352845290205460ff16610363565b346102fc5760003660031901126102fc576020600654604051908152f35b346102fc5760003660031901126102fc5760206040516000805160206152048339815191528152f35b346102fc5760203660031901126102fc576001600160a01b03610452614375565b166000526007602052602060ff604060002054166040519015158152f35b346102fc5760203660031901126102fc5760043561048c614aee565b508060005260036020526104a760ff60406000205416614885565b600052600260205260406000206040516104c0816143c5565b8154815260018201546020820152600282015460408201526003820154606082015260048201546080820152600582015460a0820152600682015460c0820152600782015460e0820152600882015460018060a01b03811661010083015260ff8160a01c169060048210156105cc576105c89360ff600e926105ae9461012087015260a81c16151561014085015261055a600982016147dc565b61016085015261056c600a8201614402565b61018085015261057e600b8201614402565b6101a0850152610590600c8201614402565b6101c08501526105a2600d8201614402565b6101e085015201614402565b610200820152604051918291602083526020830190614538565b0390f35b634e487b7160e01b600052602160045260246000fd5b346102fc5760403660031901126102fc576105fb614349565b600435600052600860205260406000209060018060a01b0316600052602052602060ff604060002054166040519015158152f35b346102fc5760203660031901126102fc57610648614375565b610650614d06565b604780546001600160a01b0319166001600160a01b039290921691821790557fa4388ecc389b1390354ae0c65a856c0d7dd4fb648419f5d3ac0b99e38f46fd11600080a2005b346102fc5760403660031901126102fc5761000e6004356106b5614349565b906106c76106c282614a91565b614d84565b6150a6565b346102fc5760003660031901126102fc576040600d5460065482519182526020820152f35b346102fc5760003660031901126102fc57336000908152600080516020615224833981519152602052604090205460ff168015610774575b61073290614c8f565b7fda88b5dfaac55549d4ddddd43a09d4b911233df354952ebc9ac2041aa1853436602060125460ff8082161516809160ff1916176012556040519015158152a1005b50336000908152600080516020615264833981519152602052604090205460ff16610729565b346102fc576107a836614522565b906107b1614cca565b60008181526002602052604090206008810180546107e99060ff906107e0336001600160a01b038316146149bd565b60a81c16614a00565b8260005260016020526108008460406000206146e5565b50916002830180549161081660ff841615614a45565b600381016001815496019384548097106108cb5760006020966005829583956108707f0f7f51312954676acd3ef3da92d9cfd404e9aa38e628c180e066a02e54889f959c6108af9a6001889960ff19161790558254614a84565b9055885461088360068301918254614a84565b9055016108908154614785565b9055548654906001600160a01b03165af16108a9614c06565b50614c43565b54604051908152a360016000805160206152a483398151915255005b60405162461bcd60e51b8152602060048201526012602482015271496e73756666696369656e742066756e647360701b6044820152606490fd5b346102fc5760203660031901126102fc576004358060005260026020526040600020906008820160ff815460a01c169260048410156105cc5761094a600185146148d1565b6002600094146109d657600160038201549101541161099b57805460ff60a01b1916600160a11b1790557fbdef6a2e3aa892961a2dab48272f72f2bc1c7121eb1c0ed7e4a58e081c1e4be08280a280f35b60405162461bcd60e51b81526020600482015260136024820152722a30b933b2ba103737ba103cb2ba1036b2ba1760691b6044820152606490fd5b60405162461bcd60e51b815260206004820152601b60248201527f43616d706169676e20616c726561647920636f6d706c657465642e00000000006044820152606490fd5b346102fc5760603660031901126102fc576004356001600160a01b0381168082036102fc57610a48614349565b9060443591610a55614cca565b336000908152600080516020615224833981519152602052604090205460ff168015610c41575b610a8590614c8f565b6001600160a01b031680610b845750478211610b3f57600080808481945af1610aac614c06565b5015610b0457604080516001600160a01b0393909316835260208301919091527f41fdd680478135993bc53fb2ffaf9560951b57ef62ff6badd02b61e018b4f17f91a15b60016000805160206152a483398151915255005b60405162461bcd60e51b8152602060048201526013602482015272115512081dda5d1a191c985dc819985a5b1959606a1b6044820152606490fd5b60405162461bcd60e51b815260206004820152601860248201527f496e73756666696369656e74204554482062616c616e636500000000000000006044820152606490fd5b60405163a9059cbb60e01b81526001600160a01b038516600482015260248101849052939150602090849060449082906000905af1928315610c35577f41fdd680478135993bc53fb2ffaf9560951b57ef62ff6badd02b61e018b4f17f93610c08575b50604080516001600160a01b039290921682526020820192909252a1610af0565b610c299060203d602011610c2e575b610c2181836143e1565b810190614961565b610be7565b503d610c17565b6040513d6000823e3d90fd5b50336000908152600080516020615264833981519152602052604090205460ff16610a7c565b346102fc57610c7536614522565b9080821180610e26575b610c8890614ab2565b610c9a610c958284614a84565b614b74565b916000915b818110610cf4575050610cb181614b74565b9160005b828110610cca57604051806105c88682614685565b80610cd760019284614830565b51610ce28287614830565b52610ced8186614830565b5001610cb5565b806000526002602052426002604060002001541180610dfc575b610d1b575b600101610c9f565b91826000526002602052604060002060405191610d37836143c5565b8154835260018201546020840152600282015460408401526003820154606084015260048201546080840152600582015460a0840152600682015460c0840152600782015460e084015260088201549260018060a01b03841661010082015260ff8460a01c1660048110156105cc57600e610df49460ff600197610dd39461012087015260a81c16151561014085015261055a600982016147dc565b610200820152610de38288614830565b52610dee8187614830565b50614785565b929050610d13565b5080600052600260205260ff60086040600020015460a01c1660048110156105cc57600114610d0e565b50600d54821115610c7f565b346102fc5760003660031901126102fc576105c86040805190610e5581836143e1565b60058252640352e302e360dc1b6020830152519182916020835260208301906144b3565b346102fc5760003660031901126102fc57602060405160008152f35b346102fc5760203660031901126102fc576001600160a01b03610eb6614375565b16600052600560205260406000206040518082602082945493848152019060005260206000209260005b818110610ffa575050610ef5925003826143e1565b610eff8151614b74565b9060005b8151811015610fec57610f168183614830565b516000526002602052604060002090604051610f31816143c5565b8254815260018301546020820152600283015460408201526003830154606082015260048301546080820152600583015460a0820152600683015460c0820152600783015460e0820152600883015460018060a01b03811661010083015260ff8160a01c169060048210156105cc5760019460ff600e92610fca9461012087015260a81c16151561014085015261055a600982016147dc565b610200820152610fda8286614830565b52610fe58185614830565b5001610f03565b604051806105c88582614685565b8454835260019485019486945060209093019201610ee0565b346102fc5760203660031901126102fc5760043560005260106020526020604060002054604051908152f35b346102fc5761104d36614522565b90808211806111d9575b61106090614ab2565b61106d610c958284614a84565b916000915b8181106110c757505061108481614b74565b9160005b82811061109d57604051806105c88682614685565b806110aa60019284614830565b516110b58287614830565b526110c08186614830565b5001611088565b806000526002602052426002604060002001541115806111af575b6110ef575b600101611072565b9182600052600260205260406000206040519161110b836143c5565b8154835260018201546020840152600282015460408401526003820154606084015260048201546080840152600582015460a0840152600682015460c0840152600782015460e084015260088201549260018060a01b03841661010082015260ff8460a01c1660048110156105cc57600e6111a79460ff600197610dd39461012087015260a81c16151561014085015261055a600982016147dc565b9290506110e7565b5080600052600260205260ff60086040600020015460a01c1660048110156105cc576001146110e2565b50600d54821115611057565b346102fc5760403660031901126102fc576111fe614349565b60043560005260008051602061528483398151915260205260406000209060018060a01b0316600052602052602060ff604060002054166040519015158152f35b346102fc5760403660031901126102fc57611258614349565b600435600052600960205260406000209060018060a01b03166000526020526020604060002054604051908152f35b346102fc5760203660031901126102fc576001600160a01b036112a8614375565b1660005260046020526020604060002054604051908152f35b346102fc5760403660031901126102fc576112da614375565b602435908115158092036102fc5733600090815260008051602061522483398151915260209081526040909120547f1da521c13439ac6ab125c52e0da7dd7de929f09e58aa0f89ebe3dbb12e63a52b929060ff16801561136a575b61133e90614c8f565b60018060a01b0316928360005260078252604060002060ff1981541660ff8316179055604051908152a2005b50600080516020615204833981519152600090815260008051602061528483398151915283526040808220338352845290205460ff16611335565b346102fc5760003660031901126102fc576000805160206152c48339815191525460ff8160401c1615906001600160401b0381168015908161151f575b6001149081611515575b15908161150c575b506114fb5767ffffffffffffffff1981166001176000805160206152c483398151915255816114ce575b50611427615154565b61142f615154565b611437615154565b60016000805160206152a483398151915255611451615154565b61145a33614de7565b5061146433614e9b565b5061146e33614f45565b5061147557005b68ff0000000000000000196000805160206152c483398151915254166000805160206152c4833981519152557fc7f505b2f371ae2175ee4913f4499e1f2633a7b5936321eed1cdaeb6115181d2602060405160018152a1005b68ffffffffffffffffff191668010000000000000001176000805160206152c4833981519152558161141e565b63f92ee8a960e01b60005260046000fd5b905015836113f4565b303b1591506113ec565b8391506113e2565b346102fc5760203660031901126102fc5760043580600052600360205261155560ff60406000205416614885565b600081815260026020526040902060088101805490929190336001600160a01b038216148015611672575b1561163c5760ff8160a81c16918261162e575b50816115f1575b507fa8ad368de07a46b4c9632fee456e1227f02e971f82939d68bd4696b2e378dfa79260209291156115e157805460ff60a01b1916600160a11b1790555b604051908152a1005b805460ff60a01b191690556115d8565b60ff915060a01c169060048210156105cc5790600214157fa8ad368de07a46b4c9632fee456e1227f02e971f82939d68bd4696b2e378dfa761159a565b600301541515915084611593565b60405162461bcd60e51b815260206004820152600e60248201526d139bdd08185d5d1a1bdc9a5e995960921b6044820152606490fd5b50336000908152600080516020615224833981519152602052604090205460ff16611580565b346102fc5760003660031901126102fc576047546040516001600160a01b039091168152602090f35b346102fc5760603660031901126102fc576116da614349565b6116e261435f565b6004356000908152600b602090815260408083206001600160a01b0395861684528252808320949093168252928352819020549051908152f35b346102fc5760003660031901126102fc5760206040517fa49807205ce4d355092ef5a8a18f56e8913cf4a201fbe287825b095693c217758152f35b346102fc5760403660031901126102fc57611770614349565b600435600052601460205260406000209060018060a01b0316600052602052602060ff604060002054166040519015158152f35b346102fc5760203660031901126102fc576004358060005260036020526117d260ff60406000205416614885565b80600052600260205260406000206117f16009600383015492016147dc565b8051906118166118008361476e565b9261180e60405194856143e1565b80845261476e565b602083019390601f190136853760005b82518110156118765760019086600052600a602052604080600020838060a01b036118518488614830565b511690600091858060a01b03168252602052205461186f8287614830565b5201611826565b50929190935060206118996040519586958652606083870152606086019061430c565b918483036040860152519182815201919060005b8181106118bb575050500390f35b82518452859450602093840193909201916001016118ad565b346102fc5760003660031901126102fc576020604051620151808152f35b346102fc5760403660031901126102fc5761190b614375565b602435908115611a01576001600160a01b031660008181526007602052604090205490919060ff16156119c8576040516323b872dd60e01b8152336004820152306024820152604481018290526020816064816000875af18015610c355761197b916000916119a9575b50614979565b6040519081527fcedeec3d87bab948b78578aa28e3a9a7a86436b9db48e0cab9b501a596fa8a3360203392a3005b6119c2915060203d602011610c2e57610c2181836143e1565b84611975565b60405162461bcd60e51b8152602060048201526011602482015270151bdad95b881b9bdd08185b1b1bddd959607a1b6044820152606490fd5b60405162461bcd60e51b815260206004820152601d60248201527f416d6f756e74206d7573742062652067726561746572207468616e20300000006044820152606490fd5b346102fc5760203660031901126102fc57600435600052600e602052602060018060a01b0360406000205416604051908152f35b346102fc5760003660031901126102fc57602060ff601254166040519015158152f35b346102fc5760203660031901126102fc57600435611ab9614cca565b6000818152600c6020908152604080832033845290915290205490611adf821515614bc4565b80600052600c602052604060002060018060a01b03331660005260205260006040812055600080808085335af1611b14614c06565b5015611b5a576040519182527f067c42eda1496b800b57c9fe634a9218dc00a15cb38247910f717d265000242160203393a360016000805160206152a483398151915255005b60405162461bcd60e51b815260206004820152600d60248201526c1499599d5b990819985a5b1959609a1b6044820152606490fd5b346102fc5760403660031901126102fc57611ba8614349565b600435600052600060205260406000209060018060a01b03166000526020526020604060002054604051908152f35b60203660031901126102fc57600435611bf560ff6012541615614844565b611bfd614cca565b8060005260026020526040600020908060005260006020526040600020600883019060ff825460a01c1660048110156105cc576001611c3c91146148d1565b611c4b6002850154421061491d565b60018060a01b0333166000526020526040600020611c6a348254614c36565b9055600082815260146020908152604080832033845290915290205460ff1615611ee7575b805460ff8160a81c16600014611e6f575060038301611caf348254614c36565b905560068301611cc0348254614c36565b90555b60078301600181540190553460065401600655604051348152827fc21ced65a5123cf3a616a47c5db0322ac53c225fc7cd0b8006a899ed321edc2160203393a36040513481526000602082015260016040820152827fc0d2dcefa652289d410a90d1e74f5483b1fe1f34f334a1dd364d282f66e1cbd060603393a360ff815460a81c16611d5e5760016000805160206152a483398151915255005b600583019182545b816000526001602052604060002054811015611e6557816000526001602052611d938160406000206146e5565b50906002820180549260ff84161580611e53575b15611e42577f0f7f51312954676acd3ef3da92d9cfd404e9aa38e628c180e066a02e54889f9560208692611e02600080808060018e8c9b829e839060ff1916179055818060a01b039054169601958654905af16108a9614c06565b8054611e1360038d01918254614a84565b90558054611e2660068d01918254614a84565b9055611e328a54614785565b8a5554604051908152a301611d66565b50505050505050505b808080610af0565b50600388015460018201541115611da7565b5050505050611e4b565b60009081908190819034906001600160a01b03165af1611e8d614c06565b5015611ea95760038301611ea2348254614c36565b9055611cc3565b60405162461bcd60e51b8152602060048201526016602482015275111a5c9958dd08191bdb985d1a5bdb8819985a5b195960521b6044820152606490fd5b60008281526014602090815260408083203384529091529020805460ff19166001179055611c8f565b346102fc5760003660031901126102fc577f00000000000000000000000000000000000000000000000000000000000000006001600160a01b03163003611f695760206040516000805160206152448339815191528152f35b63703e46dd60e11b60005260046000fd5b60403660031901126102fc57611f8e614375565b6024356001600160401b0381116102fc57366023820112156102fc57611fbe90369060248160040135910161471c565b6001600160a01b037f000000000000000000000000000000000000000000000000000000000000000016308114908115612143575b50611f6957612000614d06565b6040516352d1902d60e01b81526001600160a01b0383169290602081600481875afa6000918161210f575b506120455783634c9c8ce360e01b60005260045260246000fd5b806000805160206152448339815191528592036120fb5750813b156120e75760008051602061524483398151915280546001600160a01b031916821790557fbc7cd75a20ee27fd9adebab32041f755214dbc6bffa90cc0225b39da2e5c2d3b600080a28151156120cd5760008083602061000e95519101845af46120c7614c06565b91615182565b5050346120d657005b63b398979f60e01b60005260046000fd5b634c9c8ce360e01b60005260045260246000fd5b632a87526960e21b60005260045260246000fd5b9091506020813d60201161213b575b8161212b602093836143e1565b810103126102fc5751908561202b565b3d915061211e565b600080516020615244833981519152546001600160a01b03161415905083611ff3565b346102fc5760403660031901126102fc5760043580600052600360205261219460ff60406000205416614885565b60005260026020526020600e60406000200160405190828201908260008254926121bd8461438b565b936001811690811561223357506001146121f6575b506121e6925003601f1981018452836143e1565b6024359151902014604051908152f35b91505060005282846000206000905b83821061221c575050846121e692820101866121d2565b805486830188015285925090860190600101612205565b60ff19168652506121e693801515028301870191508790506121d2565b346102fc5760203660031901126102fc57600435600052600f6020526020604060002054604051908152f35b346102fc5760403660031901126102fc57612295614349565b600435600052601160205260406000209060018060a01b0316600052602052602060ff604060002054166040519015158152f35b346102fc5760403660031901126102fc576004356122e5614349565b906122ee614cca565b600081815260026020526040902060088101549092906001600160a01b031633036124f2576001600160a01b031691826123fb57600601805491925081156123c15760009055600080808084335af1612345614c06565b501561238a5760207f7c02f2447b03b3f5f13dc0b6cf90d91fc6e3eec2ffcc467b9d0b297d63ad2b6f91604051908152a260016000805160206152a483398151915255005b60405162461bcd60e51b815260206004820152600f60248201526e15da5d1a191c985dc819985a5b1959608a1b6044820152606490fd5b60405162461bcd60e51b81526020600482015260126024820152714e6f2045544820746f20776974686472617760701b6044820152606490fd5b5080600052600960205260406000208260005260205260406000205480156124b657600082815260096020908152604080832086845282528083208390555163a9059cbb60e01b815233600482015260248101849052929183906044908290885af1908115610c35577f46a80e63d2402a895805e446d536d1ae392c3d1c7dcfaf3c19f6b707ff075bfc9260209261249b575b50604051908152a3610af0565b6124b190833d8511610c2e57610c2181836143e1565b61248e565b60405162461bcd60e51b81526020600482015260146024820152734e6f20746f6b656e20746f20776974686472617760601b6044820152606490fd5b60405162461bcd60e51b815260206004820152601760248201527f4f6e6c79206f776e65722063616e2077697468647261770000000000000000006044820152606490fd5b346102fc5760403660031901126102fc57612550614349565b600435600052601360205260406000209060018060a01b0316600052602052602060ff604060002054166040519015158152f35b346102fc5760403660031901126102fc576004356125a0614349565b6125a8614cca565b6000828152600b6020908152604080832033845282528083206001600160a01b0385168452909152902054906125df821515614bc4565b6000838152600b60209081526040808320338085529083528184206001600160a01b0395909516808552948352818420849055905163a9059cbb60e01b81526004810191909152602481018590529294929182906044908290885af18015610c3557612687575b506040519182527f91913f151e79c39aba9f9fb1fcc36f5b229acf1329f57f09d367b77c215651fe60203393a460016000805160206152a483398151915255005b61269f9060203d602011610c2e57610c2181836143e1565b612646565b346102fc5760203660031901126102fc576004356000526003602052602060ff604060002054166040519015158152f35b346102fc576126e336614522565b8181111561283957600d5481116127f457612701610c958383614a84565b9060005b81841061271a57604051806105c88582614685565b836000526002602052604060002060405191612735836143c5565b8154835260018201546020840152600282015460408401526003820154606084015260048201546080840152600582015460a0840152600682015460c0840152600782015460e084015260088201549260018060a01b03841661010082015260ff8460a01c1660048110156105cc57600e6127ec9460ff6001976127d19461012087015260a81c16151561014085015261055a600982016147dc565b6102008201526127e18287614830565b52610dee8186614830565b930192612705565b60405162461bcd60e51b815260206004820152601760248201527f456e6420696e646578206f7574206f6620626f756e64730000000000000000006044820152606490fd5b60405162461bcd60e51b8152602060048201526024808201527f456e6420696e646578206d7573742062652067726561746572207468616e20736044820152631d185c9d60e21b6064820152608490fd5b346102fc5760403660031901126102fc576128a3614349565b6001600160a01b036128b3615082565b166001600160a01b038216036128cf5761000e906004356150a6565b63334bd91960e11b60005260046000fd5b346102fc576101403660031901126102fc576128fa614375565b6024356001600160401b0381116102fc57612919903690600401614753565b906044356001600160401b0381116102fc57612939903690600401614753565b906064356084359360a4356001600160401b0381116102fc57612960903690600401614753565b60c4356001600160401b0381116102fc5761297f903690600401614753565b60e4356001600160401b0381116102fc5761299e903690600401614753565b9061010435928315158094036102fc5761012435966001600160401b0388116102fc57366023890112156102fc5787600401356129da8161476e565b986129e86040519a8b6143e1565b818a52602460208b019260051b820101903682116102fc57602401915b81831061343557505050612a1e60ff6012541615614844565b60018060a01b03169889600052600460205262015180612a4360406000205442614a84565b11156133d75785511561339d5788511561335857861561331357428111156132b95781511561327f5782511561324257600d5496876000526002602052604060002099888b5560088b01978c6bffffffffffffffffffffffff60a01b8a5416178955600a8c01908051906001600160401b038211612dd5578190612ac7845461438b565b601f81116131ef575b50602090601f831160011461318a5760009261317f575b50508160011b916000199060031b1c19161790555b8051600b8c01916001600160401b038211612dd5578190612b1d845461438b565b601f811161312c575b50602090601f83116001146130c7576000926130bc575b50508160011b916000199060031b1c19161790555b60018a01556002890155600060038901558051600c8901916001600160401b038211612dd5578190612b84845461438b565b601f8111613069575b50602090601f831160011461300457600092612ff9575b50508160011b916000199060031b1c19161790555b8051600d8801916001600160401b038211612dd5578190612bda845461438b565b601f8111612fa6575b50602090601f8311600114612f4157600092612f36575b50508160011b916000199060031b1c19161790555b8051600e8701916001600160401b038211612dd5578190612c30845461438b565b601f8111612ee3575b50602090601f8311600114612e7e57600092612e73575b50508160011b916000199060031b1c19161790555b815460ff60a81b191660a89190911b60ff60a81b16178155426004850155805460ff60a01b1916600160a01b17905560006005808501829055858252602052604090208054600160401b811015612dd557612cc8916001829796970181556144f4565b81549060031b9083821b91600019901b19161790558060005260036020526040600020600160ff1982541617905582600052600460205242604060002055600960009401935b8251811015612e30576001600160a01b03612d298285614830565b5116600052600760205260ff6040600020541615612deb57600082815260086020526040908190206001600160a01b03612d638487614830565b516001600160a01b03911681166000908152602092909252919020805460ff19166001179055612d938285614830565b511690855491600160401b831015612dd557612db68360018095018955886144f4565b819291549060031b91821b91858060a01b03901b191617905501612d0e565b634e487b7160e01b600052604160045260246000fd5b60405162461bcd60e51b815260206004820152601a60248201527f546f6b656e206e6f7420676c6f62616c6c7920616c6c6f7765640000000000006044820152606490fd5b602082857f633109eec20320eded000fc1e2634211aa7e92ba3f5b15faf6dcdafca05094e483604051848152a2612e68600d54614785565b600d55604051908152f35b015190508980612c50565b60008581528281209350601f198516905b818110612ecb5750908460019594939210612eb2575b505050811b019055612c65565b015160001960f88460031b161c19169055898080612ea5565b92936020600181928786015181550195019301612e8f565b909150836000526020600020601f840160051c81019160208510612f2c575b90601f859493920160051c01905b818110612f1d5750612c39565b60008155849350600101612f10565b9091508190612f02565b015190508a80612bfa565b60008581528281209350601f198516905b818110612f8e5750908460019594939210612f75575b505050811b019055612c0f565b015160001960f88460031b161c191690558a8080612f68565b92936020600181928786015181550195019301612f52565b909150836000526020600020601f840160051c81019160208510612fef575b90601f859493920160051c01905b818110612fe05750612be3565b60008155849350600101612fd3565b9091508190612fc5565b015190508b80612ba4565b60008581528281209350601f198516905b8181106130515750908460019594939210613038575b505050811b019055612bb9565b015160001960f88460031b161c191690558b808061302b565b92936020600181928786015181550195019301613015565b909150836000526020600020601f840160051c810191602085106130b2575b90601f859493920160051c01905b8181106130a35750612b8d565b60008155849350600101613096565b9091508190613088565b015190508e80612b3d565b60008581528281209350601f198516905b81811061311457509084600195949392106130fb575b505050811b019055612b52565b015160001960f88460031b161c191690558e80806130ee565b929360206001819287860151815501950193016130d8565b909150836000526020600020601f840160051c81019160208510613175575b90601f859493920160051c01905b8181106131665750612b26565b60008155849350600101613159565b909150819061314b565b015190508f80612ae7565b60008581528281209350601f198516905b8181106131d757509084600195949392106131be575b505050811b019055612afc565b015160001960f88460031b161c191690558f80806131b1565b9293602060018192878601518155019501930161319b565b909150836000526020600020601f840160051c81019160208510613238575b90601f859493920160051c01905b8181106132295750612ad0565b6000815584935060010161321c565b909150819061320e565b60405162461bcd60e51b815260206004820152601560248201527421b0ba32b3b7b93c9034b9903932b8bab4b932b21760591b6044820152606490fd5b60405162461bcd60e51b815260206004820152601260248201527124b6b0b3b29034b9903932b8bab4b932b21760711b6044820152606490fd5b60405162461bcd60e51b815260206004820152602c60248201527f54686520646561646c696e652073686f756c642062652061206461746520696e60448201526b103a343290333aba3ab9329760a11b6064820152608490fd5b60405162461bcd60e51b815260206004820152601e60248201527f546172676574206d7573742062652067726561746572207468616e20302e00006044820152606490fd5b60405162461bcd60e51b815260206004820152601860248201527f4465736372697074696f6e2069732072657175697265642e00000000000000006044820152606490fd5b60405162461bcd60e51b81526020600482015260126024820152712a34ba36329034b9903932b8bab4b932b21760711b6044820152606490fd5b60405162461bcd60e51b815260206004820152603060248201527f596f752063616e206f6e6c7920637265617465206f6e652063616d706169676e60448201526f1032bb32b93c90191a103437bab9399760811b6064820152608490fd5b82356001600160a01b03811681036102fc57815260209283019201612a05565b346102fc5760403660031901126102fc5761346e614349565b600435600052600a60205260406000209060018060a01b03166000526020526020604060002054604051908152f35b346102fc576134ab36614522565b906000526001602052604060002080548210156102fc576134fb916134cf916146e5565b506134d981614402565b9060ff60026001830154920154166040519384936060855260608501906144b3565b916020840152151560408301520390f35b346102fc5760403660031901126102fc5761000e60043561352b614349565b906135386106c282614a91565b614fdd565b346102fc5761354b36614522565b90808211806136b6575b61355e90614ab2565b61356b610c958284614a84565b916000915b8181106135c557505061358281614b74565b9160005b82811061359b57604051806105c88682614685565b806135a860019284614830565b516135b38287614830565b526135be8186614830565b5001613586565b80600052600260205260ff60086040600020015460a01c1660048110156105cc576002146135f6575b600101613570565b91826000526002602052604060002060405191613612836143c5565b8154835260018201546020840152600282015460408401526003820154606084015260048201546080840152600582015460a0840152600682015460c0840152600782015460e084015260088201549260018060a01b03841661010082015260ff8460a01c1660048110156105cc57600e6136ae9460ff600197610dd39461012087015260a81c16151561014085015261055a600982016147dc565b9290506135ee565b50600d54821115613555565b346102fc5760203660031901126102fc5760206136e0600435614a91565b604051908152f35b346102fc5760403660031901126102fc57613701614349565b600435600052600c60205260406000209060018060a01b03166000526020526020604060002054604051908152f35b346102fc5760403660031901126102fc57613749614375565b6001600160a01b03166000908152600560205260409020805460243591908210156102fc5760209161377a916144f4565b90549060031b1c604051908152f35b346102fc5760203660031901126102fc5760043560005260026020526040600020805460018201549160028101549060038101546004820154600583015460068401546007850154600886015491600a87016137e490614402565b936137f1600b8901614402565b956137fe600c8a01614402565b9761380b600d8b01614402565b99600e0161381890614402565b9a6040519d8e809e81526020015260408d015260608c015260808b015260a08a015260c089015260e0880152600160a01b60019003811661010088015261012087018160a01c60ff169061386b916144a6565b60a81c60ff161515610140870152610160860161020090526102008601613891916144b3565b8581036101808701526138a3916144b3565b8481036101a08601526138b5916144b3565b8381036101c08501526138c7916144b3565b8281036101e08401526105c8916144b3565b346102fc5760603660031901126102fc576004356024356138f861435f565b91613901614cca565b806000526002602052604060002092600884019361392f60ff86546107e060018060a01b03821633146149bd565b8260005260016020526139468460406000206146e5565b50916002830190815461395c60ff821615614a45565b856000526009602052604060002060018060a01b03831660005260205260016040600020549501938454809610613ab157613a4195602094600160059460ff19161790558760005260098552604060002060018060a01b03851660005285526139cb6040600020918254614a84565b905584546000888152600a865260408082206001600160a01b038716835287529020805490916139fa91614a84565b905501613a078154614785565b90559554825460405163a9059cbb60e01b81526001600160a01b039283166004820152602481019190915296169592839081906044820190565b03816000895af1908115610c35577f0d11c7324995ca828941e0ad466be992df3a15ac5a9ae444745353abfd10ad3292602092613a96575b5054604051908152a460016000805160206152a483398151915255005b613aac90833d8511610c2e57610c2181836143e1565b613a79565b60405162461bcd60e51b815260206004820152601860248201527f496e73756666696369656e7420746f6b656e2066756e647300000000000000006044820152606490fd5b346102fc5760603660031901126102fc57600435613b12614349565b90604435613b2560ff6012541615614844565b613b2d614cca565b816000526003602052613b4760ff60406000205416614885565b816000526002602052604060002091600883019360ff855460a01c1660048110156105cc576001613b7891146148d1565b613b876002850154421061491d565b6001600160a01b031660008181526007602052604090205490929060ff1615613fb35781600052600860205260406000208360005260205260ff6040600020541615613f62576040516323b872dd60e01b8152336004820152306024820152604481018290526020816064816000885af18015610c3557613c0f91600091613f435750614979565b8160005260096020526040600020836000526020526040600020613c34828254614c36565b905581600052600a6020526040600020836000526020526040600020613c5b828254614c36565b905560008281526020818152604080832033845290915290208054613c81908390614c36565b9055600082815260146020908152604080832033845290915290205460ff1615613f1a575b600082815260026020908152604080832060070180546001019055828252808320338452825280832054858452600f909252909120548111613eea575b5082604051828152837fef93377c4bc923ec37e393cc4f21198f90f74df5908ced5585c4d4d0ab30a71560203393a460405190815282602082015260006040820152817fc0d2dcefa652289d410a90d1e74f5483b1fe1f34f334a1dd364d282f66e1cbd060603393a360ff845460a81c16613d6c5760016000805160206152a483398151915255005b8060005260016020526005604060002093019081545b8454811015613edf57613d9581866146e5565b509060028201805460ff81161580613eb8575b15613ea55760ff1916600190811790915587549201805460405163a9059cbb60e01b81526001600160a01b03909416600485015260248401529160208160448160008a5af18015610c3557847f0d11c7324995ca828941e0ad466be992df3a15ac5a9ae444745353abfd10ad3260206001968a958795613e8a575b5080548460005260098352613e486040806000206000908a8252865220918254614a84565b9055805484600052600a8352613e6e6040806000206000908a8252865220918254614a84565b9055613e7a8a54614785565b8a5554604051908152a401613d82565b613ea090833d8111610c2e57610c2181836143e1565b613e23565b5050505050505050505b80808080610af0565b50846000526009602052604080600020600090898252602052205460018501541115613da8565b505050505050613eaf565b6000838152600f6020908152604080832093909355600e90522080546001600160a01b0319163317905585613ce3565b60008281526014602090815260408083203384529091529020805460ff19166001179055613ca6565b613f5c915060203d602011610c2e57610c2181836143e1565b87611975565b60405162461bcd60e51b815260206004820152602360248201527f546f6b656e206e6f7420616363657074656420627920746869732063616d706160448201526234b3b760e91b6064820152608490fd5b60405162461bcd60e51b8152602060048201526013602482015272151bdad95b881b9bdd081cdd5c1c1bdc9d1959606a1b6044820152606490fd5b346102fc5760003660031901126102fc576020600d54604051908152f35b346102fc5760003660031901126102fc576000600d549060058202828104600514831517156141275761403e906147aa565b91815b81811061409c575050614053816147aa565b9160005b82811061407457604051602080825281906105c89082018761430c565b6001906001600160a01b036140898285614830565b51166140958287614830565b5201614057565b918260009492945260026020526140b960096040600020016147dc565b60005b8151811015614118576001600160a01b036140d78284614830565b511680600052600760205260ff604060002054166140f9575b506001016140bc565b836141119161410b6001949688614830565b52614785565b92906140f0565b50509160019093919301614041565b634e487b7160e01b82526011600452602482fd5b346102fc5760203660031901126102fc5760043563ffffffff60e01b81168091036102fc57602090637965db0b60e01b8114908115614180575b506040519015158152f35b6301ffc9a760e01b14905082614175565b346102fc5760203660031901126102fc57600435600081815260116020908152604080832033845290915290205460ff166142d75760008181526011602090815260408083203384528252808320805460ff191660011790558383526010909152902080546141ff90614785565b9055806000526010602052604060002054604051908152817f3ae2f909ac3bbb7fc64fce737db652fb059ebb23580805f68fa003466fd004cd60203393a380600052601060205260646040600020541015806142ac575b61425c57005b600081815260026020908152604091829020600801805460ff60a01b1916600360a01b17905590519182527f828635a891091ed676512ab0ab2e966391437a035beb146b02cb74cb841d128b91a1005b5080600052600260205260ff60086040600020015460a01c1660048110156105cc5760031415614256565b60405162461bcd60e51b815260206004820152600d60248201526c105b1c9958591e481d9bdd1959609a1b6044820152606490fd5b906020808351928381520192019060005b81811061432a5750505090565b82516001600160a01b031684526020938401939092019160010161431d565b602435906001600160a01b03821682036102fc57565b604435906001600160a01b03821682036102fc57565b600435906001600160a01b03821682036102fc57565b90600182811c921680156143bb575b60208310146143a557565b634e487b7160e01b600052602260045260246000fd5b91607f169161439a565b61022081019081106001600160401b03821117612dd557604052565b90601f801991011681019081106001600160401b03821117612dd557604052565b90604051918260008254926144168461438b565b8084529360018116908115614484575060011461443d575b5061443b925003836143e1565b565b90506000929192526020600020906000915b81831061446857505090602061443b928201013861442e565b602091935080600191548385890101520191019091849261444f565b90506020925061443b94915060ff191682840152151560051b8201013861442e565b9060048210156105cc5752565b919082519283825260005b8481106144df575050826000602080949584010152601f8019910116010190565b806020809284010151828286010152016144be565b805482101561450c5760005260206000200190600090565b634e487b7160e01b600052603260045260246000fd5b60409060031901126102fc576004359060243590565b919091610220830192815181526020820151602082015260408201516040820152606082015160608201526080820151608082015260a082015160a082015260c082015160c082015260e082015160e082015260018060a01b03610100830151166101008201526145b36101208301516101208301906144a6565b61014082015115156101408201526101608201519361022061016083015284518091526020610240830195019060005b8181106146665750505061020061465161463d61462961461561466397986101808801518782036101808901526144b3565b6101a08701518682036101a08801526144b3565b6101c08601518582036101c08701526144b3565b6101e08501518482036101e08601526144b3565b920151906102008184039101526144b3565b90565b82516001600160a01b03168752602096870196909201916001016145e3565b602081016020825282518091526040820191602060408360051b8301019401926000915b8383106146b857505050505090565b90919293946020806146d6600193603f198682030187528951614538565b970193019301919392906146a9565b805482101561450c576000526003602060002091020190600090565b6001600160401b038111612dd557601f01601f191660200190565b92919261472882614701565b9161473660405193846143e1565b8294818452818301116102fc578281602093846000960137010152565b9080601f830112156102fc578160206146639335910161471c565b6001600160401b038111612dd55760051b60200190565b60001981146147945760010190565b634e487b7160e01b600052601160045260246000fd5b906147b48261476e565b6147c160405191826143e1565b82815280926147d2601f199161476e565b0190602036910137565b906040519182815491828252602082019060005260206000209260005b81811061480e57505061443b925003836143e1565b84546001600160a01b03168352600194850194879450602090930192016147f9565b805182101561450c5760209160051b010190565b1561484b57565b60405162461bcd60e51b815260206004820152601260248201527110dbdb9d1c9858dd081a5cc81c185d5cd95960721b6044820152606490fd5b1561488c57565b60405162461bcd60e51b815260206004820152601860248201527f43616d706169676e20646f6573206e6f742065786973742e00000000000000006044820152606490fd5b156148d857565b60405162461bcd60e51b815260206004820152601760248201527f43616d706169676e206973206e6f74206163746976652e0000000000000000006044820152606490fd5b1561492457565b60405162461bcd60e51b815260206004820152601560248201527421b0b6b830b4b3b7103430b99032bc3834b932b21760591b6044820152606490fd5b908160209103126102fc575180151581036102fc5790565b1561498057565b60405162461bcd60e51b8152602060048201526015602482015274151bdad95b881d1c985b9cd9995c8819985a5b1959605a1b6044820152606490fd5b156149c457565b60405162461bcd60e51b81526020600482015260146024820152734f6e6c79206f776e65722063616e20636c61696d60601b6044820152606490fd5b15614a0757565b60405162461bcd60e51b81526020600482015260166024820152752737ba1030b71032b9b1b937bb9031b0b6b830b4b3b760511b6044820152606490fd5b15614a4c57565b60405162461bcd60e51b815260206004820152601060248201526f105b1c9958591e481c995b19585cd95960821b6044820152606490fd5b9190820391821161479457565b60005260008051602061528483398151915260205260016040600020015490565b15614ab957565b60405162461bcd60e51b815260206004820152600d60248201526c496e76616c69642072616e676560981b6044820152606490fd5b60405190614afb826143c5565b60606102008360008152600060208201526000604082015260008382015260006080820152600060a0820152600060c0820152600060e08201526000610100820152600061012082015260006101408201528261016082015282610180820152826101a0820152826101c0820152826101e08201520152565b90614b7e8261476e565b614b8b60405191826143e1565b8281528092614b9c601f199161476e565b019060005b828110614bad57505050565b602090614bb8614aee565b82828501015201614ba1565b15614bcb57565b60405162461bcd60e51b81526020600482015260136024820152724e6f20726566756e6420617661696c61626c6560681b6044820152606490fd5b3d15614c31573d90614c1782614701565b91614c2560405193846143e1565b82523d6000602084013e565b606090565b9190820180921161479457565b15614c4a57565b60405162461bcd60e51b815260206004820152601760248201527f4d696c6573746f6e65207061796f7574206661696c65640000000000000000006044820152606490fd5b15614c9657565b60405162461bcd60e51b815260206004820152600c60248201526b4d697373696e6720726f6c6560a01b6044820152606490fd5b60026000805160206152a48339815191525414614cf55760026000805160206152a483398151915255565b633ee5aeb560e01b60005260046000fd5b614d0e615082565b6001600160a01b0381166000908152600080516020615224833981519152602052604090205460ff1615614d3f5750565b63e2517d3f60e01b60009081526001600160a01b03919091166004527fa49807205ce4d355092ef5a8a18f56e8913cf4a201fbe287825b095693c21775602452604490fd5b614d8c615082565b81600052600080516020615284833981519152602052604060002060018060a01b03821660005260205260ff6040600020541615614dc8575050565b63e2517d3f60e01b60005260018060a01b031660045260245260446000fd5b6001600160a01b03811660009081527fb7db2dd08fcb62d0c9e08c51941cae53c267786a0b75803fb7960902fc8ef97d602052604090205460ff16614e95576001600160a01b0381811660009081527fb7db2dd08fcb62d0c9e08c51941cae53c267786a0b75803fb7960902fc8ef97d60205260409020805460ff19166001179055614e71615082565b16906001600160a01b031660006000805160206151e48339815191528180a4600190565b50600090565b6001600160a01b0381166000908152600080516020615224833981519152602052604090205460ff16614e95576001600160a01b03818116600090815260008051602061522483398151915260205260409020805460ff19166001179055614f01615082565b16906001600160a01b03167fa49807205ce4d355092ef5a8a18f56e8913cf4a201fbe287825b095693c217756000805160206151e4833981519152600080a4600190565b6001600160a01b0381166000908152600080516020615264833981519152602052604090205460ff16614e95576001600160a01b03818116600090815260008051602061526483398151915260205260409020805460ff19166001179055614fab615082565b16906001600160a01b03166000805160206152048339815191526000805160206151e4833981519152600080a4600190565b6000818152600080516020615284833981519152602090815260408083206001600160a01b038616845290915290205460ff1661507b576000818152600080516020615284833981519152602090815260408083206001600160a01b0386811685529252909120805460ff19166001179055615057615082565b16916001600160a01b0316906000805160206151e4833981519152600080a4600190565b5050600090565b604754336001600160a01b03909116036150a25736601319013560601c90565b3390565b6000818152600080516020615284833981519152602090815260408083206001600160a01b038616845290915290205460ff161561507b576000818152600080516020615284833981519152602090815260408083206001600160a01b0386811685529252909120805460ff1916905561511e615082565b16916001600160a01b0316907ff6391f5c32d9c69d2a47ea670b442974b53935d1edc7fd64eb21e047a839171b600080a4600190565b60ff6000805160206152c48339815191525460401c161561517157565b631afcd79f60e31b60005260046000fd5b906151a8575080511561519757805190602001fd5b63d6bda27560e01b60005260046000fd5b815115806151da575b6151b9575090565b639996b31560e01b60009081526001600160a01b0391909116600452602490fd5b50803b156151b156fe2f8788117e7eff1d82e926ec794901d17c78024a50270940304540a733656f0d3b5d4cc60d3ec3516ee8ae083bd60934f6eb2a6c54b1229985c41bfb092b2603b16e88c42fd4e48df2dd6a2eabd6bc9aec654ec170056b470819f8892cc6431c360894a13ba1a3210667c828492db98dca3e2076cc3735a920a3ca505d382bbc349fd74217c063f9853c0afe6767003c31cb4e1a178d2a1f85ea570a54b8a4e902dd7bc7dec4dceedda775e58dd541e08a116c6c53815c0bd028192f7b6268009b779b17422d0df92223018b32b4d1fa46e071723d6817e2486d003becc55f00f0c57e16840df040f15088dc2f81fe391c3923bec73e23a9662efc9c229c6a00a26469706673582212200f7a23b841324ebe8bee40e56404f74e4f412ca773ae6dfaa932a0571a4daf4464736f6c634300081c0033",
  "linkReferences": {},
  "deployedLinkReferences": {}
}