{
  "contracts/CivilShare.sol": {
    "CivilShare": {
      "abi": [
        {
          "inputs": [],
          "name": "AccessControlBadConfirmation",
          "type": "error"
        },
        {
          "inputs": [
            {
              "internalType": "address",
              "name": "account",
              "type": "address"
            },
            {
              "internalType": "bytes32",
              "name": "neededRole",
              "type": "bytes32"
            }
          ],
          "name": "AccessControlUnauthorizedAccount",
          "type": "error"
        },
        {
          "inputs": [
            {
              "internalType": "address",
              "name": "target",
              "type": "address"
            }
          ],
          "name": "AddressEmptyCode",
          "type": "error"
        },
        {
          "inputs": [
            {
              "internalType": "address",
              "name": "implementation",
              "type": "address"
            }
          ],
          "name": "ERC1967InvalidImplementation",
          "type": "error"
        },
        {
          "inputs": [],
          "name": "ERC1967NonPayable",
          "type": "error"
        },
        {
          "inputs": [],
          "name": "FailedCall",
          "type": "error"
        },
        {
          "inputs": [],
          "name": "InvalidInitialization",
          "type": "error"
        },
        {
          "inputs": [],
          "name": "NotInitializing",
          "type": "error"
        },
        {
          "inputs": [],
          "name": "ReentrancyGuardReentrantCall",
          "type": "error"
        },
        {
          "inputs": [],
          "name": "UUPSUnauthorizedCallContext",
          "type": "error"
        },
        {
          "inputs": [
            {
              "internalType": "bytes32",
              "name": "slot",
              "type": "bytes32"
            }
          ],
          "name": "UUPSUnsupportedProxiableUUID",
          "type": "error"
        },
        {
          "anonymous": false,
          "inputs": [
            {
              "indexed": true,
              "internalType": "uint256",
              "name": "id",
              "type": "uint256"
            }
          ],
          "name": "CampaignCompleted",
          "type": "event"
        },
        {
          "anonymous": false,
          "inputs": [
            {
              "indexed": false,
              "internalType": "uint256",
              "name": "id",
              "type": "uint256"
            },
            {
              "indexed": true,
              "internalType": "address",
              "name": "owner",
              "type": "address"
            }
          ],
          "name": "CampaignCreated",
          "type": "event"
        },
        {
          "anonymous": false,
          "inputs": [
            {
              "indexed": false,
              "internalType": "uint256",
              "name": "id",
              "type": "uint256"
            }
          ],
          "name": "CampaignDeactivated",
          "type": "event"
        },
        {
          "anonymous": false,
          "inputs": [
            {
              "indexed": false,
              "internalType": "uint256",
              "name": "id",
              "type": "uint256"
            },
            {
              "indexed": false,
              "internalType": "address",
              "name": "donor",
              "type": "address"
            },
            {
              "indexed": false,
              "internalType": "uint256",
              "name": "amount",
              "type": "uint256"
            }
          ],
          "name": "CampaignDeactivatedWithRefund",
          "type": "event"
        },
        {
          "anonymous": false,
          "inputs": [
            {
              "indexed": true,
              "internalType": "uint256",
              "name": "campaignId",
              "type": "uint256"
            },
            {
              "indexed": false,
              "internalType": "uint256",
              "name": "amount",
              "type": "uint256"
            }
          ],
          "name": "CampaignETHWithdrawn",
          "type": "event"
        },
        {
          "anonymous": false,
          "inputs": [
            {
              "indexed": true,
              "internalType": "uint256",
              "name": "id",
              "type": "uint256"
            },
            {
              "indexed": true,
              "internalType": "address",
              "name": "donor",
              "type": "address"
            },
            {
              "indexed": true,
              "internalType": "address",
              "name": "token",
              "type": "address"
            },
            {
              "indexed": false,
              "internalType": "uint256",
              "name": "amount",
              "type": "uint256"
            }
          ],
          "name": "CampaignTokenDonation",
          "type": "event"
        },
        {
          "anonymous": false,
          "inputs": [
            {
              "indexed": true,
              "internalType": "uint256",
              "name": "campaignId",
              "type": "uint256"
            },
            {
              "indexed": true,
              "internalType": "address",
              "name": "token",
              "type": "address"
            },
            {
              "indexed": false,
              "internalType": "uint256",
              "name": "amount",
              "type": "uint256"
            }
          ],
          "name": "CampaignTokenWithdrawn",
          "type": "event"
        },
        {
          "anonymous": false,
          "inputs": [
            {
              "indexed": true,
              "internalType": "uint256",
              "name": "id",
              "type": "uint256"
            },
            {
              "indexed": true,
              "internalType": "address",
              "name": "voter",
              "type": "address"
            },
            {
              "indexed": false,
              "internalType": "uint256",
              "name": "newTotal",
              "type": "uint256"
            }
          ],
          "name": "CampaignUpvoted",
          "type": "event"
        },
        {
          "anonymous": false,
          "inputs": [
            {
              "indexed": false,
              "internalType": "uint256",
              "name": "id",
              "type": "uint256"
            }
          ],
          "name": "CampaignVerified",
          "type": "event"
        },
        {
          "anonymous": false,
          "inputs": [
            {
              "indexed": false,
              "internalType": "uint256",
              "name": "id",
              "type": "uint256"
            },
            {
              "indexed": false,
              "internalType": "uint256",
              "name": "amount",
              "type": "uint256"
            }
          ],
          "name": "CampaignWithdrawn",
          "type": "event"
        },
        {
          "anonymous": false,
          "inputs": [
            {
              "indexed": true,
              "internalType": "uint256",
              "name": "campaignId",
              "type": "uint256"
            },
            {
              "indexed": true,
              "internalType": "address",
              "name": "donor",
              "type": "address"
            },
            {
              "indexed": false,
              "internalType": "uint256",
              "name": "amount",
              "type": "uint256"
            },
            {
              "indexed": false,
              "internalType": "address",
              "name": "token",
              "type": "address"
            },
            {
              "indexed": false,
              "internalType": "bool",
              "name": "isEth",
              "type": "bool"
            }
          ],
          "name": "Donated",
          "type": "event"
        },
        {
          "anonymous": false,
          "inputs": [
            {
              "indexed": true,
              "internalType": "uint256",
              "name": "id",
              "type": "uint256"
            },
            {
              "indexed": true,
              "internalType": "address",
              "name": "donor",
              "type": "address"
            },
            {
              "indexed": false,
              "internalType": "uint256",
              "name": "amount",
              "type": "uint256"
            }
          ],
          "name": "ETHDonationReceived",
          "type": "event"
        },
        {
          "anonymous": false,
          "inputs": [
            {
              "indexed": true,
              "internalType": "uint256",
              "name": "campaignId",
              "type": "uint256"
            },
            {
              "indexed": true,
              "internalType": "address",
              "name": "user",
              "type": "address"
            },
            {
              "indexed": false,
              "internalType": "uint256",
              "name": "amount",
              "type": "uint256"
            }
          ],
          "name": "ETHRefundClaimed",
          "type": "event"
        },
        {
          "anonymous": false,
          "inputs": [
            {
              "indexed": false,
              "internalType": "uint64",
              "name": "version",
              "type": "uint64"
            }
          ],
          "name": "Initialized",
          "type": "event"
        },
        {
          "anonymous": false,
          "inputs": [
            {
              "indexed": true,
              "internalType": "uint256",
              "name": "campaignId",
              "type": "uint256"
            },
            {
              "indexed": true,
              "internalType": "uint256",
              "name": "milestoneIndex",
              "type": "uint256"
            },
            {
              "indexed": false,
              "internalType": "uint256",
              "name": "amount",
              "type": "uint256"
            }
          ],
          "name": "MilestoneETHReleased",
          "type": "event"
        },
        {
          "anonymous": false,
          "inputs": [
            {
              "indexed": false,
              "internalType": "uint256",
              "name": "campaignId",
              "type": "uint256"
            },
            {
              "indexed": false,
              "internalType": "uint256",
              "name": "milestoneIndex",
              "type": "uint256"
            },
            {
              "indexed": false,
              "internalType": "uint256",
              "name": "amount",
              "type": "uint256"
            }
          ],
          "name": "MilestoneReleased",
          "type": "event"
        },
        {
          "anonymous": false,
          "inputs": [
            {
              "indexed": true,
              "internalType": "uint256",
              "name": "campaignId",
              "type": "uint256"
            },
            {
              "indexed": true,
              "internalType": "uint256",
              "name": "milestoneIndex",
              "type": "uint256"
            },
            {
              "indexed": true,
              "internalType": "address",
              "name": "token",
              "type": "address"
            },
            {
              "indexed": false,
              "internalType": "uint256",
              "name": "amount",
              "type": "uint256"
            }
          ],
          "name": "MilestoneTokenReleased",
          "type": "event"
        },
        {
          "anonymous": false,
          "inputs": [
            {
              "indexed": false,
              "internalType": "bool",
              "name": "isPaused",
              "type": "bool"
            }
          ],
          "name": "PausedToggled",
          "type": "event"
        },
        {
          "anonymous": false,
          "inputs": [
            {
              "indexed": true,
              "internalType": "uint256",
              "name": "id",
              "type": "uint256"
            },
            {
              "indexed": true,
              "internalType": "address",
              "name": "user",
              "type": "address"
            },
            {
              "indexed": false,
              "internalType": "uint256",
              "name": "amount",
              "type": "uint256"
            }
          ],
          "name": "RefundClaimed",
          "type": "event"
        },
        {
          "anonymous": false,
          "inputs": [
            {
              "indexed": true,
              "internalType": "bytes32",
              "name": "role",
              "type": "bytes32"
            },
            {
              "indexed": true,
              "internalType": "bytes32",
              "name": "previousAdminRole",
              "type": "bytes32"
            },
            {
              "indexed": true,
              "internalType": "bytes32",
              "name": "newAdminRole",
              "type": "bytes32"
            }
          ],
          "name": "RoleAdminChanged",
          "type": "event"
        },
        {
          "anonymous": false,
          "inputs": [
            {
              "indexed": true,
              "internalType": "bytes32",
              "name": "role",
              "type": "bytes32"
            },
            {
              "indexed": true,
              "internalType": "address",
              "name": "account",
              "type": "address"
            },
            {
              "indexed": true,
              "internalType": "address",
              "name": "sender",
              "type": "address"
            }
          ],
          "name": "RoleGranted",
          "type": "event"
        },
        {
          "anonymous": false,
          "inputs": [
            {
              "indexed": true,
              "internalType": "bytes32",
              "name": "role",
              "type": "bytes32"
            },
            {
              "indexed": true,
              "internalType": "address",
              "name": "account",
              "type": "address"
            },
            {
              "indexed": true,
              "internalType": "address",
              "name": "sender",
              "type": "address"
            }
          ],
          "name": "RoleRevoked",
          "type": "event"
        },
        {
          "anonymous": false,
          "inputs": [
            {
              "indexed": true,
              "internalType": "address",
              "name": "token",
              "type": "address"
            },
            {
              "indexed": false,
              "internalType": "bool",
              "name": "isAllowed",
              "type": "bool"
            }
          ],
          "name": "TokenAllowlistUpdated",
          "type": "event"
        },
        {
          "anonymous": false,
          "inputs": [
            {
              "indexed": true,
              "internalType": "uint256",
              "name": "campaignId",
              "type": "uint256"
            },
            {
              "indexed": true,
              "internalType": "address",
              "name": "user",
              "type": "address"
            },
            {
              "indexed": true,
              "internalType": "address",
              "name": "token",
              "type": "address"
            },
            {
              "indexed": false,
              "internalType": "uint256",
              "name": "amount",
              "type": "uint256"
            }
          ],
          "name": "TokenRefundClaimed",
          "type": "event"
        },
        {
          "anonymous": false,
          "inputs": [
            {
              "indexed": true,
              "internalType": "address",
              "name": "donor",
              "type": "address"
            },
            {
              "indexed": true,
              "internalType": "address",
              "name": "token",
              "type": "address"
            },
            {
              "indexed": false,
              "internalType": "uint256",
              "name": "amount",
              "type": "uint256"
            }
          ],
          "name": "TreasuryTokenDonation",
          "type": "event"
        },
        {
          "anonymous": false,
          "inputs": [
            {
              "indexed": false,
              "internalType": "address",
              "name": "to",
              "type": "address"
            },
            {
              "indexed": false,
              "internalType": "uint256",
              "name": "amount",
              "type": "uint256"
            }
          ],
          "name": "TreasuryWithdrawn",
          "type": "event"
        },
        {
          "anonymous": false,
          "inputs": [
            {
              "indexed": true,
              "internalType": "address",
              "name": "forwarder",
              "type": "address"
            }
          ],
          "name": "TrustedForwarderUpdated",
          "type": "event"
        },
        {
          "anonymous": false,
          "inputs": [
            {
              "indexed": true,
              "internalType": "address",
              "name": "implementation",
              "type": "address"
            }
          ],
          "name": "Upgraded",
          "type": "event"
        },
        {
          "stateMutability": "payable",
          "type": "fallback"
        },
        {
          "inputs": [],
          "name": "ADMIN_ROLE",
          "outputs": [
            {
              "internalType": "bytes32",
              "name": "",
              "type": "bytes32"
            }
          ],
          "stateMutability": "view",
          "type": "function"
        },
        {
          "inputs": [],
          "name": "CAMPAIGN_CREATION_COOLDOWN",
          "outputs": [
            {
              "internalType": "uint256",
              "name": "",
              "type": "uint256"
            }
          ],
          "stateMutability": "view",
          "type": "function"
        },
        {
          "inputs": [],
          "name": "DAO_ROLE",
          "outputs": [
            {
              "internalType": "bytes32",
              "name": "",
              "type": "bytes32"
            }
          ],
          "stateMutability": "view",
          "type": "function"
        },
        {
          "inputs": [],
          "name": "DEFAULT_ADMIN_ROLE",
          "outputs": [
            {
              "internalType": "bytes32",
              "name": "",
              "type": "bytes32"
            }
          ],
          "stateMutability": "view",
          "type": "function"
        },
        {
          "inputs": [],
          "name": "UPGRADE_INTERFACE_VERSION",
          "outputs": [
            {
              "internalType": "string",
              "name": "",
              "type": "string"
            }
          ],
          "stateMutability": "view",
          "type": "function"
        },
        {
          "inputs": [],
          "name": "UPVOTE_THRESHOLD",
          "outputs": [
            {
              "internalType": "uint256",
              "name": "",
              "type": "uint256"
            }
          ],
          "stateMutability": "view",
          "type": "function"
        },
        {
          "inputs": [
            {
              "internalType": "address",
              "name": "",
              "type": "address"
            }
          ],
          "name": "allowedTokens",
          "outputs": [
            {
              "internalType": "bool",
              "name": "",
              "type": "bool"
            }
          ],
          "stateMutability": "view",
          "type": "function"
        },
        {
          "inputs": [
            {
              "internalType": "uint256",
              "name": "",
              "type": "uint256"
            },
            {
              "internalType": "address",
              "name": "",
              "type": "address"
            }
          ],
          "name": "campaignAllowedTokens",
          "outputs": [
            {
              "internalType": "bool",
              "name": "",
              "type": "bool"
            }
          ],
          "stateMutability": "view",
          "type": "function"
        },
        {
          "inputs": [
            {
              "internalType": "uint256",
              "name": "",
              "type": "uint256"
            },
            {
              "internalType": "address",
              "name": "",
              "type": "address"
            }
          ],
          "name": "campaignDonations",
          "outputs": [
            {
              "internalType": "uint256",
              "name": "",
              "type": "uint256"
            }
          ],
          "stateMutability": "view",
          "type": "function"
        },
        {
          "inputs": [
            {
              "internalType": "uint256",
              "name": "",
              "type": "uint256"
            }
          ],
          "name": "campaignExists",
          "outputs": [
            {
              "internalType": "bool",
              "name": "",
              "type": "bool"
            }
          ],
          "stateMutability": "view",
          "type": "function"
        },
        {
          "inputs": [
            {
              "internalType": "uint256",
              "name": "",
              "type": "uint256"
            },
            {
              "internalType": "uint256",
              "name": "",
              "type": "uint256"
            }
          ],
          "name": "campaignMilestones",
          "outputs": [
            {
              "internalType": "string",
              "name": "name",
              "type": "string"
            },
            {
              "internalType": "uint256",
              "name": "amount",
              "type": "uint256"
            },
            {
              "internalType": "bool",
              "name": "isReleased",
              "type": "bool"
            }
          ],
          "stateMutability": "view",
          "type": "function"
        },
        {
          "inputs": [
            {
              "internalType": "uint256",
              "name": "",
              "type": "uint256"
            }
          ],
          "name": "campaigns",
          "outputs": [
            {
              "internalType": "uint256",
              "name": "id",
              "type": "uint256"
            },
            {
              "internalType": "uint256",
              "name": "target",
              "type": "uint256"
            },
            {
              "internalType": "uint256",
              "name": "deadline",
              "type": "uint256"
            },
            {
              "internalType": "uint256",
              "name": "amountCollected",
              "type": "uint256"
            },
            {
              "internalType": "uint256",
              "name": "createdAt",
              "type": "uint256"
            },
            {
              "internalType": "uint256",
              "name": "nextMilestoneIndex",
              "type": "uint256"
            },
            {
              "internalType": "uint256",
              "name": "ethEscrowed",
              "type": "uint256"
            },
            {
              "internalType": "uint256",
              "name": "donationCount",
              "type": "uint256"
            },
            {
              "internalType": "address",
              "name": "owner",
              "type": "address"
            },
            {
              "internalType": "enum CivilShare.CampaignStatus",
              "name": "status",
              "type": "uint8"
            },
            {
              "internalType": "bool",
              "name": "isEscrow",
              "type": "bool"
            },
            {
              "internalType": "string",
              "name": "title",
              "type": "string"
            },
            {
              "internalType": "string",
              "name": "description",
              "type": "string"
            },
            {
              "internalType": "string",
              "name": "image",
              "type": "string"
            },
            {
              "internalType": "string",
              "name": "category",
              "type": "string"
            },
            {
              "internalType": "string",
              "name": "metadataURI",
              "type": "string"
            }
          ],
          "stateMutability": "view",
          "type": "function"
        },
        {
          "inputs": [
            {
              "internalType": "uint256",
              "name": "campaignId",
              "type": "uint256"
            },
            {
              "internalType": "uint256",
              "name": "milestoneIndex",
              "type": "uint256"
            }
          ],
          "name": "claimMilestone",
          "outputs": [],
          "stateMutability": "nonpayable",
          "type": "function"
        },
        {
          "inputs": [
            {
              "internalType": "uint256",
              "name": "campaignId",
              "type": "uint256"
            },
            {
              "internalType": "uint256",
              "name": "milestoneIndex",
              "type": "uint256"
            },
            {
              "internalType": "address",
              "name": "token",
              "type": "address"
            }
          ],
          "name": "claimMilestoneToken",
          "outputs": [],
          "stateMutability": "nonpayable",
          "type": "function"
        },
        {
          "inputs": [
            {
              "internalType": "uint256",
              "name": "_id",
              "type": "uint256"
            }
          ],
          "name": "claimRefund",
          "outputs": [],
          "stateMutability": "nonpayable",
          "type": "function"
        },
        {
          "inputs": [
            {
              "internalType": "uint256",
              "name": "_id",
              "type": "uint256"
            },
            {
              "internalType": "address",
              "name": "token",
              "type": "address"
            }
          ],
          "name": "claimTokenRefund",
          "outputs": [],
          "stateMutability": "nonpayable",
          "type": "function"
        },
        {
          "inputs": [
            {
              "internalType": "address",
              "name": "_owner",
              "type": "address"
            },
            {
              "internalType": "string",
              "name": "_title",
              "type": "string"
            },
            {
              "internalType": "string",
              "name": "_description",
              "type": "string"
            },
            {
              "internalType": "uint256",
              "name": "_target",
              "type": "uint256"
            },
            {
              "internalType": "uint256",
              "name": "_deadline",
              "type": "uint256"
            },
            {
              "internalType": "string",
              "name": "_image",
              "type": "string"
            },
            {
              "internalType": "string",
              "name": "_category",
              "type": "string"
            },
            {
              "internalType": "string",
              "name": "_metadataURI",
              "type": "string"
            },
            {
              "internalType": "bool",
              "name": "_isEscrow",
              "type": "bool"
            },
            {
              "internalType": "address[]",
              "name": "_acceptedTokens",
              "type": "address[]"
            }
          ],
          "name": "createCampaign",
          "outputs": [
            {
              "internalType": "uint256",
              "name": "",
              "type": "uint256"
            }
          ],
          "stateMutability": "nonpayable",
          "type": "function"
        },
        {
          "inputs": [
            {
              "internalType": "uint256",
              "name": "_id",
              "type": "uint256"
            }
          ],
          "name": "deactivateCampaign",
          "outputs": [],
          "stateMutability": "nonpayable",
          "type": "function"
        },
        {
          "inputs": [
            {
              "internalType": "address",
              "name": "token",
              "type": "address"
            },
            {
              "internalType": "uint256",
              "name": "amount",
              "type": "uint256"
            }
          ],
          "name": "donateTokenToTreasury",
          "outputs": [],
          "stateMutability": "nonpayable",
          "type": "function"
        },
        {
          "inputs": [
            {
              "internalType": "uint256",
              "name": "_id",
              "type": "uint256"
            }
          ],
          "name": "donateWithEth",
          "outputs": [],
          "stateMutability": "payable",
          "type": "function"
        },
        {
          "inputs": [
            {
              "internalType": "uint256",
              "name": "_id",
              "type": "uint256"
            },
            {
              "internalType": "address",
              "name": "tokenAddress",
              "type": "address"
            },
            {
              "internalType": "uint256",
              "name": "amount",
              "type": "uint256"
            }
          ],
          "name": "donateWithToken",
          "outputs": [],
          "stateMutability": "nonpayable",
          "type": "function"
        },
        {
          "inputs": [
            {
              "internalType": "uint256",
              "name": "",
              "type": "uint256"
            },
            {
              "internalType": "address",
              "name": "",
              "type": "address"
            }
          ],
          "name": "ethRefunds",
          "outputs": [
            {
              "internalType": "uint256",
              "name": "",
              "type": "uint256"
            }
          ],
          "stateMutability": "view",
          "type": "function"
        },
        {
          "inputs": [
            {
              "internalType": "uint256",
              "name": "start",
              "type": "uint256"
            },
            {
              "internalType": "uint256",
              "name": "end",
              "type": "uint256"
            }
          ],
          "name": "getActiveCampaigns",
          "outputs": [
            {
              "components": [
                {
                  "internalType": "uint256",
                  "name": "id",
                  "type": "uint256"
                },
                {
                  "internalType": "uint256",
                  "name": "target",
                  "type": "uint256"
                },
                {
                  "internalType": "uint256",
                  "name": "deadline",
                  "type": "uint256"
                },
                {
                  "internalType": "uint256",
                  "name": "amountCollected",
                  "type": "uint256"
                },
                {
                  "internalType": "uint256",
                  "name": "createdAt",
                  "type": "uint256"
                },
                {
                  "internalType": "uint256",
                  "name": "nextMilestoneIndex",
                  "type": "uint256"
                },
                {
                  "internalType": "uint256",
                  "name": "ethEscrowed",
                  "type": "uint256"
                },
                {
                  "internalType": "uint256",
                  "name": "donationCount",
                  "type": "uint256"
                },
                {
                  "internalType": "address",
                  "name": "owner",
                  "type": "address"
                },
                {
                  "internalType": "enum CivilShare.CampaignStatus",
                  "name": "status",
                  "type": "uint8"
                },
                {
                  "internalType": "bool",
                  "name": "isEscrow",
                  "type": "bool"
                },
                {
                  "internalType": "address[]",
                  "name": "acceptedTokens",
                  "type": "address[]"
                },
                {
                  "internalType": "string",
                  "name": "title",
                  "type": "string"
                },
                {
                  "internalType": "string",
                  "name": "description",
                  "type": "string"
                },
                {
                  "internalType": "string",
                  "name": "image",
                  "type": "string"
                },
                {
                  "internalType": "string",
                  "name": "category",
                  "type": "string"
                },
                {
                  "internalType": "string",
                  "name": "metadataURI",
                  "type": "string"
                }
              ],
              "internalType": "struct CivilShare.Campaign[]",
              "name": "",
              "type": "tuple[]"
            }
          ],
          "stateMutability": "view",
          "type": "function"
        },
        {
          "inputs": [],
          "name": "getAllowedTokens",
          "outputs": [
            {
              "internalType": "address[]",
              "name": "",
              "type": "address[]"
            }
          ],
          "stateMutability": "view",
          "type": "function"
        },
        {
          "inputs": [
            {
              "internalType": "uint256",
              "name": "_id",
              "type": "uint256"
            }
          ],
          "name": "getCampaignById",
          "outputs": [
            {
              "components": [
                {
                  "internalType": "uint256",
                  "name": "id",
                  "type": "uint256"
                },
                {
                  "internalType": "uint256",
                  "name": "target",
                  "type": "uint256"
                },
                {
                  "internalType": "uint256",
                  "name": "deadline",
                  "type": "uint256"
                },
                {
                  "internalType": "uint256",
                  "name": "amountCollected",
                  "type": "uint256"
                },
                {
                  "internalType": "uint256",
                  "name": "createdAt",
                  "type": "uint256"
                },
                {
                  "internalType": "uint256",
                  "name": "nextMilestoneIndex",
                  "type": "uint256"
                },
                {
                  "internalType": "uint256",
                  "name": "ethEscrowed",
                  "type": "uint256"
                },
                {
                  "internalType": "uint256",
                  "name": "donationCount",
                  "type": "uint256"
                },
                {
                  "internalType": "address",
                  "name": "owner",
                  "type": "address"
                },
                {
                  "internalType": "enum CivilShare.CampaignStatus",
                  "name": "status",
                  "type": "uint8"
                },
                {
                  "internalType": "bool",
                  "name": "isEscrow",
                  "type": "bool"
                },
                {
                  "internalType": "address[]",
                  "name": "acceptedTokens",
                  "type": "address[]"
                },
                {
                  "internalType": "string",
                  "name": "title",
                  "type": "string"
                },
                {
                  "internalType": "string",
                  "name": "description",
                  "type": "string"
                },
                {
                  "internalType": "string",
                  "name": "image",
                  "type": "string"
                },
                {
                  "internalType": "string",
                  "name": "category",
                  "type": "string"
                },
                {
                  "internalType": "string",
                  "name": "metadataURI",
                  "type": "string"
                }
              ],
              "internalType": "struct CivilShare.Campaign",
              "name": "",
              "type": "tuple"
            }
          ],
          "stateMutability": "view",
          "type": "function"
        },
        {
          "inputs": [
            {
              "internalType": "uint256",
              "name": "start",
              "type": "uint256"
            },
            {
              "internalType": "uint256",
              "name": "end",
              "type": "uint256"
            }
          ],
          "name": "getCampaignRange",
          "outputs": [
            {
              "components": [
                {
                  "internalType": "uint256",
                  "name": "id",
                  "type": "uint256"
                },
                {
                  "internalType": "uint256",
                  "name": "target",
                  "type": "uint256"
                },
                {
                  "internalType": "uint256",
                  "name": "deadline",
                  "type": "uint256"
                },
                {
                  "internalType": "uint256",
                  "name": "amountCollected",
                  "type": "uint256"
                },
                {
                  "internalType": "uint256",
                  "name": "createdAt",
                  "type": "uint256"
                },
                {
                  "internalType": "uint256",
                  "name": "nextMilestoneIndex",
                  "type": "uint256"
                },
                {
                  "internalType": "uint256",
                  "name": "ethEscrowed",
                  "type": "uint256"
                },
                {
                  "internalType": "uint256",
                  "name": "donationCount",
                  "type": "uint256"
                },
                {
                  "internalType": "address",
                  "name": "owner",
                  "type": "address"
                },
                {
                  "internalType": "enum CivilShare.CampaignStatus",
                  "name": "status",
                  "type": "uint8"
                },
                {
                  "internalType": "bool",
                  "name": "isEscrow",
                  "type": "bool"
                },
                {
                  "internalType": "address[]",
                  "name": "acceptedTokens",
                  "type": "address[]"
                },
                {
                  "internalType": "string",
                  "name": "title",
                  "type": "string"
                },
                {
                  "internalType": "string",
                  "name": "description",
                  "type": "string"
                },
                {
                  "internalType": "string",
                  "name": "image",
                  "type": "string"
                },
                {
                  "internalType": "string",
                  "name": "category",
                  "type": "string"
                },
                {
                  "internalType": "string",
                  "name": "metadataURI",
                  "type": "string"
                }
              ],
              "internalType": "struct CivilShare.Campaign[]",
              "name": "",
              "type": "tuple[]"
            }
          ],
          "stateMutability": "view",
          "type": "function"
        },
        {
          "inputs": [
            {
              "internalType": "uint256",
              "name": "start",
              "type": "uint256"
            },
            {
              "internalType": "uint256",
              "name": "end",
              "type": "uint256"
            }
          ],
          "name": "getCompletedCampaigns",
          "outputs": [
            {
              "components": [
                {
                  "internalType": "uint256",
                  "name": "id",
                  "type": "uint256"
                },
                {
                  "internalType": "uint256",
                  "name": "target",
                  "type": "uint256"
                },
                {
                  "internalType": "uint256",
                  "name": "deadline",
                  "type": "uint256"
                },
                {
                  "internalType": "uint256",
                  "name": "amountCollected",
                  "type": "uint256"
                },
                {
                  "internalType": "uint256",
                  "name": "createdAt",
                  "type": "uint256"
                },
                {
                  "internalType": "uint256",
                  "name": "nextMilestoneIndex",
                  "type": "uint256"
                },
                {
                  "internalType": "uint256",
                  "name": "ethEscrowed",
                  "type": "uint256"
                },
                {
                  "internalType": "uint256",
                  "name": "donationCount",
                  "type": "uint256"
                },
                {
                  "internalType": "address",
                  "name": "owner",
                  "type": "address"
                },
                {
                  "internalType": "enum CivilShare.CampaignStatus",
                  "name": "status",
                  "type": "uint8"
                },
                {
                  "internalType": "bool",
                  "name": "isEscrow",
                  "type": "bool"
                },
                {
                  "internalType": "address[]",
                  "name": "acceptedTokens",
                  "type": "address[]"
                },
                {
                  "internalType": "string",
                  "name": "title",
                  "type": "string"
                },
                {
                  "internalType": "string",
                  "name": "description",
                  "type": "string"
                },
                {
                  "internalType": "string",
                  "name": "image",
                  "type": "string"
                },
                {
                  "internalType": "string",
                  "name": "category",
                  "type": "string"
                },
                {
                  "internalType": "string",
                  "name": "metadataURI",
                  "type": "string"
                }
              ],
              "internalType": "struct CivilShare.Campaign[]",
              "name": "",
              "type": "tuple[]"
            }
          ],
          "stateMutability": "view",
          "type": "function"
        },
        {
          "inputs": [
            {
              "internalType": "uint256",
              "name": "start",
              "type": "uint256"
            },
            {
              "internalType": "uint256",
              "name": "end",
              "type": "uint256"
            }
          ],
          "name": "getExpiredCampaigns",
          "outputs": [
            {
              "components": [
                {
                  "internalType": "uint256",
                  "name": "id",
                  "type": "uint256"
                },
                {
                  "internalType": "uint256",
                  "name": "target",
                  "type": "uint256"
                },
                {
                  "internalType": "uint256",
                  "name": "deadline",
                  "type": "uint256"
                },
                {
                  "internalType": "uint256",
                  "name": "amountCollected",
                  "type": "uint256"
                },
                {
                  "internalType": "uint256",
                  "name": "createdAt",
                  "type": "uint256"
                },
                {
                  "internalType": "uint256",
                  "name": "nextMilestoneIndex",
                  "type": "uint256"
                },
                {
                  "internalType": "uint256",
                  "name": "ethEscrowed",
                  "type": "uint256"
                },
                {
                  "internalType": "uint256",
                  "name": "donationCount",
                  "type": "uint256"
                },
                {
                  "internalType": "address",
                  "name": "owner",
                  "type": "address"
                },
                {
                  "internalType": "enum CivilShare.CampaignStatus",
                  "name": "status",
                  "type": "uint8"
                },
                {
                  "internalType": "bool",
                  "name": "isEscrow",
                  "type": "bool"
                },
                {
                  "internalType": "address[]",
                  "name": "acceptedTokens",
                  "type": "address[]"
                },
                {
                  "internalType": "string",
                  "name": "title",
                  "type": "string"
                },
                {
                  "internalType": "string",
                  "name": "description",
                  "type": "string"
                },
                {
                  "internalType": "string",
                  "name": "image",
                  "type": "string"
                },
                {
                  "internalType": "string",
                  "name": "category",
                  "type": "string"
                },
                {
                  "internalType": "string",
                  "name": "metadataURI",
                  "type": "string"
                }
              ],
              "internalType": "struct CivilShare.Campaign[]",
              "name": "",
              "type": "tuple[]"
            }
          ],
          "stateMutability": "view",
          "type": "function"
        },
        {
          "inputs": [
            {
              "internalType": "address",
              "name": "_user",
              "type": "address"
            }
          ],
          "name": "getLastCreated",
          "outputs": [
            {
              "internalType": "uint256",
              "name": "",
              "type": "uint256"
            }
          ],
          "stateMutability": "view",
          "type": "function"
        },
        {
          "inputs": [
            {
              "internalType": "bytes32",
              "name": "role",
              "type": "bytes32"
            }
          ],
          "name": "getRoleAdmin",
          "outputs": [
            {
              "internalType": "bytes32",
              "name": "",
              "type": "bytes32"
            }
          ],
          "stateMutability": "view",
          "type": "function"
        },
        {
          "inputs": [],
          "name": "getStats",
          "outputs": [
            {
              "internalType": "uint256",
              "name": "totalCampaigns",
              "type": "uint256"
            },
            {
              "internalType": "uint256",
              "name": "totalETH",
              "type": "uint256"
            }
          ],
          "stateMutability": "view",
          "type": "function"
        },
        {
          "inputs": [
            {
              "internalType": "uint256",
              "name": "id",
              "type": "uint256"
            }
          ],
          "name": "getTotalDonatedForCampaign",
          "outputs": [
            {
              "internalType": "uint256",
              "name": "eth",
              "type": "uint256"
            },
            {
              "internalType": "address[]",
              "name": "tokens",
              "type": "address[]"
            },
            {
              "internalType": "uint256[]",
              "name": "amounts",
              "type": "uint256[]"
            }
          ],
          "stateMutability": "view",
          "type": "function"
        },
        {
          "inputs": [
            {
              "internalType": "address",
              "name": "_user",
              "type": "address"
            }
          ],
          "name": "getUserCampaigns",
          "outputs": [
            {
              "components": [
                {
                  "internalType": "uint256",
                  "name": "id",
                  "type": "uint256"
                },
                {
                  "internalType": "uint256",
                  "name": "target",
                  "type": "uint256"
                },
                {
                  "internalType": "uint256",
                  "name": "deadline",
                  "type": "uint256"
                },
                {
                  "internalType": "uint256",
                  "name": "amountCollected",
                  "type": "uint256"
                },
                {
                  "internalType": "uint256",
                  "name": "createdAt",
                  "type": "uint256"
                },
                {
                  "internalType": "uint256",
                  "name": "nextMilestoneIndex",
                  "type": "uint256"
                },
                {
                  "internalType": "uint256",
                  "name": "ethEscrowed",
                  "type": "uint256"
                },
                {
                  "internalType": "uint256",
                  "name": "donationCount",
                  "type": "uint256"
                },
                {
                  "internalType": "address",
                  "name": "owner",
                  "type": "address"
                },
                {
                  "internalType": "enum CivilShare.CampaignStatus",
                  "name": "status",
                  "type": "uint8"
                },
                {
                  "internalType": "bool",
                  "name": "isEscrow",
                  "type": "bool"
                },
                {
                  "internalType": "address[]",
                  "name": "acceptedTokens",
                  "type": "address[]"
                },
                {
                  "internalType": "string",
                  "name": "title",
                  "type": "string"
                },
                {
                  "internalType": "string",
                  "name": "description",
                  "type": "string"
                },
                {
                  "internalType": "string",
                  "name": "image",
                  "type": "string"
                },
                {
                  "internalType": "string",
                  "name": "category",
                  "type": "string"
                },
                {
                  "internalType": "string",
                  "name": "metadataURI",
                  "type": "string"
                }
              ],
              "internalType": "struct CivilShare.Campaign[]",
              "name": "",
              "type": "tuple[]"
            }
          ],
          "stateMutability": "view",
          "type": "function"
        },
        {
          "inputs": [
            {
              "internalType": "bytes32",
              "name": "role",
              "type": "bytes32"
            },
            {
              "internalType": "address",
              "name": "account",
              "type": "address"
            }
          ],
          "name": "grantRole",
          "outputs": [],
          "stateMutability": "nonpayable",
          "type": "function"
        },
        {
          "inputs": [
            {
              "internalType": "uint256",
              "name": "",
              "type": "uint256"
            },
            {
              "internalType": "address",
              "name": "",
              "type": "address"
            }
          ],
          "name": "hasDonatedToCampaign",
          "outputs": [
            {
              "internalType": "bool",
              "name": "",
              "type": "bool"
            }
          ],
          "stateMutability": "view",
          "type": "function"
        },
        {
          "inputs": [
            {
              "internalType": "bytes32",
              "name": "role",
              "type": "bytes32"
            },
            {
              "internalType": "address",
              "name": "account",
              "type": "address"
            }
          ],
          "name": "hasRole",
          "outputs": [
            {
              "internalType": "bool",
              "name": "",
              "type": "bool"
            }
          ],
          "stateMutability": "view",
          "type": "function"
        },
        {
          "inputs": [
            {
              "internalType": "uint256",
              "name": "",
              "type": "uint256"
            },
            {
              "internalType": "address",
              "name": "",
              "type": "address"
            }
          ],
          "name": "hasVoted",
          "outputs": [
            {
              "internalType": "bool",
              "name": "",
              "type": "bool"
            }
          ],
          "stateMutability": "view",
          "type": "function"
        },
        {
          "inputs": [],
          "name": "initialize",
          "outputs": [],
          "stateMutability": "nonpayable",
          "type": "function"
        },
        {
          "inputs": [
            {
              "internalType": "uint256",
              "name": "",
              "type": "uint256"
            },
            {
              "internalType": "address",
              "name": "",
              "type": "address"
            }
          ],
          "name": "isCampaignDonor",
          "outputs": [
            {
              "internalType": "bool",
              "name": "",
              "type": "bool"
            }
          ],
          "stateMutability": "view",
          "type": "function"
        },
        {
          "inputs": [
            {
              "internalType": "address",
              "name": "",
              "type": "address"
            }
          ],
          "name": "lastCreated",
          "outputs": [
            {
              "internalType": "uint256",
              "name": "",
              "type": "uint256"
            }
          ],
          "stateMutability": "view",
          "type": "function"
        },
        {
          "inputs": [
            {
              "internalType": "uint256",
              "name": "_id",
              "type": "uint256"
            }
          ],
          "name": "markAsCompleted",
          "outputs": [],
          "stateMutability": "nonpayable",
          "type": "function"
        },
        {
          "inputs": [],
          "name": "numberOfCampaigns",
          "outputs": [
            {
              "internalType": "uint256",
              "name": "",
              "type": "uint256"
            }
          ],
          "stateMutability": "view",
          "type": "function"
        },
        {
          "inputs": [],
          "name": "paused",
          "outputs": [
            {
              "internalType": "bool",
              "name": "",
              "type": "bool"
            }
          ],
          "stateMutability": "view",
          "type": "function"
        },
        {
          "inputs": [],
          "name": "proxiableUUID",
          "outputs": [
            {
              "internalType": "bytes32",
              "name": "",
              "type": "bytes32"
            }
          ],
          "stateMutability": "view",
          "type": "function"
        },
        {
          "inputs": [
            {
              "internalType": "uint256",
              "name": "",
              "type": "uint256"
            },
            {
              "internalType": "address",
              "name": "",
              "type": "address"
            },
            {
              "internalType": "address",
              "name": "",
              "type": "address"
            }
          ],
          "name": "refunds",
          "outputs": [
            {
              "internalType": "uint256",
              "name": "",
              "type": "uint256"
            }
          ],
          "stateMutability": "view",
          "type": "function"
        },
        {
          "inputs": [
            {
              "internalType": "bytes32",
              "name": "role",
              "type": "bytes32"
            },
            {
              "internalType": "address",
              "name": "callerConfirmation",
              "type": "address"
            }
          ],
          "name": "renounceRole",
          "outputs": [],
          "stateMutability": "nonpayable",
          "type": "function"
        },
        {
          "inputs": [
            {
              "internalType": "bytes32",
              "name": "role",
              "type": "bytes32"
            },
            {
              "internalType": "address",
              "name": "account",
              "type": "address"
            }
          ],
          "name": "revokeRole",
          "outputs": [],
          "stateMutability": "nonpayable",
          "type": "function"
        },
        {
          "inputs": [
            {
              "internalType": "address",
              "name": "token",
              "type": "address"
            },
            {
              "internalType": "bool",
              "name": "isAllowed",
              "type": "bool"
            }
          ],
          "name": "setAllowedToken",
          "outputs": [],
          "stateMutability": "nonpayable",
          "type": "function"
        },
        {
          "inputs": [
            {
              "internalType": "address",
              "name": "_forwarder",
              "type": "address"
            }
          ],
          "name": "setTrustedForwarder",
          "outputs": [],
          "stateMutability": "nonpayable",
          "type": "function"
        },
        {
          "inputs": [
            {
              "internalType": "bytes4",
              "name": "interfaceId",
              "type": "bytes4"
            }
          ],
          "name": "supportsInterface",
          "outputs": [
            {
              "internalType": "bool",
              "name": "",
              "type": "bool"
            }
          ],
          "stateMutability": "view",
          "type": "function"
        },
        {
          "inputs": [],
          "name": "togglePause",
          "outputs": [],
          "stateMutability": "nonpayable",
          "type": "function"
        },
        {
          "inputs": [
            {
              "internalType": "uint256",
              "name": "",
              "type": "uint256"
            },
            {
              "internalType": "address",
              "name": "",
              "type": "address"
            }
          ],
          "name": "tokenAmountCollected",
          "outputs": [
            {
              "internalType": "uint256",
              "name": "",
              "type": "uint256"
            }
          ],
          "stateMutability": "view",
          "type": "function"
        },
        {
          "inputs": [
            {
              "internalType": "uint256",
              "name": "",
              "type": "uint256"
            },
            {
              "internalType": "address",
              "name": "",
              "type": "address"
            }
          ],
          "name": "tokenEscrowed",
          "outputs": [
            {
              "internalType": "uint256",
              "name": "",
              "type": "uint256"
            }
          ],
          "stateMutability": "view",
          "type": "function"
        },
        {
          "inputs": [
            {
              "internalType": "uint256",
              "name": "",
              "type": "uint256"
            }
          ],
          "name": "topDonationAmount",
          "outputs": [
            {
              "internalType": "uint256",
              "name": "",
              "type": "uint256"
            }
          ],
          "stateMutability": "view",
          "type": "function"
        },
        {
          "inputs": [
            {
              "internalType": "uint256",
              "name": "",
              "type": "uint256"
            }
          ],
          "name": "topDonors",
          "outputs": [
            {
              "internalType": "address",
              "name": "",
              "type": "address"
            }
          ],
          "stateMutability": "view",
          "type": "function"
        },
        {
          "inputs": [],
          "name": "totalAmountDonated",
          "outputs": [
            {
              "internalType": "uint256",
              "name": "",
              "type": "uint256"
            }
          ],
          "stateMutability": "view",
          "type": "function"
        },
        {
          "inputs": [],
          "name": "trustedForwarder",
          "outputs": [
            {
              "internalType": "address",
              "name": "",
              "type": "address"
            }
          ],
          "stateMutability": "view",
          "type": "function"
        },
        {
          "inputs": [
            {
              "internalType": "address",
              "name": "newImplementation",
              "type": "address"
            },
            {
              "internalType": "bytes",
              "name": "data",
              "type": "bytes"
            }
          ],
          "name": "upgradeToAndCall",
          "outputs": [],
          "stateMutability": "payable",
          "type": "function"
        },
        {
          "inputs": [
            {
              "internalType": "uint256",
              "name": "_id",
              "type": "uint256"
            }
          ],
          "name": "upvote",
          "outputs": [],
          "stateMutability": "nonpayable",
          "type": "function"
        },
        {
          "inputs": [
            {
              "internalType": "uint256",
              "name": "",
              "type": "uint256"
            }
          ],
          "name": "upvotes",
          "outputs": [
            {
              "internalType": "uint256",
              "name": "",
              "type": "uint256"
            }
          ],
          "stateMutability": "view",
          "type": "function"
        },
        {
          "inputs": [
            {
              "internalType": "address",
              "name": "",
              "type": "address"
            },
            {
              "internalType": "uint256",
              "name": "",
              "type": "uint256"
            }
          ],
          "name": "userCampaigns",
          "outputs": [
            {
              "internalType": "uint256",
              "name": "",
              "type": "uint256"
            }
          ],
          "stateMutability": "view",
          "type": "function"
        },
        {
          "inputs": [
            {
              "internalType": "uint256",
              "name": "id",
              "type": "uint256"
            },
            {
              "internalType": "bytes32",
              "name": "expectedHash",
              "type": "bytes32"
            }
          ],
          "name": "validateMetadataURI",
          "outputs": [
            {
              "internalType": "bool",
              "name": "",
              "type": "bool"
            }
          ],
          "stateMutability": "view",
          "type": "function"
        },
        {
          "inputs": [
            {
              "internalType": "uint256",
              "name": "_id",
              "type": "uint256"
            }
          ],
          "name": "verifyCampaign",
          "outputs": [],
          "stateMutability": "nonpayable",
          "type": "function"
        },
        {
          "inputs": [
            {
              "internalType": "uint256",
              "name": "_id",
              "type": "uint256"
            },
            {
              "internalType": "address",
              "name": "token",
              "type": "address"
            }
          ],
          "name": "withdrawCampaignFunds",
          "outputs": [],
          "stateMutability": "nonpayable",
          "type": "function"
        },
        {
          "inputs": [
            {
              "internalType": "address payable",
              "name": "to",
              "type": "address"
            },
            {
              "internalType": "address",
              "name": "token",
              "type": "address"
            },
            {
              "internalType": "uint256",
              "name": "amount",
              "type": "uint256"
            }
          ],
          "name": "withdrawTreasuryBalance",
          "outputs": [],
          "stateMutability": "nonpayable",
          "type": "function"
        },
        {
          "stateMutability": "payable",
          "type": "receive"
        }
      ],
      "evm": {
        "bytecode": {
          "linkReferences": {},
          "object": "60a08060405234602e57306080526000600d5561531990816100348239608051818181611f230152611fc80152f35b600080fdfe60806040526004361015610010575b005b60003560e01c806301ddf0701461419157806301ffc9a71461413b578063024ece891461400c57806307ca140d14613fee57806311eb949814613af65780631212d4f5146138d9578063141961bc1461378957806319ac74bd146137305780631f74645e146136e8578063248a9ca3146136c2578063249e659f1461353d5780632f2ff15d1461350c5780633178492a1461349d578063325e84e614613455578063353c5bd2146128e057806336568abe1461288a5780633aa2d4b1146126d55780633b594a68146126a45780633bb1f28b146125845780633e019901146125375780634138de6a146122c9578063438596321461227c578063471c027c146122505780634ad04197146121665780634f1ef28614611f7a57806352d1902d14611f10578063560184f814611bd7578063564a7ac114611b8f5780635b7baf6414611a9d5780635c975abb14611a7a5780635cbaddab14611a465780635f259cfe146118f2578063636a5467146118d45780636bf8fd42146117a45780636c713c8f146112875780636c9016ce1461175757806375b238fc1461171c5780637c0971fd146116c15780637da0a877146116985780637eca30fe146115275780638129fc1c146113a55780638aaa2284146112c15780638aab2c7e146112875780638d9ed5f91461123f57806391d14854146111e557806395e60f461461103f57806396114c3f14611013578063a1e5084c14610e95578063a217fddf14610e79578063ad3cb1cc14610e32578063b653145814610c67578063bf3ec80c14610a1b578063c0a6026c14610905578063c266aef71461079a578063c4ae3168146106f1578063c59d4847146106cc578063d547741f14610696578063da7422281461062f578063db9fc9f7146105e2578063e6ffcaa114610470578063e744092e14610431578063e9c2651814610408578063f0f89eea146103ea578063f52cb29b146103015763ff367af40361000e57346102fc5760003660031901126102fc57602060405160648152f35b600080fd5b346102fc5760203660031901126102fc5733600090815260008051602061522483398151915260209081526040909120547f828635a891091ed676512ab0ab2e966391437a035beb146b02cb74cb841d128b91906004359060ff1680156103af575b61036c90614c8f565b806000526003825261038560ff60406000205416614885565b600081815260028352604090819020600801805460ff60a01b1916600360a01b17905551908152a1005b50600080516020615204833981519152600090815260008051602061528483398151915283526040808220338352845290205460ff16610363565b346102fc5760003660031901126102fc576020600654604051908152f35b346102fc5760003660031901126102fc5760206040516000805160206152048339815191528152f35b346102fc5760203660031901126102fc576001600160a01b03610452614375565b166000526007602052602060ff604060002054166040519015158152f35b346102fc5760203660031901126102fc5760043561048c614aee565b508060005260036020526104a760ff60406000205416614885565b600052600260205260406000206040516104c0816143c5565b8154815260018201546020820152600282015460408201526003820154606082015260048201546080820152600582015460a0820152600682015460c0820152600782015460e0820152600882015460018060a01b03811661010083015260ff8160a01c169060048210156105cc576105c89360ff600e926105ae9461012087015260a81c16151561014085015261055a600982016147dc565b61016085015261056c600a8201614402565b61018085015261057e600b8201614402565b6101a0850152610590600c8201614402565b6101c08501526105a2600d8201614402565b6101e085015201614402565b610200820152604051918291602083526020830190614538565b0390f35b634e487b7160e01b600052602160045260246000fd5b346102fc5760403660031901126102fc576105fb614349565b600435600052600860205260406000209060018060a01b0316600052602052602060ff604060002054166040519015158152f35b346102fc5760203660031901126102fc57610648614375565b610650614d06565b604780546001600160a01b0319166001600160a01b039290921691821790557fa4388ecc389b1390354ae0c65a856c0d7dd4fb648419f5d3ac0b99e38f46fd11600080a2005b346102fc5760403660031901126102fc5761000e6004356106b5614349565b906106c76106c282614a91565b614d84565b6150a6565b346102fc5760003660031901126102fc576040600d5460065482519182526020820152f35b346102fc5760003660031901126102fc57336000908152600080516020615224833981519152602052604090205460ff168015610774575b61073290614c8f565b7fda88b5dfaac55549d4ddddd43a09d4b911233df354952ebc9ac2041aa1853436602060125460ff8082161516809160ff1916176012556040519015158152a1005b50336000908152600080516020615264833981519152602052604090205460ff16610729565b346102fc576107a836614522565b906107b1614cca565b60008181526002602052604090206008810180546107e99060ff906107e0336001600160a01b038316146149bd565b60a81c16614a00565b8260005260016020526108008460406000206146e5565b50916002830180549161081660ff841615614a45565b600381016001815496019384548097106108cb5760006020966005829583956108707f0f7f51312954676acd3ef3da92d9cfd404e9aa38e628c180e066a02e54889f959c6108af9a6001889960ff19161790558254614a84565b9055885461088360068301918254614a84565b9055016108908154614785565b9055548654906001600160a01b03165af16108a9614c06565b50614c43565b54604051908152a360016000805160206152a483398151915255005b60405162461bcd60e51b8152602060048201526012602482015271496e73756666696369656e742066756e647360701b6044820152606490fd5b346102fc5760203660031901126102fc576004358060005260026020526040600020906008820160ff815460a01c169260048410156105cc5761094a600185146148d1565b6002600094146109d657600160038201549101541161099b57805460ff60a01b1916600160a11b1790557fbdef6a2e3aa892961a2dab48272f72f2bc1c7121eb1c0ed7e4a58e081c1e4be08280a280f35b60405162461bcd60e51b81526020600482015260136024820152722a30b933b2ba103737ba103cb2ba1036b2ba1760691b6044820152606490fd5b60405162461bcd60e51b815260206004820152601b60248201527f43616d706169676e20616c726561647920636f6d706c657465642e00000000006044820152606490fd5b346102fc5760603660031901126102fc576004356001600160a01b0381168082036102fc57610a48614349565b9060443591610a55614cca565b336000908152600080516020615224833981519152602052604090205460ff168015610c41575b610a8590614c8f565b6001600160a01b031680610b845750478211610b3f57600080808481945af1610aac614c06565b5015610b0457604080516001600160a01b0393909316835260208301919091527f41fdd680478135993bc53fb2ffaf9560951b57ef62ff6badd02b61e018b4f17f91a15b60016000805160206152a483398151915255005b60405162461bcd60e51b8152602060048201526013602482015272115512081dda5d1a191c985dc819985a5b1959606a1b6044820152606490fd5b60405162461bcd60e51b815260206004820152601860248201527f496e73756666696369656e74204554482062616c616e636500000000000000006044820152606490fd5b60405163a9059cbb60e01b81526001600160a01b038516600482015260248101849052939150602090849060449082906000905af1928315610c35577f41fdd680478135993bc53fb2ffaf9560951b57ef62ff6badd02b61e018b4f17f93610c08575b50604080516001600160a01b039290921682526020820192909252a1610af0565b610c299060203d602011610c2e575b610c2181836143e1565b810190614961565b610be7565b503d610c17565b6040513d6000823e3d90fd5b50336000908152600080516020615264833981519152602052604090205460ff16610a7c565b346102fc57610c7536614522565b9080821180610e26575b610c8890614ab2565b610c9a610c958284614a84565b614b74565b916000915b818110610cf4575050610cb181614b74565b9160005b828110610cca57604051806105c88682614685565b80610cd760019284614830565b51610ce28287614830565b52610ced8186614830565b5001610cb5565b806000526002602052426002604060002001541180610dfc575b610d1b575b600101610c9f565b91826000526002602052604060002060405191610d37836143c5565b8154835260018201546020840152600282015460408401526003820154606084015260048201546080840152600582015460a0840152600682015460c0840152600782015460e084015260088201549260018060a01b03841661010082015260ff8460a01c1660048110156105cc57600e610df49460ff600197610dd39461012087015260a81c16151561014085015261055a600982016147dc565b610200820152610de38288614830565b52610dee8187614830565b50614785565b929050610d13565b5080600052600260205260ff60086040600020015460a01c1660048110156105cc57600114610d0e565b50600d54821115610c7f565b346102fc5760003660031901126102fc576105c86040805190610e5581836143e1565b60058252640352e302e360dc1b6020830152519182916020835260208301906144b3565b346102fc5760003660031901126102fc57602060405160008152f35b346102fc5760203660031901126102fc576001600160a01b03610eb6614375565b16600052600560205260406000206040518082602082945493848152019060005260206000209260005b818110610ffa575050610ef5925003826143e1565b610eff8151614b74565b9060005b8151811015610fec57610f168183614830565b516000526002602052604060002090604051610f31816143c5565b8254815260018301546020820152600283015460408201526003830154606082015260048301546080820152600583015460a0820152600683015460c0820152600783015460e0820152600883015460018060a01b03811661010083015260ff8160a01c169060048210156105cc5760019460ff600e92610fca9461012087015260a81c16151561014085015261055a600982016147dc565b610200820152610fda8286614830565b52610fe58185614830565b5001610f03565b604051806105c88582614685565b8454835260019485019486945060209093019201610ee0565b346102fc5760203660031901126102fc5760043560005260106020526020604060002054604051908152f35b346102fc5761104d36614522565b90808211806111d9575b61106090614ab2565b61106d610c958284614a84565b916000915b8181106110c757505061108481614b74565b9160005b82811061109d57604051806105c88682614685565b806110aa60019284614830565b516110b58287614830565b526110c08186614830565b5001611088565b806000526002602052426002604060002001541115806111af575b6110ef575b600101611072565b9182600052600260205260406000206040519161110b836143c5565b8154835260018201546020840152600282015460408401526003820154606084015260048201546080840152600582015460a0840152600682015460c0840152600782015460e084015260088201549260018060a01b03841661010082015260ff8460a01c1660048110156105cc57600e6111a79460ff600197610dd39461012087015260a81c16151561014085015261055a600982016147dc565b9290506110e7565b5080600052600260205260ff60086040600020015460a01c1660048110156105cc576001146110e2565b50600d54821115611057565b346102fc5760403660031901126102fc576111fe614349565b60043560005260008051602061528483398151915260205260406000209060018060a01b0316600052602052602060ff604060002054166040519015158152f35b346102fc5760403660031901126102fc57611258614349565b600435600052600960205260406000209060018060a01b03166000526020526020604060002054604051908152f35b346102fc5760203660031901126102fc576001600160a01b036112a8614375565b1660005260046020526020604060002054604051908152f35b346102fc5760403660031901126102fc576112da614375565b602435908115158092036102fc5733600090815260008051602061522483398151915260209081526040909120547f1da521c13439ac6ab125c52e0da7dd7de929f09e58aa0f89ebe3dbb12e63a52b929060ff16801561136a575b61133e90614c8f565b60018060a01b0316928360005260078252604060002060ff1981541660ff8316179055604051908152a2005b50600080516020615204833981519152600090815260008051602061528483398151915283526040808220338352845290205460ff16611335565b346102fc5760003660031901126102fc576000805160206152c48339815191525460ff8160401c1615906001600160401b0381168015908161151f575b6001149081611515575b15908161150c575b506114fb5767ffffffffffffffff1981166001176000805160206152c483398151915255816114ce575b50611427615154565b61142f615154565b611437615154565b60016000805160206152a483398151915255611451615154565b61145a33614de7565b5061146433614e9b565b5061146e33614f45565b5061147557005b68ff0000000000000000196000805160206152c483398151915254166000805160206152c4833981519152557fc7f505b2f371ae2175ee4913f4499e1f2633a7b5936321eed1cdaeb6115181d2602060405160018152a1005b68ffffffffffffffffff191668010000000000000001176000805160206152c4833981519152558161141e565b63f92ee8a960e01b60005260046000fd5b905015836113f4565b303b1591506113ec565b8391506113e2565b346102fc5760203660031901126102fc5760043580600052600360205261155560ff60406000205416614885565b600081815260026020526040902060088101805490929190336001600160a01b038216148015611672575b1561163c5760ff8160a81c16918261162e575b50816115f1575b507fa8ad368de07a46b4c9632fee456e1227f02e971f82939d68bd4696b2e378dfa79260209291156115e157805460ff60a01b1916600160a11b1790555b604051908152a1005b805460ff60a01b191690556115d8565b60ff915060a01c169060048210156105cc5790600214157fa8ad368de07a46b4c9632fee456e1227f02e971f82939d68bd4696b2e378dfa761159a565b600301541515915084611593565b60405162461bcd60e51b815260206004820152600e60248201526d139bdd08185d5d1a1bdc9a5e995960921b6044820152606490fd5b50336000908152600080516020615224833981519152602052604090205460ff16611580565b346102fc5760003660031901126102fc576047546040516001600160a01b039091168152602090f35b346102fc5760603660031901126102fc576116da614349565b6116e261435f565b6004356000908152600b602090815260408083206001600160a01b0395861684528252808320949093168252928352819020549051908152f35b346102fc5760003660031901126102fc5760206040517fa49807205ce4d355092ef5a8a18f56e8913cf4a201fbe287825b095693c217758152f35b346102fc5760403660031901126102fc57611770614349565b600435600052601460205260406000209060018060a01b0316600052602052602060ff604060002054166040519015158152f35b346102fc5760203660031901126102fc576004358060005260036020526117d260ff60406000205416614885565b80600052600260205260406000206117f16009600383015492016147dc565b8051906118166118008361476e565b9261180e60405194856143e1565b80845261476e565b602083019390601f190136853760005b82518110156118765760019086600052600a602052604080600020838060a01b036118518488614830565b511690600091858060a01b03168252602052205461186f8287614830565b5201611826565b50929190935060206118996040519586958652606083870152606086019061430c565b918483036040860152519182815201919060005b8181106118bb575050500390f35b82518452859450602093840193909201916001016118ad565b346102fc5760003660031901126102fc576020604051620151808152f35b346102fc5760403660031901126102fc5761190b614375565b602435908115611a01576001600160a01b031660008181526007602052604090205490919060ff16156119c8576040516323b872dd60e01b8152336004820152306024820152604481018290526020816064816000875af18015610c355761197b916000916119a9575b50614979565b6040519081527fcedeec3d87bab948b78578aa28e3a9a7a86436b9db48e0cab9b501a596fa8a3360203392a3005b6119c2915060203d602011610c2e57610c2181836143e1565b84611975565b60405162461bcd60e51b8152602060048201526011602482015270151bdad95b881b9bdd08185b1b1bddd959607a1b6044820152606490fd5b60405162461bcd60e51b815260206004820152601d60248201527f416d6f756e74206d7573742062652067726561746572207468616e20300000006044820152606490fd5b346102fc5760203660031901126102fc57600435600052600e602052602060018060a01b0360406000205416604051908152f35b346102fc5760003660031901126102fc57602060ff601254166040519015158152f35b346102fc5760203660031901126102fc57600435611ab9614cca565b6000818152600c6020908152604080832033845290915290205490611adf821515614bc4565b80600052600c602052604060002060018060a01b03331660005260205260006040812055600080808085335af1611b14614c06565b5015611b5a576040519182527f067c42eda1496b800b57c9fe634a9218dc00a15cb38247910f717d265000242160203393a360016000805160206152a483398151915255005b60405162461bcd60e51b815260206004820152600d60248201526c1499599d5b990819985a5b1959609a1b6044820152606490fd5b346102fc5760403660031901126102fc57611ba8614349565b600435600052600060205260406000209060018060a01b03166000526020526020604060002054604051908152f35b60203660031901126102fc57600435611bf560ff6012541615614844565b611bfd614cca565b8060005260026020526040600020908060005260006020526040600020600883019060ff825460a01c1660048110156105cc576001611c3c91146148d1565b611c4b6002850154421061491d565b60018060a01b0333166000526020526040600020611c6a348254614c36565b9055600082815260146020908152604080832033845290915290205460ff1615611ee7575b805460ff8160a81c16600014611e6f575060038301611caf348254614c36565b905560068301611cc0348254614c36565b90555b60078301600181540190553460065401600655604051348152827fc21ced65a5123cf3a616a47c5db0322ac53c225fc7cd0b8006a899ed321edc2160203393a36040513481526000602082015260016040820152827fc0d2dcefa652289d410a90d1e74f5483b1fe1f34f334a1dd364d282f66e1cbd060603393a360ff815460a81c16611d5e5760016000805160206152a483398151915255005b600583019182545b816000526001602052604060002054811015611e6557816000526001602052611d938160406000206146e5565b50906002820180549260ff84161580611e53575b15611e42577f0f7f51312954676acd3ef3da92d9cfd404e9aa38e628c180e066a02e54889f9560208692611e02600080808060018e8c9b829e839060ff1916179055818060a01b039054169601958654905af16108a9614c06565b8054611e1360038d01918254614a84565b90558054611e2660068d01918254614a84565b9055611e328a54614785565b8a5554604051908152a301611d66565b50505050505050505b808080610af0565b50600388015460018201541115611da7565b5050505050611e4b565b60009081908190819034906001600160a01b03165af1611e8d614c06565b5015611ea95760038301611ea2348254614c36565b9055611cc3565b60405162461bcd60e51b8152602060048201526016602482015275111a5c9958dd08191bdb985d1a5bdb8819985a5b195960521b6044820152606490fd5b60008281526014602090815260408083203384529091529020805460ff19166001179055611c8f565b346102fc5760003660031901126102fc577f00000000000000000000000000000000000000000000000000000000000000006001600160a01b03163003611f695760206040516000805160206152448339815191528152f35b63703e46dd60e11b60005260046000fd5b60403660031901126102fc57611f8e614375565b6024356001600160401b0381116102fc57366023820112156102fc57611fbe90369060248160040135910161471c565b6001600160a01b037f000000000000000000000000000000000000000000000000000000000000000016308114908115612143575b50611f6957612000614d06565b6040516352d1902d60e01b81526001600160a01b0383169290602081600481875afa6000918161210f575b506120455783634c9c8ce360e01b60005260045260246000fd5b806000805160206152448339815191528592036120fb5750813b156120e75760008051602061524483398151915280546001600160a01b031916821790557fbc7cd75a20ee27fd9adebab32041f755214dbc6bffa90cc0225b39da2e5c2d3b600080a28151156120cd5760008083602061000e95519101845af46120c7614c06565b91615182565b5050346120d657005b63b398979f60e01b60005260046000fd5b634c9c8ce360e01b60005260045260246000fd5b632a87526960e21b60005260045260246000fd5b9091506020813d60201161213b575b8161212b602093836143e1565b810103126102fc5751908561202b565b3d915061211e565b600080516020615244833981519152546001600160a01b03161415905083611ff3565b346102fc5760403660031901126102fc5760043580600052600360205261219460ff60406000205416614885565b60005260026020526020600e60406000200160405190828201908260008254926121bd8461438b565b936001811690811561223357506001146121f6575b506121e6925003601f1981018452836143e1565b6024359151902014604051908152f35b91505060005282846000206000905b83821061221c575050846121e692820101866121d2565b805486830188015285925090860190600101612205565b60ff19168652506121e693801515028301870191508790506121d2565b346102fc5760203660031901126102fc57600435600052600f6020526020604060002054604051908152f35b346102fc5760403660031901126102fc57612295614349565b600435600052601160205260406000209060018060a01b0316600052602052602060ff604060002054166040519015158152f35b346102fc5760403660031901126102fc576004356122e5614349565b906122ee614cca565b600081815260026020526040902060088101549092906001600160a01b031633036124f2576001600160a01b031691826123fb57600601805491925081156123c15760009055600080808084335af1612345614c06565b501561238a5760207f7c02f2447b03b3f5f13dc0b6cf90d91fc6e3eec2ffcc467b9d0b297d63ad2b6f91604051908152a260016000805160206152a483398151915255005b60405162461bcd60e51b815260206004820152600f60248201526e15da5d1a191c985dc819985a5b1959608a1b6044820152606490fd5b60405162461bcd60e51b81526020600482015260126024820152714e6f2045544820746f20776974686472617760701b6044820152606490fd5b5080600052600960205260406000208260005260205260406000205480156124b657600082815260096020908152604080832086845282528083208390555163a9059cbb60e01b815233600482015260248101849052929183906044908290885af1908115610c35577f46a80e63d2402a895805e446d536d1ae392c3d1c7dcfaf3c19f6b707ff075bfc9260209261249b575b50604051908152a3610af0565b6124b190833d8511610c2e57610c2181836143e1565b61248e565b60405162461bcd60e51b81526020600482015260146024820152734e6f20746f6b656e20746f20776974686472617760601b6044820152606490fd5b60405162461bcd60e51b815260206004820152601760248201527f4f6e6c79206f776e65722063616e2077697468647261770000000000000000006044820152606490fd5b346102fc5760403660031901126102fc57612550614349565b600435600052601360205260406000209060018060a01b0316600052602052602060ff604060002054166040519015158152f35b346102fc5760403660031901126102fc576004356125a0614349565b6125a8614cca565b6000828152600b6020908152604080832033845282528083206001600160a01b0385168452909152902054906125df821515614bc4565b6000838152600b60209081526040808320338085529083528184206001600160a01b0395909516808552948352818420849055905163a9059cbb60e01b81526004810191909152602481018590529294929182906044908290885af18015610c3557612687575b506040519182527f91913f151e79c39aba9f9fb1fcc36f5b229acf1329f57f09d367b77c215651fe60203393a460016000805160206152a483398151915255005b61269f9060203d602011610c2e57610c2181836143e1565b612646565b346102fc5760203660031901126102fc576004356000526003602052602060ff604060002054166040519015158152f35b346102fc576126e336614522565b8181111561283957600d5481116127f457612701610c958383614a84565b9060005b81841061271a57604051806105c88582614685565b836000526002602052604060002060405191612735836143c5565b8154835260018201546020840152600282015460408401526003820154606084015260048201546080840152600582015460a0840152600682015460c0840152600782015460e084015260088201549260018060a01b03841661010082015260ff8460a01c1660048110156105cc57600e6127ec9460ff6001976127d19461012087015260a81c16151561014085015261055a600982016147dc565b6102008201526127e18287614830565b52610dee8186614830565b930192612705565b60405162461bcd60e51b815260206004820152601760248201527f456e6420696e646578206f7574206f6620626f756e64730000000000000000006044820152606490fd5b60405162461bcd60e51b8152602060048201526024808201527f456e6420696e646578206d7573742062652067726561746572207468616e20736044820152631d185c9d60e21b6064820152608490fd5b346102fc5760403660031901126102fc576128a3614349565b6001600160a01b036128b3615082565b166001600160a01b038216036128cf5761000e906004356150a6565b63334bd91960e11b60005260046000fd5b346102fc576101403660031901126102fc576128fa614375565b6024356001600160401b0381116102fc57612919903690600401614753565b906044356001600160401b0381116102fc57612939903690600401614753565b906064356084359360a4356001600160401b0381116102fc57612960903690600401614753565b60c4356001600160401b0381116102fc5761297f903690600401614753565b60e4356001600160401b0381116102fc5761299e903690600401614753565b9061010435928315158094036102fc5761012435966001600160401b0388116102fc57366023890112156102fc5787600401356129da8161476e565b986129e86040519a8b6143e1565b818a52602460208b019260051b820101903682116102fc57602401915b81831061343557505050612a1e60ff6012541615614844565b60018060a01b03169889600052600460205262015180612a4360406000205442614a84565b11156133d75785511561339d5788511561335857861561331357428111156132b95781511561327f5782511561324257600d5496876000526002602052604060002099888b5560088b01978c6bffffffffffffffffffffffff60a01b8a5416178955600a8c01908051906001600160401b038211612dd5578190612ac7845461438b565b601f81116131ef575b50602090601f831160011461318a5760009261317f575b50508160011b916000199060031b1c19161790555b8051600b8c01916001600160401b038211612dd5578190612b1d845461438b565b601f811161312c575b50602090601f83116001146130c7576000926130bc575b50508160011b916000199060031b1c19161790555b60018a01556002890155600060038901558051600c8901916001600160401b038211612dd5578190612b84845461438b565b601f8111613069575b50602090601f831160011461300457600092612ff9575b50508160011b916000199060031b1c19161790555b8051600d8801916001600160401b038211612dd5578190612bda845461438b565b601f8111612fa6575b50602090601f8311600114612f4157600092612f36575b50508160011b916000199060031b1c19161790555b8051600e8701916001600160401b038211612dd5578190612c30845461438b565b601f8111612ee3575b50602090601f8311600114612e7e57600092612e73575b50508160011b916000199060031b1c19161790555b815460ff60a81b191660a89190911b60ff60a81b16178155426004850155805460ff60a01b1916600160a01b17905560006005808501829055858252602052604090208054600160401b811015612dd557612cc8916001829796970181556144f4565b81549060031b9083821b91600019901b19161790558060005260036020526040600020600160ff1982541617905582600052600460205242604060002055600960009401935b8251811015612e30576001600160a01b03612d298285614830565b5116600052600760205260ff6040600020541615612deb57600082815260086020526040908190206001600160a01b03612d638487614830565b516001600160a01b03911681166000908152602092909252919020805460ff19166001179055612d938285614830565b511690855491600160401b831015612dd557612db68360018095018955886144f4565b819291549060031b91821b91858060a01b03901b191617905501612d0e565b634e487b7160e01b600052604160045260246000fd5b60405162461bcd60e51b815260206004820152601a60248201527f546f6b656e206e6f7420676c6f62616c6c7920616c6c6f7765640000000000006044820152606490fd5b602082857f633109eec20320eded000fc1e2634211aa7e92ba3f5b15faf6dcdafca05094e483604051848152a2612e68600d54614785565b600d55604051908152f35b015190508980612c50565b60008581528281209350601f198516905b818110612ecb5750908460019594939210612eb2575b505050811b019055612c65565b015160001960f88460031b161c19169055898080612ea5565b92936020600181928786015181550195019301612e8f565b909150836000526020600020601f840160051c81019160208510612f2c575b90601f859493920160051c01905b818110612f1d5750612c39565b60008155849350600101612f10565b9091508190612f02565b015190508a80612bfa565b60008581528281209350601f198516905b818110612f8e5750908460019594939210612f75575b505050811b019055612c0f565b015160001960f88460031b161c191690558a8080612f68565b92936020600181928786015181550195019301612f52565b909150836000526020600020601f840160051c81019160208510612fef575b90601f859493920160051c01905b818110612fe05750612be3565b60008155849350600101612fd3565b9091508190612fc5565b015190508b80612ba4565b60008581528281209350601f198516905b8181106130515750908460019594939210613038575b505050811b019055612bb9565b015160001960f88460031b161c191690558b808061302b565b92936020600181928786015181550195019301613015565b909150836000526020600020601f840160051c810191602085106130b2575b90601f859493920160051c01905b8181106130a35750612b8d565b60008155849350600101613096565b9091508190613088565b015190508e80612b3d565b60008581528281209350601f198516905b81811061311457509084600195949392106130fb575b505050811b019055612b52565b015160001960f88460031b161c191690558e80806130ee565b929360206001819287860151815501950193016130d8565b909150836000526020600020601f840160051c81019160208510613175575b90601f859493920160051c01905b8181106131665750612b26565b60008155849350600101613159565b909150819061314b565b015190508f80612ae7565b60008581528281209350601f198516905b8181106131d757509084600195949392106131be575b505050811b019055612afc565b015160001960f88460031b161c191690558f80806131b1565b9293602060018192878601518155019501930161319b565b909150836000526020600020601f840160051c81019160208510613238575b90601f859493920160051c01905b8181106132295750612ad0565b6000815584935060010161321c565b909150819061320e565b60405162461bcd60e51b815260206004820152601560248201527421b0ba32b3b7b93c9034b9903932b8bab4b932b21760591b6044820152606490fd5b60405162461bcd60e51b815260206004820152601260248201527124b6b0b3b29034b9903932b8bab4b932b21760711b6044820152606490fd5b60405162461bcd60e51b815260206004820152602c60248201527f54686520646561646c696e652073686f756c642062652061206461746520696e60448201526b103a343290333aba3ab9329760a11b6064820152608490fd5b60405162461bcd60e51b815260206004820152601e60248201527f546172676574206d7573742062652067726561746572207468616e20302e00006044820152606490fd5b60405162461bcd60e51b815260206004820152601860248201527f4465736372697074696f6e2069732072657175697265642e00000000000000006044820152606490fd5b60405162461bcd60e51b81526020600482015260126024820152712a34ba36329034b9903932b8bab4b932b21760711b6044820152606490fd5b60405162461bcd60e51b815260206004820152603060248201527f596f752063616e206f6e6c7920637265617465206f6e652063616d706169676e60448201526f1032bb32b93c90191a103437bab9399760811b6064820152608490fd5b82356001600160a01b03811681036102fc57815260209283019201612a05565b346102fc5760403660031901126102fc5761346e614349565b600435600052600a60205260406000209060018060a01b03166000526020526020604060002054604051908152f35b346102fc576134ab36614522565b906000526001602052604060002080548210156102fc576134fb916134cf916146e5565b506134d981614402565b9060ff60026001830154920154166040519384936060855260608501906144b3565b916020840152151560408301520390f35b346102fc5760403660031901126102fc5761000e60043561352b614349565b906135386106c282614a91565b614fdd565b346102fc5761354b36614522565b90808211806136b6575b61355e90614ab2565b61356b610c958284614a84565b916000915b8181106135c557505061358281614b74565b9160005b82811061359b57604051806105c88682614685565b806135a860019284614830565b516135b38287614830565b526135be8186614830565b5001613586565b80600052600260205260ff60086040600020015460a01c1660048110156105cc576002146135f6575b600101613570565b91826000526002602052604060002060405191613612836143c5565b8154835260018201546020840152600282015460408401526003820154606084015260048201546080840152600582015460a0840152600682015460c0840152600782015460e084015260088201549260018060a01b03841661010082015260ff8460a01c1660048110156105cc57600e6136ae9460ff600197610dd39461012087015260a81c16151561014085015261055a600982016147dc565b9290506135ee565b50600d54821115613555565b346102fc5760203660031901126102fc5760206136e0600435614a91565b604051908152f35b346102fc5760403660031901126102fc57613701614349565b600435600052600c60205260406000209060018060a01b03166000526020526020604060002054604051908152f35b346102fc5760403660031901126102fc57613749614375565b6001600160a01b03166000908152600560205260409020805460243591908210156102fc5760209161377a916144f4565b90549060031b1c604051908152f35b346102fc5760203660031901126102fc5760043560005260026020526040600020805460018201549160028101549060038101546004820154600583015460068401546007850154600886015491600a87016137e490614402565b936137f1600b8901614402565b956137fe600c8a01614402565b9761380b600d8b01614402565b99600e0161381890614402565b9a6040519d8e809e81526020015260408d015260608c015260808b015260a08a015260c089015260e0880152600160a01b60019003811661010088015261012087018160a01c60ff169061386b916144a6565b60a81c60ff161515610140870152610160860161020090526102008601613891916144b3565b8581036101808701526138a3916144b3565b8481036101a08601526138b5916144b3565b8381036101c08501526138c7916144b3565b8281036101e08401526105c8916144b3565b346102fc5760603660031901126102fc576004356024356138f861435f565b91613901614cca565b806000526002602052604060002092600884019361392f60ff86546107e060018060a01b03821633146149bd565b8260005260016020526139468460406000206146e5565b50916002830190815461395c60ff821615614a45565b856000526009602052604060002060018060a01b03831660005260205260016040600020549501938454809610613ab157613a4195602094600160059460ff19161790558760005260098552604060002060018060a01b03851660005285526139cb6040600020918254614a84565b905584546000888152600a865260408082206001600160a01b038716835287529020805490916139fa91614a84565b905501613a078154614785565b90559554825460405163a9059cbb60e01b81526001600160a01b039283166004820152602481019190915296169592839081906044820190565b03816000895af1908115610c35577f0d11c7324995ca828941e0ad466be992df3a15ac5a9ae444745353abfd10ad3292602092613a96575b5054604051908152a460016000805160206152a483398151915255005b613aac90833d8511610c2e57610c2181836143e1565b613a79565b60405162461bcd60e51b815260206004820152601860248201527f496e73756666696369656e7420746f6b656e2066756e647300000000000000006044820152606490fd5b346102fc5760603660031901126102fc57600435613b12614349565b90604435613b2560ff6012541615614844565b613b2d614cca565b816000526003602052613b4760ff60406000205416614885565b816000526002602052604060002091600883019360ff855460a01c1660048110156105cc576001613b7891146148d1565b613b876002850154421061491d565b6001600160a01b031660008181526007602052604090205490929060ff1615613fb35781600052600860205260406000208360005260205260ff6040600020541615613f62576040516323b872dd60e01b8152336004820152306024820152604481018290526020816064816000885af18015610c3557613c0f91600091613f435750614979565b8160005260096020526040600020836000526020526040600020613c34828254614c36565b905581600052600a6020526040600020836000526020526040600020613c5b828254614c36565b905560008281526020818152604080832033845290915290208054613c81908390614c36565b9055600082815260146020908152604080832033845290915290205460ff1615613f1a575b600082815260026020908152604080832060070180546001019055828252808320338452825280832054858452600f909252909120548111613eea575b5082604051828152837fef93377c4bc923ec37e393cc4f21198f90f74df5908ced5585c4d4d0ab30a71560203393a460405190815282602082015260006040820152817fc0d2dcefa652289d410a90d1e74f5483b1fe1f34f334a1dd364d282f66e1cbd060603393a360ff845460a81c16613d6c5760016000805160206152a483398151915255005b8060005260016020526005604060002093019081545b8454811015613edf57613d9581866146e5565b509060028201805460ff81161580613eb8575b15613ea55760ff1916600190811790915587549201805460405163a9059cbb60e01b81526001600160a01b03909416600485015260248401529160208160448160008a5af18015610c3557847f0d11c7324995ca828941e0ad466be992df3a15ac5a9ae444745353abfd10ad3260206001968a958795613e8a575b5080548460005260098352613e486040806000206000908a8252865220918254614a84565b9055805484600052600a8352613e6e6040806000206000908a8252865220918254614a84565b9055613e7a8a54614785565b8a5554604051908152a401613d82565b613ea090833d8111610c2e57610c2181836143e1565b613e23565b5050505050505050505b80808080610af0565b50846000526009602052604080600020600090898252602052205460018501541115613da8565b505050505050613eaf565b6000838152600f6020908152604080832093909355600e90522080546001600160a01b0319163317905585613ce3565b60008281526014602090815260408083203384529091529020805460ff19166001179055613ca6565b613f5c915060203d602011610c2e57610c2181836143e1565b87611975565b60405162461bcd60e51b815260206004820152602360248201527f546f6b656e206e6f7420616363657074656420627920746869732063616d706160448201526234b3b760e91b6064820152608490fd5b60405162461bcd60e51b8152602060048201526013602482015272151bdad95b881b9bdd081cdd5c1c1bdc9d1959606a1b6044820152606490fd5b346102fc5760003660031901126102fc576020600d54604051908152f35b346102fc5760003660031901126102fc576000600d549060058202828104600514831517156141275761403e906147aa565b91815b81811061409c575050614053816147aa565b9160005b82811061407457604051602080825281906105c89082018761430c565b6001906001600160a01b036140898285614830565b51166140958287614830565b5201614057565b918260009492945260026020526140b960096040600020016147dc565b60005b8151811015614118576001600160a01b036140d78284614830565b511680600052600760205260ff604060002054166140f9575b506001016140bc565b836141119161410b6001949688614830565b52614785565b92906140f0565b50509160019093919301614041565b634e487b7160e01b82526011600452602482fd5b346102fc5760203660031901126102fc5760043563ffffffff60e01b81168091036102fc57602090637965db0b60e01b8114908115614180575b506040519015158152f35b6301ffc9a760e01b14905082614175565b346102fc5760203660031901126102fc57600435600081815260116020908152604080832033845290915290205460ff166142d75760008181526011602090815260408083203384528252808320805460ff191660011790558383526010909152902080546141ff90614785565b9055806000526010602052604060002054604051908152817f3ae2f909ac3bbb7fc64fce737db652fb059ebb23580805f68fa003466fd004cd60203393a380600052601060205260646040600020541015806142ac575b61425c57005b600081815260026020908152604091829020600801805460ff60a01b1916600360a01b17905590519182527f828635a891091ed676512ab0ab2e966391437a035beb146b02cb74cb841d128b91a1005b5080600052600260205260ff60086040600020015460a01c1660048110156105cc5760031415614256565b60405162461bcd60e51b815260206004820152600d60248201526c105b1c9958591e481d9bdd1959609a1b6044820152606490fd5b906020808351928381520192019060005b81811061432a5750505090565b82516001600160a01b031684526020938401939092019160010161431d565b602435906001600160a01b03821682036102fc57565b604435906001600160a01b03821682036102fc57565b600435906001600160a01b03821682036102fc57565b90600182811c921680156143bb575b60208310146143a557565b634e487b7160e01b600052602260045260246000fd5b91607f169161439a565b61022081019081106001600160401b03821117612dd557604052565b90601f801991011681019081106001600160401b03821117612dd557604052565b90604051918260008254926144168461438b565b8084529360018116908115614484575060011461443d575b5061443b925003836143e1565b565b90506000929192526020600020906000915b81831061446857505090602061443b928201013861442e565b602091935080600191548385890101520191019091849261444f565b90506020925061443b94915060ff191682840152151560051b8201013861442e565b9060048210156105cc5752565b919082519283825260005b8481106144df575050826000602080949584010152601f8019910116010190565b806020809284010151828286010152016144be565b805482101561450c5760005260206000200190600090565b634e487b7160e01b600052603260045260246000fd5b60409060031901126102fc576004359060243590565b919091610220830192815181526020820151602082015260408201516040820152606082015160608201526080820151608082015260a082015160a082015260c082015160c082015260e082015160e082015260018060a01b03610100830151166101008201526145b36101208301516101208301906144a6565b61014082015115156101408201526101608201519361022061016083015284518091526020610240830195019060005b8181106146665750505061020061465161463d61462961461561466397986101808801518782036101808901526144b3565b6101a08701518682036101a08801526144b3565b6101c08601518582036101c08701526144b3565b6101e08501518482036101e08601526144b3565b920151906102008184039101526144b3565b90565b82516001600160a01b03168752602096870196909201916001016145e3565b602081016020825282518091526040820191602060408360051b8301019401926000915b8383106146b857505050505090565b90919293946020806146d6600193603f198682030187528951614538565b970193019301919392906146a9565b805482101561450c576000526003602060002091020190600090565b6001600160401b038111612dd557601f01601f191660200190565b92919261472882614701565b9161473660405193846143e1565b8294818452818301116102fc578281602093846000960137010152565b9080601f830112156102fc578160206146639335910161471c565b6001600160401b038111612dd55760051b60200190565b60001981146147945760010190565b634e487b7160e01b600052601160045260246000fd5b906147b48261476e565b6147c160405191826143e1565b82815280926147d2601f199161476e565b0190602036910137565b906040519182815491828252602082019060005260206000209260005b81811061480e57505061443b925003836143e1565b84546001600160a01b03168352600194850194879450602090930192016147f9565b805182101561450c5760209160051b010190565b1561484b57565b60405162461bcd60e51b815260206004820152601260248201527110dbdb9d1c9858dd081a5cc81c185d5cd95960721b6044820152606490fd5b1561488c57565b60405162461bcd60e51b815260206004820152601860248201527f43616d706169676e20646f6573206e6f742065786973742e00000000000000006044820152606490fd5b156148d857565b60405162461bcd60e51b815260206004820152601760248201527f43616d706169676e206973206e6f74206163746976652e0000000000000000006044820152606490fd5b1561492457565b60405162461bcd60e51b815260206004820152601560248201527421b0b6b830b4b3b7103430b99032bc3834b932b21760591b6044820152606490fd5b908160209103126102fc575180151581036102fc5790565b1561498057565b60405162461bcd60e51b8152602060048201526015602482015274151bdad95b881d1c985b9cd9995c8819985a5b1959605a1b6044820152606490fd5b156149c457565b60405162461bcd60e51b81526020600482015260146024820152734f6e6c79206f776e65722063616e20636c61696d60601b6044820152606490fd5b15614a0757565b60405162461bcd60e51b81526020600482015260166024820152752737ba1030b71032b9b1b937bb9031b0b6b830b4b3b760511b6044820152606490fd5b15614a4c57565b60405162461bcd60e51b815260206004820152601060248201526f105b1c9958591e481c995b19585cd95960821b6044820152606490fd5b9190820391821161479457565b60005260008051602061528483398151915260205260016040600020015490565b15614ab957565b60405162461bcd60e51b815260206004820152600d60248201526c496e76616c69642072616e676560981b6044820152606490fd5b60405190614afb826143c5565b60606102008360008152600060208201526000604082015260008382015260006080820152600060a0820152600060c0820152600060e08201526000610100820152600061012082015260006101408201528261016082015282610180820152826101a0820152826101c0820152826101e08201520152565b90614b7e8261476e565b614b8b60405191826143e1565b8281528092614b9c601f199161476e565b019060005b828110614bad57505050565b602090614bb8614aee565b82828501015201614ba1565b15614bcb57565b60405162461bcd60e51b81526020600482015260136024820152724e6f20726566756e6420617661696c61626c6560681b6044820152606490fd5b3d15614c31573d90614c1782614701565b91614c2560405193846143e1565b82523d6000602084013e565b606090565b9190820180921161479457565b15614c4a57565b60405162461bcd60e51b815260206004820152601760248201527f4d696c6573746f6e65207061796f7574206661696c65640000000000000000006044820152606490fd5b15614c9657565b60405162461bcd60e51b815260206004820152600c60248201526b4d697373696e6720726f6c6560a01b6044820152606490fd5b60026000805160206152a48339815191525414614cf55760026000805160206152a483398151915255565b633ee5aeb560e01b60005260046000fd5b614d0e615082565b6001600160a01b0381166000908152600080516020615224833981519152602052604090205460ff1615614d3f5750565b63e2517d3f60e01b60009081526001600160a01b03919091166004527fa49807205ce4d355092ef5a8a18f56e8913cf4a201fbe287825b095693c21775602452604490fd5b614d8c615082565b81600052600080516020615284833981519152602052604060002060018060a01b03821660005260205260ff6040600020541615614dc8575050565b63e2517d3f60e01b60005260018060a01b031660045260245260446000fd5b6001600160a01b03811660009081527fb7db2dd08fcb62d0c9e08c51941cae53c267786a0b75803fb7960902fc8ef97d602052604090205460ff16614e95576001600160a01b0381811660009081527fb7db2dd08fcb62d0c9e08c51941cae53c267786a0b75803fb7960902fc8ef97d60205260409020805460ff19166001179055614e71615082565b16906001600160a01b031660006000805160206151e48339815191528180a4600190565b50600090565b6001600160a01b0381166000908152600080516020615224833981519152602052604090205460ff16614e95576001600160a01b03818116600090815260008051602061522483398151915260205260409020805460ff19166001179055614f01615082565b16906001600160a01b03167fa49807205ce4d355092ef5a8a18f56e8913cf4a201fbe287825b095693c217756000805160206151e4833981519152600080a4600190565b6001600160a01b0381166000908152600080516020615264833981519152602052604090205460ff16614e95576001600160a01b03818116600090815260008051602061526483398151915260205260409020805460ff19166001179055614fab615082565b16906001600160a01b03166000805160206152048339815191526000805160206151e4833981519152600080a4600190565b6000818152600080516020615284833981519152602090815260408083206001600160a01b038616845290915290205460ff1661507b576000818152600080516020615284833981519152602090815260408083206001600160a01b0386811685529252909120805460ff19166001179055615057615082565b16916001600160a01b0316906000805160206151e4833981519152600080a4600190565b5050600090565b604754336001600160a01b03909116036150a25736601319013560601c90565b3390565b6000818152600080516020615284833981519152602090815260408083206001600160a01b038616845290915290205460ff161561507b576000818152600080516020615284833981519152602090815260408083206001600160a01b0386811685529252909120805460ff1916905561511e615082565b16916001600160a01b0316907ff6391f5c32d9c69d2a47ea670b442974b53935d1edc7fd64eb21e047a839171b600080a4600190565b60ff6000805160206152c48339815191525460401c161561517157565b631afcd79f60e31b60005260046000fd5b906151a8575080511561519757805190602001fd5b63d6bda27560e01b60005260046000fd5b815115806151da575b6151b9575090565b639996b31560e01b60009081526001600160a01b0391909116600452602490fd5b50803b156151b156fe2f8788117e7eff1d82e926ec794901d17c78024a50270940304540a733656f0d3b5d4cc60d3ec3516ee8ae083bd60934f6eb2a6c54b1229985c41bfb092b2603b16e88c42fd4e48df2dd6a2eabd6bc9aec654ec170056b470819f8892cc6431c360894a13ba1a3210667c828492db98dca3e2076cc3735a920a3ca505d382bbc349fd74217c063f9853c0afe6767003c31cb4e1a178d2a1f85ea570a54b8a4e902dd7bc7dec4dceedda775e58dd541e08a116c6c53815c0bd028192f7b6268009b779b17422d0df92223018b32b4d1fa46e071723d6817e2486d003becc55f00f0c57e16840df040f15088dc2f81fe391c3923bec73e23a9662efc9c229c6a00a26469706673582212200f7a23b841324ebe8bee40e56404f74e4f412ca773ae6dfaa932a0571a4daf4464736f6c634300081c0033",
          "opcodes": "PUSH1 0xA0 DUP1 PUSH1 0x40 MSTORE CALLVALUE PUSH1 0x2E JUMPI ADDRESS PUSH1 0x80 MSTORE PUSH1 0x0 PUSH1 0xD SSTORE PUSH2 0x5319 SWAP1 DUP2 PUSH2 0x34 DUP3 CODECOPY PUSH1 0x80 MLOAD DUP2 DUP2 DUP2 PUSH2 0x1F23 ADD MSTORE PUSH2 0x1FC8 ADD MSTORE RETURN JUMPDEST PUSH1 0x0 DUP1 REVERT INVALID PUSH1 0x80 PUSH1 0x40 MSTORE PUSH1 0x4 CALLDATASIZE LT ISZERO PUSH2 0x10 JUMPI JUMPDEST STOP JUMPDEST PUSH1 0x0 CALLDATALOAD PUSH1 0xE0 SHR DUP1 PUSH4 0x1DDF070 EQ PUSH2 0x4191 JUMPI DUP1 PUSH4 0x1FFC9A7 EQ PUSH2 0x413B JUMPI DUP1 PUSH4 0x24ECE89 EQ PUSH2 0x400C JUMPI DUP1 PUSH4 0x7CA140D EQ PUSH2 0x3FEE JUMPI DUP1 PUSH4 0x11EB9498 EQ PUSH2 0x3AF6 JUMPI DUP1 PUSH4 0x1212D4F5 EQ PUSH2 0x38D9 JUMPI DUP1 PUSH4 0x141961BC EQ PUSH2 0x3789 JUMPI DUP1 PUSH4 0x19AC74BD EQ PUSH2 0x3730 JUMPI DUP1 PUSH4 0x1F74645E EQ PUSH2 0x36E8 JUMPI DUP1 PUSH4 0x248A9CA3 EQ PUSH2 0x36C2 JUMPI DUP1 PUSH4 0x249E659F EQ PUSH2 0x353D JUMPI DUP1 PUSH4 0x2F2FF15D EQ PUSH2 0x350C JUMPI DUP1 PUSH4 0x3178492A EQ PUSH2 0x349D JUMPI DUP1 PUSH4 0x325E84E6 EQ PUSH2 0x3455 JUMPI DUP1 PUSH4 0x353C5BD2 EQ PUSH2 0x28E0 JUMPI DUP1 PUSH4 0x36568ABE EQ PUSH2 0x288A JUMPI DUP1 PUSH4 0x3AA2D4B1 EQ PUSH2 0x26D5 JUMPI DUP1 PUSH4 0x3B594A68 EQ PUSH2 0x26A4 JUMPI DUP1 PUSH4 0x3BB1F28B EQ PUSH2 0x2584 JUMPI DUP1 PUSH4 0x3E019901 EQ PUSH2 0x2537 JUMPI DUP1 PUSH4 0x4138DE6A EQ PUSH2 0x22C9 JUMPI DUP1 PUSH4 0x43859632 EQ PUSH2 0x227C JUMPI DUP1 PUSH4 0x471C027C EQ PUSH2 0x2250 JUMPI DUP1 PUSH4 0x4AD04197 EQ PUSH2 0x2166 JUMPI DUP1 PUSH4 0x4F1EF286 EQ PUSH2 0x1F7A JUMPI DUP1 PUSH4 0x52D1902D EQ PUSH2 0x1F10 JUMPI DUP1 PUSH4 0x560184F8 EQ PUSH2 0x1BD7 JUMPI DUP1 PUSH4 0x564A7AC1 EQ PUSH2 0x1B8F JUMPI DUP1 PUSH4 0x5B7BAF64 EQ PUSH2 0x1A9D JUMPI DUP1 PUSH4 0x5C975ABB EQ PUSH2 0x1A7A JUMPI DUP1 PUSH4 0x5CBADDAB EQ PUSH2 0x1A46 JUMPI DUP1 PUSH4 0x5F259CFE EQ PUSH2 0x18F2 JUMPI DUP1 PUSH4 0x636A5467 EQ PUSH2 0x18D4 JUMPI DUP1 PUSH4 0x6BF8FD42 EQ PUSH2 0x17A4 JUMPI DUP1 PUSH4 0x6C713C8F EQ PUSH2 0x1287 JUMPI DUP1 PUSH4 0x6C9016CE EQ PUSH2 0x1757 JUMPI DUP1 PUSH4 0x75B238FC EQ PUSH2 0x171C JUMPI DUP1 PUSH4 0x7C0971FD EQ PUSH2 0x16C1 JUMPI DUP1 PUSH4 0x7DA0A877 EQ PUSH2 0x1698 JUMPI DUP1 PUSH4 0x7ECA30FE EQ PUSH2 0x1527 JUMPI DUP1 PUSH4 0x8129FC1C EQ PUSH2 0x13A5 JUMPI DUP1 PUSH4 0x8AAA2284 EQ PUSH2 0x12C1 JUMPI DUP1 PUSH4 0x8AAB2C7E EQ PUSH2 0x1287 JUMPI DUP1 PUSH4 0x8D9ED5F9 EQ PUSH2 0x123F JUMPI DUP1 PUSH4 0x91D14854 EQ PUSH2 0x11E5 JUMPI DUP1 PUSH4 0x95E60F46 EQ PUSH2 0x103F JUMPI DUP1 PUSH4 0x96114C3F EQ PUSH2 0x1013 JUMPI DUP1 PUSH4 0xA1E5084C EQ PUSH2 0xE95 JUMPI DUP1 PUSH4 0xA217FDDF EQ PUSH2 0xE79 JUMPI DUP1 PUSH4 0xAD3CB1CC EQ PUSH2 0xE32 JUMPI DUP1 PUSH4 0xB6531458 EQ PUSH2 0xC67 JUMPI DUP1 PUSH4 0xBF3EC80C EQ PUSH2 0xA1B JUMPI DUP1 PUSH4 0xC0A6026C EQ PUSH2 0x905 JUMPI DUP1 PUSH4 0xC266AEF7 EQ PUSH2 0x79A JUMPI DUP1 PUSH4 0xC4AE3168 EQ PUSH2 0x6F1 JUMPI DUP1 PUSH4 0xC59D4847 EQ PUSH2 0x6CC JUMPI DUP1 PUSH4 0xD547741F EQ PUSH2 0x696 JUMPI DUP1 PUSH4 0xDA742228 EQ PUSH2 0x62F JUMPI DUP1 PUSH4 0xDB9FC9F7 EQ PUSH2 0x5E2 JUMPI DUP1 PUSH4 0xE6FFCAA1 EQ PUSH2 0x470 JUMPI DUP1 PUSH4 0xE744092E EQ PUSH2 0x431 JUMPI DUP1 PUSH4 0xE9C26518 EQ PUSH2 0x408 JUMPI DUP1 PUSH4 0xF0F89EEA EQ PUSH2 0x3EA JUMPI DUP1 PUSH4 0xF52CB29B EQ PUSH2 0x301 JUMPI PUSH4 0xFF367AF4 SUB PUSH2 0xE JUMPI CALLVALUE PUSH2 0x2FC JUMPI PUSH1 0x0 CALLDATASIZE PUSH1 0x3 NOT ADD SLT PUSH2 0x2FC JUMPI PUSH1 0x20 PUSH1 0x40 MLOAD PUSH1 0x64 DUP2 MSTORE RETURN JUMPDEST PUSH1 0x0 DUP1 REVERT JUMPDEST CALLVALUE PUSH2 0x2FC JUMPI PUSH1 0x20 CALLDATASIZE PUSH1 0x3 NOT ADD SLT PUSH2 0x2FC JUMPI CALLER PUSH1 0x0 SWAP1 DUP2 MSTORE PUSH1 0x0 DUP1 MLOAD PUSH1 0x20 PUSH2 0x5224 DUP4 CODECOPY DUP2 MLOAD SWAP2 MSTORE PUSH1 0x20 SWAP1 DUP2 MSTORE PUSH1 0x40 SWAP1 SWAP2 KECCAK256 SLOAD PUSH32 0x828635A891091ED676512AB0AB2E966391437A035BEB146B02CB74CB841D128B SWAP2 SWAP1 PUSH1 0x4 CALLDATALOAD SWAP1 PUSH1 0xFF AND DUP1 ISZERO PUSH2 0x3AF JUMPI JUMPDEST PUSH2 0x36C SWAP1 PUSH2 0x4C8F JUMP JUMPDEST DUP1 PUSH1 0x0 MSTORE PUSH1 0x3 DUP3 MSTORE PUSH2 0x385 PUSH1 0xFF PUSH1 0x40 PUSH1 0x0 KECCAK256 SLOAD AND PUSH2 0x4885 JUMP JUMPDEST PUSH1 0x0 DUP2 DUP2 MSTORE PUSH1 0x2 DUP4 MSTORE PUSH1 0x40 SWAP1 DUP2 SWAP1 KECCAK256 PUSH1 0x8 ADD DUP1 SLOAD PUSH1 0xFF PUSH1 0xA0 SHL NOT AND PUSH1 0x3 PUSH1 0xA0 SHL OR SWAP1 SSTORE MLOAD SWAP1 DUP2 MSTORE LOG1 STOP JUMPDEST POP PUSH1 0x0 DUP1 MLOAD PUSH1 0x20 PUSH2 0x5204 DUP4 CODECOPY DUP2 MLOAD SWAP2 MSTORE PUSH1 0x0 SWAP1 DUP2 MSTORE PUSH1 0x0 DUP1 MLOAD PUSH1 0x20 PUSH2 0x5284 DUP4 CODECOPY DUP2 MLOAD SWAP2 MSTORE DUP4 MSTORE PUSH1 0x40 DUP1 DUP3 KECCAK256 CALLER DUP4 MSTORE DUP5 MSTORE SWAP1 KECCAK256 SLOAD PUSH1 0xFF AND PUSH2 0x363 JUMP JUMPDEST CALLVALUE PUSH2 0x2FC JUMPI PUSH1 0x0 CALLDATASIZE PUSH1 0x3 NOT ADD SLT PUSH2 0x2FC JUMPI PUSH1 0x20 PUSH1 0x6 SLOAD PUSH1 0x40 MLOAD SWAP1 DUP2 MSTORE RETURN JUMPDEST CALLVALUE PUSH2 0x2FC JUMPI PUSH1 0x0 CALLDATASIZE PUSH1 0x3 NOT ADD SLT PUSH2 0x2FC JUMPI PUSH1 0x20 PUSH1 0x40 MLOAD PUSH1 0x0 DUP1 MLOAD PUSH1 0x20 PUSH2 0x5204 DUP4 CODECOPY DUP2 MLOAD SWAP2 MSTORE DUP2 MSTORE RETURN JUMPDEST CALLVALUE PUSH2 0x2FC JUMPI PUSH1 0x20 CALLDATASIZE PUSH1 0x3 NOT ADD SLT PUSH2 0x2FC JUMPI PUSH1 0x1 PUSH1 0x1 PUSH1 0xA0 SHL SUB PUSH2 0x452 PUSH2 0x4375 JUMP JUMPDEST AND PUSH1 0x0 MSTORE PUSH1 0x7 PUSH1 0x20 MSTORE PUSH1 0x20 PUSH1 0xFF PUSH1 0x40 PUSH1 0x0 KECCAK256 SLOAD AND PUSH1 0x40 MLOAD SWAP1 ISZERO ISZERO DUP2 MSTORE RETURN JUMPDEST CALLVALUE PUSH2 0x2FC JUMPI PUSH1 0x20 CALLDATASIZE PUSH1 0x3 NOT ADD SLT PUSH2 0x2FC JUMPI PUSH1 0x4 CALLDATALOAD PUSH2 0x48C PUSH2 0x4AEE JUMP JUMPDEST POP DUP1 PUSH1 0x0 MSTORE PUSH1 0x3 PUSH1 0x20 MSTORE PUSH2 0x4A7 PUSH1 0xFF PUSH1 0x40 PUSH1 0x0 KECCAK256 SLOAD AND PUSH2 0x4885 JUMP JUMPDEST PUSH1 0x0 MSTORE PUSH1 0x2 PUSH1 0x20 MSTORE PUSH1 0x40 PUSH1 0x0 KECCAK256 PUSH1 0x40 MLOAD PUSH2 0x4C0 DUP2 PUSH2 0x43C5 JUMP JUMPDEST DUP2 SLOAD DUP2 MSTORE PUSH1 0x1 DUP3 ADD SLOAD PUSH1 0x20 DUP3 ADD MSTORE PUSH1 0x2 DUP3 ADD SLOAD PUSH1 0x40 DUP3 ADD MSTORE PUSH1 0x3 DUP3 ADD SLOAD PUSH1 0x60 DUP3 ADD MSTORE PUSH1 0x4 DUP3 ADD SLOAD PUSH1 0x80 DUP3 ADD MSTORE PUSH1 0x5 DUP3 ADD SLOAD PUSH1 0xA0 DUP3 ADD MSTORE PUSH1 0x6 DUP3 ADD SLOAD PUSH1 0xC0 DUP3 ADD MSTORE PUSH1 0x7 DUP3 ADD SLOAD PUSH1 0xE0 DUP3 ADD MSTORE PUSH1 0x8 DUP3 ADD SLOAD PUSH1 0x1 DUP1 PUSH1 0xA0 SHL SUB DUP2 AND PUSH2 0x100 DUP4 ADD MSTORE PUSH1 0xFF DUP2 PUSH1 0xA0 SHR AND SWAP1 PUSH1 0x4 DUP3 LT ISZERO PUSH2 0x5CC JUMPI PUSH2 0x5C8 SWAP4 PUSH1 0xFF PUSH1 0xE SWAP3 PUSH2 0x5AE SWAP5 PUSH2 0x120 DUP8 ADD MSTORE PUSH1 0xA8 SHR AND ISZERO ISZERO PUSH2 0x140 DUP6 ADD MSTORE PUSH2 0x55A PUSH1 0x9 DUP3 ADD PUSH2 0x47DC JUMP JUMPDEST PUSH2 0x160 DUP6 ADD MSTORE PUSH2 0x56C PUSH1 0xA DUP3 ADD PUSH2 0x4402 JUMP JUMPDEST PUSH2 0x180 DUP6 ADD MSTORE PUSH2 0x57E PUSH1 0xB DUP3 ADD PUSH2 0x4402 JUMP JUMPDEST PUSH2 0x1A0 DUP6 ADD MSTORE PUSH2 0x590 PUSH1 0xC DUP3 ADD PUSH2 0x4402 JUMP JUMPDEST PUSH2 0x1C0 DUP6 ADD MSTORE PUSH2 0x5A2 PUSH1 0xD DUP3 ADD PUSH2 0x4402 JUMP JUMPDEST PUSH2 0x1E0 DUP6 ADD MSTORE ADD PUSH2 0x4402 JUMP JUMPDEST PUSH2 0x200 DUP3 ADD MSTORE PUSH1 0x40 MLOAD SWAP2 DUP3 SWAP2 PUSH1 0x20 DUP4 MSTORE PUSH1 0x20 DUP4 ADD SWAP1 PUSH2 0x4538 JUMP JUMPDEST SUB SWAP1 RETURN JUMPDEST PUSH4 0x4E487B71 PUSH1 0xE0 SHL PUSH1 0x0 MSTORE PUSH1 0x21 PUSH1 0x4 MSTORE PUSH1 0x24 PUSH1 0x0 REVERT JUMPDEST CALLVALUE PUSH2 0x2FC JUMPI PUSH1 0x40 CALLDATASIZE PUSH1 0x3 NOT ADD SLT PUSH2 0x2FC JUMPI PUSH2 0x5FB PUSH2 0x4349 JUMP JUMPDEST PUSH1 0x4 CALLDATALOAD PUSH1 0x0 MSTORE PUSH1 0x8 PUSH1 0x20 MSTORE PUSH1 0x40 PUSH1 0x0 KECCAK256 SWAP1 PUSH1 0x1 DUP1 PUSH1 0xA0 SHL SUB AND PUSH1 0x0 MSTORE PUSH1 0x20 MSTORE PUSH1 0x20 PUSH1 0xFF PUSH1 0x40 PUSH1 0x0 KECCAK256 SLOAD AND PUSH1 0x40 MLOAD SWAP1 ISZERO ISZERO DUP2 MSTORE RETURN JUMPDEST CALLVALUE PUSH2 0x2FC JUMPI PUSH1 0x20 CALLDATASIZE PUSH1 0x3 NOT ADD SLT PUSH2 0x2FC JUMPI PUSH2 0x648 PUSH2 0x4375 JUMP JUMPDEST PUSH2 0x650 PUSH2 0x4D06 JUMP JUMPDEST PUSH1 0x47 DUP1 SLOAD PUSH1 0x1 PUSH1 0x1 PUSH1 0xA0 SHL SUB NOT AND PUSH1 0x1 PUSH1 0x1 PUSH1 0xA0 SHL SUB SWAP3 SWAP1 SWAP3 AND SWAP2 DUP3 OR SWAP1 SSTORE PUSH32 0xA4388ECC389B1390354AE0C65A856C0D7DD4FB648419F5D3AC0B99E38F46FD11 PUSH1 0x0 DUP1 LOG2 STOP JUMPDEST CALLVALUE PUSH2 0x2FC JUMPI PUSH1 0x40 CALLDATASIZE PUSH1 0x3 NOT ADD SLT PUSH2 0x2FC JUMPI PUSH2 0xE PUSH1 0x4 CALLDATALOAD PUSH2 0x6B5 PUSH2 0x4349 JUMP JUMPDEST SWAP1 PUSH2 0x6C7 PUSH2 0x6C2 DUP3 PUSH2 0x4A91 JUMP JUMPDEST PUSH2 0x4D84 JUMP JUMPDEST PUSH2 0x50A6 JUMP JUMPDEST CALLVALUE PUSH2 0x2FC JUMPI PUSH1 0x0 CALLDATASIZE PUSH1 0x3 NOT ADD SLT PUSH2 0x2FC JUMPI PUSH1 0x40 PUSH1 0xD SLOAD PUSH1 0x6 SLOAD DUP3 MLOAD SWAP2 DUP3 MSTORE PUSH1 0x20 DUP3 ADD MSTORE RETURN JUMPDEST CALLVALUE PUSH2 0x2FC JUMPI PUSH1 0x0 CALLDATASIZE PUSH1 0x3 NOT ADD SLT PUSH2 0x2FC JUMPI CALLER PUSH1 0x0 SWAP1 DUP2 MSTORE PUSH1 0x0 DUP1 MLOAD PUSH1 0x20 PUSH2 0x5224 DUP4 CODECOPY DUP2 MLOAD SWAP2 MSTORE PUSH1 0x20 MSTORE PUSH1 0x40 SWAP1 KECCAK256 SLOAD PUSH1 0xFF AND DUP1 ISZERO PUSH2 0x774 JUMPI JUMPDEST PUSH2 0x732 SWAP1 PUSH2 0x4C8F JUMP JUMPDEST PUSH32 0xDA88B5DFAAC55549D4DDDDD43A09D4B911233DF354952EBC9AC2041AA1853436 PUSH1 0x20 PUSH1 0x12 SLOAD PUSH1 0xFF DUP1 DUP3 AND ISZERO AND DUP1 SWAP2 PUSH1 0xFF NOT AND OR PUSH1 0x12 SSTORE PUSH1 0x40 MLOAD SWAP1 ISZERO ISZERO DUP2 MSTORE LOG1 STOP JUMPDEST POP CALLER PUSH1 0x0 SWAP1 DUP2 MSTORE PUSH1 0x0 DUP1 MLOAD PUSH1 0x20 PUSH2 0x5264 DUP4 CODECOPY DUP2 MLOAD SWAP2 MSTORE PUSH1 0x20 MSTORE PUSH1 0x40 SWAP1 KECCAK256 SLOAD PUSH1 0xFF AND PUSH2 0x729 JUMP JUMPDEST CALLVALUE PUSH2 0x2FC JUMPI PUSH2 0x7A8 CALLDATASIZE PUSH2 0x4522 JUMP JUMPDEST SWAP1 PUSH2 0x7B1 PUSH2 0x4CCA JUMP JUMPDEST PUSH1 0x0 DUP2 DUP2 MSTORE PUSH1 0x2 PUSH1 0x20 MSTORE PUSH1 0x40 SWAP1 KECCAK256 PUSH1 0x8 DUP2 ADD DUP1 SLOAD PUSH2 0x7E9 SWAP1 PUSH1 0xFF SWAP1 PUSH2 0x7E0 CALLER PUSH1 0x1 PUSH1 0x1 PUSH1 0xA0 SHL SUB DUP4 AND EQ PUSH2 0x49BD JUMP JUMPDEST PUSH1 0xA8 SHR AND PUSH2 0x4A00 JUMP JUMPDEST DUP3 PUSH1 0x0 MSTORE PUSH1 0x1 PUSH1 0x20 MSTORE PUSH2 0x800 DUP5 PUSH1 0x40 PUSH1 0x0 KECCAK256 PUSH2 0x46E5 JUMP JUMPDEST POP SWAP2 PUSH1 0x2 DUP4 ADD DUP1 SLOAD SWAP2 PUSH2 0x816 PUSH1 0xFF DUP5 AND ISZERO PUSH2 0x4A45 JUMP JUMPDEST PUSH1 0x3 DUP2 ADD PUSH1 0x1 DUP2 SLOAD SWAP7 ADD SWAP4 DUP5 SLOAD DUP1 SWAP8 LT PUSH2 0x8CB JUMPI PUSH1 0x0 PUSH1 0x20 SWAP7 PUSH1 0x5 DUP3 SWAP6 DUP4 SWAP6 PUSH2 0x870 PUSH32 0xF7F51312954676ACD3EF3DA92D9CFD404E9AA38E628C180E066A02E54889F95 SWAP13 PUSH2 0x8AF SWAP11 PUSH1 0x1 DUP9 SWAP10 PUSH1 0xFF NOT AND OR SWAP1 SSTORE DUP3 SLOAD PUSH2 0x4A84 JUMP JUMPDEST SWAP1 SSTORE DUP9 SLOAD PUSH2 0x883 PUSH1 0x6 DUP4 ADD SWAP2 DUP3 SLOAD PUSH2 0x4A84 JUMP JUMPDEST SWAP1 SSTORE ADD PUSH2 0x890 DUP2 SLOAD PUSH2 0x4785 JUMP JUMPDEST SWAP1 SSTORE SLOAD DUP7 SLOAD SWAP1 PUSH1 0x1 PUSH1 0x1 PUSH1 0xA0 SHL SUB AND GAS CALL PUSH2 0x8A9 PUSH2 0x4C06 JUMP JUMPDEST POP PUSH2 0x4C43 JUMP JUMPDEST SLOAD PUSH1 0x40 MLOAD SWAP1 DUP2 MSTORE LOG3 PUSH1 0x1 PUSH1 0x0 DUP1 MLOAD PUSH1 0x20 PUSH2 0x52A4 DUP4 CODECOPY DUP2 MLOAD SWAP2 MSTORE SSTORE STOP JUMPDEST PUSH1 0x40 MLOAD PUSH3 0x461BCD PUSH1 0xE5 SHL DUP2 MSTORE PUSH1 0x20 PUSH1 0x4 DUP3 ADD MSTORE PUSH1 0x12 PUSH1 0x24 DUP3 ADD MSTORE PUSH18 0x496E73756666696369656E742066756E6473 PUSH1 0x70 SHL PUSH1 0x44 DUP3 ADD MSTORE PUSH1 0x64 SWAP1 REVERT JUMPDEST CALLVALUE PUSH2 0x2FC JUMPI PUSH1 0x20 CALLDATASIZE PUSH1 0x3 NOT ADD SLT PUSH2 0x2FC JUMPI PUSH1 0x4 CALLDATALOAD DUP1 PUSH1 0x0 MSTORE PUSH1 0x2 PUSH1 0x20 MSTORE PUSH1 0x40 PUSH1 0x0 KECCAK256 SWAP1 PUSH1 0x8 DUP3 ADD PUSH1 0xFF DUP2 SLOAD PUSH1 0xA0 SHR AND SWAP3 PUSH1 0x4 DUP5 LT ISZERO PUSH2 0x5CC JUMPI PUSH2 0x94A PUSH1 0x1 DUP6 EQ PUSH2 0x48D1 JUMP JUMPDEST PUSH1 0x2 PUSH1 0x0 SWAP5 EQ PUSH2 0x9D6 JUMPI PUSH1 0x1 PUSH1 0x3 DUP3 ADD SLOAD SWAP2 ADD SLOAD GT PUSH2 0x99B JUMPI DUP1 SLOAD PUSH1 0xFF PUSH1 0xA0 SHL NOT AND PUSH1 0x1 PUSH1 0xA1 SHL OR SWAP1 SSTORE PUSH32 0xBDEF6A2E3AA892961A2DAB48272F72F2BC1C7121EB1C0ED7E4A58E081C1E4BE0 DUP3 DUP1 LOG2 DUP1 RETURN JUMPDEST PUSH1 0x40 MLOAD PUSH3 0x461BCD PUSH1 0xE5 SHL DUP2 MSTORE PUSH1 0x20 PUSH1 0x4 DUP3 ADD MSTORE PUSH1 0x13 PUSH1 0x24 DUP3 ADD MSTORE PUSH19 0x2A30B933B2BA103737BA103CB2BA1036B2BA17 PUSH1 0x69 SHL PUSH1 0x44 DUP3 ADD MSTORE PUSH1 0x64 SWAP1 REVERT JUMPDEST PUSH1 0x40 MLOAD PUSH3 0x461BCD PUSH1 0xE5 SHL DUP2 MSTORE PUSH1 0x20 PUSH1 0x4 DUP3 ADD MSTORE PUSH1 0x1B PUSH1 0x24 DUP3 ADD MSTORE PUSH32 0x43616D706169676E20616C726561647920636F6D706C657465642E0000000000 PUSH1 0x44 DUP3 ADD MSTORE PUSH1 0x64 SWAP1 REVERT JUMPDEST CALLVALUE PUSH2 0x2FC JUMPI PUSH1 0x60 CALLDATASIZE PUSH1 0x3 NOT ADD SLT PUSH2 0x2FC JUMPI PUSH1 0x4 CALLDATALOAD PUSH1 0x1 PUSH1 0x1 PUSH1 0xA0 SHL SUB DUP2 AND DUP1 DUP3 SUB PUSH2 0x2FC JUMPI PUSH2 0xA48 PUSH2 0x4349 JUMP JUMPDEST SWAP1 PUSH1 0x44 CALLDATALOAD SWAP2 PUSH2 0xA55 PUSH2 0x4CCA JUMP JUMPDEST CALLER PUSH1 0x0 SWAP1 DUP2 MSTORE PUSH1 0x0 DUP1 MLOAD PUSH1 0x20 PUSH2 0x5224 DUP4 CODECOPY DUP2 MLOAD SWAP2 MSTORE PUSH1 0x20 MSTORE PUSH1 0x40 SWAP1 KECCAK256 SLOAD PUSH1 0xFF AND DUP1 ISZERO PUSH2 0xC41 JUMPI JUMPDEST PUSH2 0xA85 SWAP1 PUSH2 0x4C8F JUMP JUMPDEST PUSH1 0x1 PUSH1 0x1 PUSH1 0xA0 SHL SUB AND DUP1 PUSH2 0xB84 JUMPI POP SELFBALANCE DUP3 GT PUSH2 0xB3F JUMPI PUSH1 0x0 DUP1 DUP1 DUP5 DUP2 SWAP5 GAS CALL PUSH2 0xAAC PUSH2 0x4C06 JUMP JUMPDEST POP ISZERO PUSH2 0xB04 JUMPI PUSH1 0x40 DUP1 MLOAD PUSH1 0x1 PUSH1 0x1 PUSH1 0xA0 SHL SUB SWAP4 SWAP1 SWAP4 AND DUP4 MSTORE PUSH1 0x20 DUP4 ADD SWAP2 SWAP1 SWAP2 MSTORE PUSH32 0x41FDD680478135993BC53FB2FFAF9560951B57EF62FF6BADD02B61E018B4F17F SWAP2 LOG1 JUMPDEST PUSH1 0x1 PUSH1 0x0 DUP1 MLOAD PUSH1 0x20 PUSH2 0x52A4 DUP4 CODECOPY DUP2 MLOAD SWAP2 MSTORE SSTORE STOP JUMPDEST PUSH1 0x40 MLOAD PUSH3 0x461BCD PUSH1 0xE5 SHL DUP2 MSTORE PUSH1 0x20 PUSH1 0x4 DUP3 ADD MSTORE PUSH1 0x13 PUSH1 0x24 DUP3 ADD MSTORE PUSH19 0x115512081DDA5D1A191C985DC819985A5B1959 PUSH1 0x6A SHL PUSH1 0x44 DUP3 ADD MSTORE PUSH1 0x64 SWAP1 REVERT JUMPDEST PUSH1 0x40 MLOAD PUSH3 0x461BCD PUSH1 0xE5 SHL DUP2 MSTORE PUSH1 0x20 PUSH1 0x4 DUP3 ADD MSTORE PUSH1 0x18 PUSH1 0x24 DUP3 ADD MSTORE PUSH32 0x496E73756666696369656E74204554482062616C616E63650000000000000000 PUSH1 0x44 DUP3 ADD MSTORE PUSH1 0x64 SWAP1 REVERT JUMPDEST PUSH1 0x40 MLOAD PUSH4 0xA9059CBB PUSH1 0xE0 SHL DUP2 MSTORE PUSH1 0x1 PUSH1 0x1 PUSH1 0xA0 SHL SUB DUP6 AND PUSH1 0x4 DUP3 ADD MSTORE PUSH1 0x24 DUP2 ADD DUP5 SWAP1 MSTORE SWAP4 SWAP2 POP PUSH1 0x20 SWAP1 DUP5 SWAP1 PUSH1 0x44 SWAP1 DUP3 SWAP1 PUSH1 0x0 SWAP1 GAS CALL SWAP3 DUP4 ISZERO PUSH2 0xC35 JUMPI PUSH32 0x41FDD680478135993BC53FB2FFAF9560951B57EF62FF6BADD02B61E018B4F17F SWAP4 PUSH2 0xC08 JUMPI JUMPDEST POP PUSH1 0x40 DUP1 MLOAD PUSH1 0x1 PUSH1 0x1 PUSH1 0xA0 SHL SUB SWAP3 SWAP1 SWAP3 AND DUP3 MSTORE PUSH1 0x20 DUP3 ADD SWAP3 SWAP1 SWAP3 MSTORE LOG1 PUSH2 0xAF0 JUMP JUMPDEST PUSH2 0xC29 SWAP1 PUSH1 0x20 RETURNDATASIZE PUSH1 0x20 GT PUSH2 0xC2E JUMPI JUMPDEST PUSH2 0xC21 DUP2 DUP4 PUSH2 0x43E1 JUMP JUMPDEST DUP2 ADD SWAP1 PUSH2 0x4961 JUMP JUMPDEST PUSH2 0xBE7 JUMP JUMPDEST POP RETURNDATASIZE PUSH2 0xC17 JUMP JUMPDEST PUSH1 0x40 MLOAD RETURNDATASIZE PUSH1 0x0 DUP3 RETURNDATACOPY RETURNDATASIZE SWAP1 REVERT JUMPDEST POP CALLER PUSH1 0x0 SWAP1 DUP2 MSTORE PUSH1 0x0 DUP1 MLOAD PUSH1 0x20 PUSH2 0x5264 DUP4 CODECOPY DUP2 MLOAD SWAP2 MSTORE PUSH1 0x20 MSTORE PUSH1 0x40 SWAP1 KECCAK256 SLOAD PUSH1 0xFF AND PUSH2 0xA7C JUMP JUMPDEST CALLVALUE PUSH2 0x2FC JUMPI PUSH2 0xC75 CALLDATASIZE PUSH2 0x4522 JUMP JUMPDEST SWAP1 DUP1 DUP3 GT DUP1 PUSH2 0xE26 JUMPI JUMPDEST PUSH2 0xC88 SWAP1 PUSH2 0x4AB2 JUMP JUMPDEST PUSH2 0xC9A PUSH2 0xC95 DUP3 DUP5 PUSH2 0x4A84 JUMP JUMPDEST PUSH2 0x4B74 JUMP JUMPDEST SWAP2 PUSH1 0x0 SWAP2 JUMPDEST DUP2 DUP2 LT PUSH2 0xCF4 JUMPI POP POP PUSH2 0xCB1 DUP2 PUSH2 0x4B74 JUMP JUMPDEST SWAP2 PUSH1 0x0 JUMPDEST DUP3 DUP2 LT PUSH2 0xCCA JUMPI PUSH1 0x40 MLOAD DUP1 PUSH2 0x5C8 DUP7 DUP3 PUSH2 0x4685 JUMP JUMPDEST DUP1 PUSH2 0xCD7 PUSH1 0x1 SWAP3 DUP5 PUSH2 0x4830 JUMP JUMPDEST MLOAD PUSH2 0xCE2 DUP3 DUP8 PUSH2 0x4830 JUMP JUMPDEST MSTORE PUSH2 0xCED DUP2 DUP7 PUSH2 0x4830 JUMP JUMPDEST POP ADD PUSH2 0xCB5 JUMP JUMPDEST DUP1 PUSH1 0x0 MSTORE PUSH1 0x2 PUSH1 0x20 MSTORE TIMESTAMP PUSH1 0x2 PUSH1 0x40 PUSH1 0x0 KECCAK256 ADD SLOAD GT DUP1 PUSH2 0xDFC JUMPI JUMPDEST PUSH2 0xD1B JUMPI JUMPDEST PUSH1 0x1 ADD PUSH2 0xC9F JUMP JUMPDEST SWAP2 DUP3 PUSH1 0x0 MSTORE PUSH1 0x2 PUSH1 0x20 MSTORE PUSH1 0x40 PUSH1 0x0 KECCAK256 PUSH1 0x40 MLOAD SWAP2 PUSH2 0xD37 DUP4 PUSH2 0x43C5 JUMP JUMPDEST DUP2 SLOAD DUP4 MSTORE PUSH1 0x1 DUP3 ADD SLOAD PUSH1 0x20 DUP5 ADD MSTORE PUSH1 0x2 DUP3 ADD SLOAD PUSH1 0x40 DUP5 ADD MSTORE PUSH1 0x3 DUP3 ADD SLOAD PUSH1 0x60 DUP5 ADD MSTORE PUSH1 0x4 DUP3 ADD SLOAD PUSH1 0x80 DUP5 ADD MSTORE PUSH1 0x5 DUP3 ADD SLOAD PUSH1 0xA0 DUP5 ADD MSTORE PUSH1 0x6 DUP3 ADD SLOAD PUSH1 0xC0 DUP5 ADD MSTORE PUSH1 0x7 DUP3 ADD SLOAD PUSH1 0xE0 DUP5 ADD MSTORE PUSH1 0x8 DUP3 ADD SLOAD SWAP3 PUSH1 0x1 DUP1 PUSH1 0xA0 SHL SUB DUP5 AND PUSH2 0x100 DUP3 ADD MSTORE PUSH1 0xFF DUP5 PUSH1 0xA0 SHR AND PUSH1 0x4 DUP2 LT ISZERO PUSH2 0x5CC JUMPI PUSH1 0xE PUSH2 0xDF4 SWAP5 PUSH1 0xFF PUSH1 0x1 SWAP8 PUSH2 0xDD3 SWAP5 PUSH2 0x120 DUP8 ADD MSTORE PUSH1 0xA8 SHR AND ISZERO ISZERO PUSH2 0x140 DUP6 ADD MSTORE PUSH2 0x55A PUSH1 0x9 DUP3 ADD PUSH2 0x47DC JUMP JUMPDEST PUSH2 0x200 DUP3 ADD MSTORE PUSH2 0xDE3 DUP3 DUP9 PUSH2 0x4830 JUMP JUMPDEST MSTORE PUSH2 0xDEE DUP2 DUP8 PUSH2 0x4830 JUMP JUMPDEST POP PUSH2 0x4785 JUMP JUMPDEST SWAP3 SWAP1 POP PUSH2 0xD13 JUMP JUMPDEST POP DUP1 PUSH1 0x0 MSTORE PUSH1 0x2 PUSH1 0x20 MSTORE PUSH1 0xFF PUSH1 0x8 PUSH1 0x40 PUSH1 0x0 KECCAK256 ADD SLOAD PUSH1 0xA0 SHR AND PUSH1 0x4 DUP2 LT ISZERO PUSH2 0x5CC JUMPI PUSH1 0x1 EQ PUSH2 0xD0E JUMP JUMPDEST POP PUSH1 0xD SLOAD DUP3 GT ISZERO PUSH2 0xC7F JUMP JUMPDEST CALLVALUE PUSH2 0x2FC JUMPI PUSH1 0x0 CALLDATASIZE PUSH1 0x3 NOT ADD SLT PUSH2 0x2FC JUMPI PUSH2 0x5C8 PUSH1 0x40 DUP1 MLOAD SWAP1 PUSH2 0xE55 DUP2 DUP4 PUSH2 0x43E1 JUMP JUMPDEST PUSH1 0x5 DUP3 MSTORE PUSH5 0x352E302E3 PUSH1 0xDC SHL PUSH1 0x20 DUP4 ADD MSTORE MLOAD SWAP2 DUP3 SWAP2 PUSH1 0x20 DUP4 MSTORE PUSH1 0x20 DUP4 ADD SWAP1 PUSH2 0x44B3 JUMP JUMPDEST CALLVALUE PUSH2 0x2FC JUMPI PUSH1 0x0 CALLDATASIZE PUSH1 0x3 NOT ADD SLT PUSH2 0x2FC JUMPI PUSH1 0x20 PUSH1 0x40 MLOAD PUSH1 0x0 DUP2 MSTORE RETURN JUMPDEST CALLVALUE PUSH2 0x2FC JUMPI PUSH1 0x20 CALLDATASIZE PUSH1 0x3 NOT ADD SLT PUSH2 0x2FC JUMPI PUSH1 0x1 PUSH1 0x1 PUSH1 0xA0 SHL SUB PUSH2 0xEB6 PUSH2 0x4375 JUMP JUMPDEST AND PUSH1 0x0 MSTORE PUSH1 0x5 PUSH1 0x20 MSTORE PUSH1 0x40 PUSH1 0x0 KECCAK256 PUSH1 0x40 MLOAD DUP1 DUP3 PUSH1 0x20 DUP3 SWAP5 SLOAD SWAP4 DUP5 DUP2 MSTORE ADD SWAP1 PUSH1 0x0 MSTORE PUSH1 0x20 PUSH1 0x0 KECCAK256 SWAP3 PUSH1 0x0 JUMPDEST DUP2 DUP2 LT PUSH2 0xFFA JUMPI POP POP PUSH2 0xEF5 SWAP3 POP SUB DUP3 PUSH2 0x43E1 JUMP JUMPDEST PUSH2 0xEFF DUP2 MLOAD PUSH2 0x4B74 JUMP JUMPDEST SWAP1 PUSH1 0x0 JUMPDEST DUP2 MLOAD DUP2 LT ISZERO PUSH2 0xFEC JUMPI PUSH2 0xF16 DUP2 DUP4 PUSH2 0x4830 JUMP JUMPDEST MLOAD PUSH1 0x0 MSTORE PUSH1 0x2 PUSH1 0x20 MSTORE PUSH1 0x40 PUSH1 0x0 KECCAK256 SWAP1 PUSH1 0x40 MLOAD PUSH2 0xF31 DUP2 PUSH2 0x43C5 JUMP JUMPDEST DUP3 SLOAD DUP2 MSTORE PUSH1 0x1 DUP4 ADD SLOAD PUSH1 0x20 DUP3 ADD MSTORE PUSH1 0x2 DUP4 ADD SLOAD PUSH1 0x40 DUP3 ADD MSTORE PUSH1 0x3 DUP4 ADD SLOAD PUSH1 0x60 DUP3 ADD MSTORE PUSH1 0x4 DUP4 ADD SLOAD PUSH1 0x80 DUP3 ADD MSTORE PUSH1 0x5 DUP4 ADD SLOAD PUSH1 0xA0 DUP3 ADD MSTORE PUSH1 0x6 DUP4 ADD SLOAD PUSH1 0xC0 DUP3 ADD MSTORE PUSH1 0x7 DUP4 ADD SLOAD PUSH1 0xE0 DUP3 ADD MSTORE PUSH1 0x8 DUP4 ADD SLOAD PUSH1 0x1 DUP1 PUSH1 0xA0 SHL SUB DUP2 AND PUSH2 0x100 DUP4 ADD MSTORE PUSH1 0xFF DUP2 PUSH1 0xA0 SHR AND SWAP1 PUSH1 0x4 DUP3 LT ISZERO PUSH2 0x5CC JUMPI PUSH1 0x1 SWAP5 PUSH1 0xFF PUSH1 0xE SWAP3 PUSH2 0xFCA SWAP5 PUSH2 0x120 DUP8 ADD MSTORE PUSH1 0xA8 SHR AND ISZERO ISZERO PUSH2 0x140 DUP6 ADD MSTORE PUSH2 0x55A PUSH1 0x9 DUP3 ADD PUSH2 0x47DC JUMP JUMPDEST PUSH2 0x200 DUP3 ADD MSTORE PUSH2 0xFDA DUP3 DUP7 PUSH2 0x4830 JUMP JUMPDEST MSTORE PUSH2 0xFE5 DUP2 DUP6 PUSH2 0x4830 JUMP JUMPDEST POP ADD PUSH2 0xF03 JUMP JUMPDEST PUSH1 0x40 MLOAD DUP1 PUSH2 0x5C8 DUP6 DUP3 PUSH2 0x4685 JUMP JUMPDEST DUP5 SLOAD DUP4 MSTORE PUSH1 0x1 SWAP5 DUP6 ADD SWAP5 DUP7 SWAP5 POP PUSH1 0x20 SWAP1 SWAP4 ADD SWAP3 ADD PUSH2 0xEE0 JUMP JUMPDEST CALLVALUE PUSH2 0x2FC JUMPI PUSH1 0x20 CALLDATASIZE PUSH1 0x3 NOT ADD SLT PUSH2 0x2FC JUMPI PUSH1 0x4 CALLDATALOAD PUSH1 0x0 MSTORE PUSH1 0x10 PUSH1 0x20 MSTORE PUSH1 0x20 PUSH1 0x40 PUSH1 0x0 KECCAK256 SLOAD PUSH1 0x40 MLOAD SWAP1 DUP2 MSTORE RETURN JUMPDEST CALLVALUE PUSH2 0x2FC JUMPI PUSH2 0x104D CALLDATASIZE PUSH2 0x4522 JUMP JUMPDEST SWAP1 DUP1 DUP3 GT DUP1 PUSH2 0x11D9 JUMPI JUMPDEST PUSH2 0x1060 SWAP1 PUSH2 0x4AB2 JUMP JUMPDEST PUSH2 0x106D PUSH2 0xC95 DUP3 DUP5 PUSH2 0x4A84 JUMP JUMPDEST SWAP2 PUSH1 0x0 SWAP2 JUMPDEST DUP2 DUP2 LT PUSH2 0x10C7 JUMPI POP POP PUSH2 0x1084 DUP2 PUSH2 0x4B74 JUMP JUMPDEST SWAP2 PUSH1 0x0 JUMPDEST DUP3 DUP2 LT PUSH2 0x109D JUMPI PUSH1 0x40 MLOAD DUP1 PUSH2 0x5C8 DUP7 DUP3 PUSH2 0x4685 JUMP JUMPDEST DUP1 PUSH2 0x10AA PUSH1 0x1 SWAP3 DUP5 PUSH2 0x4830 JUMP JUMPDEST MLOAD PUSH2 0x10B5 DUP3 DUP8 PUSH2 0x4830 JUMP JUMPDEST MSTORE PUSH2 0x10C0 DUP2 DUP7 PUSH2 0x4830 JUMP JUMPDEST POP ADD PUSH2 0x1088 JUMP JUMPDEST DUP1 PUSH1 0x0 MSTORE PUSH1 0x2 PUSH1 0x20 MSTORE TIMESTAMP PUSH1 0x2 PUSH1 0x40 PUSH1 0x0 KECCAK256 ADD SLOAD GT ISZERO DUP1 PUSH2 0x11AF JUMPI JUMPDEST PUSH2 0x10EF JUMPI JUMPDEST PUSH1 0x1 ADD PUSH2 0x1072 JUMP JUMPDEST SWAP2 DUP3 PUSH1 0x0 MSTORE PUSH1 0x2 PUSH1 0x20 MSTORE PUSH1 0x40 PUSH1 0x0 KECCAK256 PUSH1 0x40 MLOAD SWAP2 PUSH2 0x110B DUP4 PUSH2 0x43C5 JUMP JUMPDEST DUP2 SLOAD DUP4 MSTORE PUSH1 0x1 DUP3 ADD SLOAD PUSH1 0x20 DUP5 ADD MSTORE PUSH1 0x2 DUP3 ADD SLOAD PUSH1 0x40 DUP5 ADD MSTORE PUSH1 0x3 DUP3 ADD SLOAD PUSH1 0x60 DUP5 ADD MSTORE PUSH1 0x4 DUP3 ADD SLOAD PUSH1 0x80 DUP5 ADD MSTORE PUSH1 0x5 DUP3 ADD SLOAD PUSH1 0xA0 DUP5 ADD MSTORE PUSH1 0x6 DUP3 ADD SLOAD PUSH1 0xC0 DUP5 ADD MSTORE PUSH1 0x7 DUP3 ADD SLOAD PUSH1 0xE0 DUP5 ADD MSTORE PUSH1 0x8 DUP3 ADD SLOAD SWAP3 PUSH1 0x1 DUP1 PUSH1 0xA0 SHL SUB DUP5 AND PUSH2 0x100 DUP3 ADD MSTORE PUSH1 0xFF DUP5 PUSH1 0xA0 SHR AND PUSH1 0x4 DUP2 LT ISZERO PUSH2 0x5CC JUMPI PUSH1 0xE PUSH2 0x11A7 SWAP5 PUSH1 0xFF PUSH1 0x1 SWAP8 PUSH2 0xDD3 SWAP5 PUSH2 0x120 DUP8 ADD MSTORE PUSH1 0xA8 SHR AND ISZERO ISZERO PUSH2 0x140 DUP6 ADD MSTORE PUSH2 0x55A PUSH1 0x9 DUP3 ADD PUSH2 0x47DC JUMP JUMPDEST SWAP3 SWAP1 POP PUSH2 0x10E7 JUMP JUMPDEST POP DUP1 PUSH1 0x0 MSTORE PUSH1 0x2 PUSH1 0x20 MSTORE PUSH1 0xFF PUSH1 0x8 PUSH1 0x40 PUSH1 0x0 KECCAK256 ADD SLOAD PUSH1 0xA0 SHR AND PUSH1 0x4 DUP2 LT ISZERO PUSH2 0x5CC JUMPI PUSH1 0x1 EQ PUSH2 0x10E2 JUMP JUMPDEST POP PUSH1 0xD SLOAD DUP3 GT ISZERO PUSH2 0x1057 JUMP JUMPDEST CALLVALUE PUSH2 0x2FC JUMPI PUSH1 0x40 CALLDATASIZE PUSH1 0x3 NOT ADD SLT PUSH2 0x2FC JUMPI PUSH2 0x11FE PUSH2 0x4349 JUMP JUMPDEST PUSH1 0x4 CALLDATALOAD PUSH1 0x0 MSTORE PUSH1 0x0 DUP1 MLOAD PUSH1 0x20 PUSH2 0x5284 DUP4 CODECOPY DUP2 MLOAD SWAP2 MSTORE PUSH1 0x20 MSTORE PUSH1 0x40 PUSH1 0x0 KECCAK256 SWAP1 PUSH1 0x1 DUP1 PUSH1 0xA0 SHL SUB AND PUSH1 0x0 MSTORE PUSH1 0x20 MSTORE PUSH1 0x20 PUSH1 0xFF PUSH1 0x40 PUSH1 0x0 KECCAK256 SLOAD AND PUSH1 0x40 MLOAD SWAP1 ISZERO ISZERO DUP2 MSTORE RETURN JUMPDEST CALLVALUE PUSH2 0x2FC JUMPI PUSH1 0x40 CALLDATASIZE PUSH1 0x3 NOT ADD SLT PUSH2 0x2FC JUMPI PUSH2 0x1258 PUSH2 0x4349 JUMP JUMPDEST PUSH1 0x4 CALLDATALOAD PUSH1 0x0 MSTORE PUSH1 0x9 PUSH1 0x20 MSTORE PUSH1 0x40 PUSH1 0x0 KECCAK256 SWAP1 PUSH1 0x1 DUP1 PUSH1 0xA0 SHL SUB AND PUSH1 0x0 MSTORE PUSH1 0x20 MSTORE PUSH1 0x20 PUSH1 0x40 PUSH1 0x0 KECCAK256 SLOAD PUSH1 0x40 MLOAD SWAP1 DUP2 MSTORE RETURN JUMPDEST CALLVALUE PUSH2 0x2FC JUMPI PUSH1 0x20 CALLDATASIZE PUSH1 0x3 NOT ADD SLT PUSH2 0x2FC JUMPI PUSH1 0x1 PUSH1 0x1 PUSH1 0xA0 SHL SUB PUSH2 0x12A8 PUSH2 0x4375 JUMP JUMPDEST AND PUSH1 0x0 MSTORE PUSH1 0x4 PUSH1 0x20 MSTORE PUSH1 0x20 PUSH1 0x40 PUSH1 0x0 KECCAK256 SLOAD PUSH1 0x40 MLOAD SWAP1 DUP2 MSTORE RETURN JUMPDEST CALLVALUE PUSH2 0x2FC JUMPI PUSH1 0x40 CALLDATASIZE PUSH1 0x3 NOT ADD SLT PUSH2 0x2FC JUMPI PUSH2 0x12DA PUSH2 0x4375 JUMP JUMPDEST PUSH1 0x24 CALLDATALOAD SWAP1 DUP2 ISZERO ISZERO DUP1 SWAP3 SUB PUSH2 0x2FC JUMPI CALLER PUSH1 0x0 SWAP1 DUP2 MSTORE PUSH1 0x0 DUP1 MLOAD PUSH1 0x20 PUSH2 0x5224 DUP4 CODECOPY DUP2 MLOAD SWAP2 MSTORE PUSH1 0x20 SWAP1 DUP2 MSTORE PUSH1 0x40 SWAP1 SWAP2 KECCAK256 SLOAD PUSH32 0x1DA521C13439AC6AB125C52E0DA7DD7DE929F09E58AA0F89EBE3DBB12E63A52B SWAP3 SWAP1 PUSH1 0xFF AND DUP1 ISZERO PUSH2 0x136A JUMPI JUMPDEST PUSH2 0x133E SWAP1 PUSH2 0x4C8F JUMP JUMPDEST PUSH1 0x1 DUP1 PUSH1 0xA0 SHL SUB AND SWAP3 DUP4 PUSH1 0x0 MSTORE PUSH1 0x7 DUP3 MSTORE PUSH1 0x40 PUSH1 0x0 KECCAK256 PUSH1 0xFF NOT DUP2 SLOAD AND PUSH1 0xFF DUP4 AND OR SWAP1 SSTORE PUSH1 0x40 MLOAD SWAP1 DUP2 MSTORE LOG2 STOP JUMPDEST POP PUSH1 0x0 DUP1 MLOAD PUSH1 0x20 PUSH2 0x5204 DUP4 CODECOPY DUP2 MLOAD SWAP2 MSTORE PUSH1 0x0 SWAP1 DUP2 MSTORE PUSH1 0x0 DUP1 MLOAD PUSH1 0x20 PUSH2 0x5284 DUP4 CODECOPY DUP2 MLOAD SWAP2 MSTORE DUP4 MSTORE PUSH1 0x40 DUP1 DUP3 KECCAK256 CALLER DUP4 MSTORE DUP5 MSTORE SWAP1 KECCAK256 SLOAD PUSH1 0xFF AND PUSH2 0x1335 JUMP JUMPDEST CALLVALUE PUSH2 0x2FC JUMPI PUSH1 0x0 CALLDATASIZE PUSH1 0x3 NOT ADD SLT PUSH2 0x2FC JUMPI PUSH1 0x0 DUP1 MLOAD PUSH1 0x20 PUSH2 0x52C4 DUP4 CODECOPY DUP2 MLOAD SWAP2 MSTORE SLOAD PUSH1 0xFF DUP2 PUSH1 0x40 SHR AND ISZERO SWAP1 PUSH1 0x1 PUSH1 0x1 PUSH1 0x40 SHL SUB DUP2 AND DUP1 ISZERO SWAP1 DUP2 PUSH2 0x151F JUMPI JUMPDEST PUSH1 0x1 EQ SWAP1 DUP2 PUSH2 0x1515 JUMPI JUMPDEST ISZERO SWAP1 DUP2 PUSH2 0x150C JUMPI JUMPDEST POP PUSH2 0x14FB JUMPI PUSH8 0xFFFFFFFFFFFFFFFF NOT DUP2 AND PUSH1 0x1 OR PUSH1 0x0 DUP1 MLOAD PUSH1 0x20 PUSH2 0x52C4 DUP4 CODECOPY DUP2 MLOAD SWAP2 MSTORE SSTORE DUP2 PUSH2 0x14CE JUMPI JUMPDEST POP PUSH2 0x1427 PUSH2 0x5154 JUMP JUMPDEST PUSH2 0x142F PUSH2 0x5154 JUMP JUMPDEST PUSH2 0x1437 PUSH2 0x5154 JUMP JUMPDEST PUSH1 0x1 PUSH1 0x0 DUP1 MLOAD PUSH1 0x20 PUSH2 0x52A4 DUP4 CODECOPY DUP2 MLOAD SWAP2 MSTORE SSTORE PUSH2 0x1451 PUSH2 0x5154 JUMP JUMPDEST PUSH2 0x145A CALLER PUSH2 0x4DE7 JUMP JUMPDEST POP PUSH2 0x1464 CALLER PUSH2 0x4E9B JUMP JUMPDEST POP PUSH2 0x146E CALLER PUSH2 0x4F45 JUMP JUMPDEST POP PUSH2 0x1475 JUMPI STOP JUMPDEST PUSH9 0xFF0000000000000000 NOT PUSH1 0x0 DUP1 MLOAD PUSH1 0x20 PUSH2 0x52C4 DUP4 CODECOPY DUP2 MLOAD SWAP2 MSTORE SLOAD AND PUSH1 0x0 DUP1 MLOAD PUSH1 0x20 PUSH2 0x52C4 DUP4 CODECOPY DUP2 MLOAD SWAP2 MSTORE SSTORE PUSH32 0xC7F505B2F371AE2175EE4913F4499E1F2633A7B5936321EED1CDAEB6115181D2 PUSH1 0x20 PUSH1 0x40 MLOAD PUSH1 0x1 DUP2 MSTORE LOG1 STOP JUMPDEST PUSH9 0xFFFFFFFFFFFFFFFFFF NOT AND PUSH9 0x10000000000000001 OR PUSH1 0x0 DUP1 MLOAD PUSH1 0x20 PUSH2 0x52C4 DUP4 CODECOPY DUP2 MLOAD SWAP2 MSTORE SSTORE DUP2 PUSH2 0x141E JUMP JUMPDEST PUSH4 0xF92EE8A9 PUSH1 0xE0 SHL PUSH1 0x0 MSTORE PUSH1 0x4 PUSH1 0x0 REVERT JUMPDEST SWAP1 POP ISZERO DUP4 PUSH2 0x13F4 JUMP JUMPDEST ADDRESS EXTCODESIZE ISZERO SWAP2 POP PUSH2 0x13EC JUMP JUMPDEST DUP4 SWAP2 POP PUSH2 0x13E2 JUMP JUMPDEST CALLVALUE PUSH2 0x2FC JUMPI PUSH1 0x20 CALLDATASIZE PUSH1 0x3 NOT ADD SLT PUSH2 0x2FC JUMPI PUSH1 0x4 CALLDATALOAD DUP1 PUSH1 0x0 MSTORE PUSH1 0x3 PUSH1 0x20 MSTORE PUSH2 0x1555 PUSH1 0xFF PUSH1 0x40 PUSH1 0x0 KECCAK256 SLOAD AND PUSH2 0x4885 JUMP JUMPDEST PUSH1 0x0 DUP2 DUP2 MSTORE PUSH1 0x2 PUSH1 0x20 MSTORE PUSH1 0x40 SWAP1 KECCAK256 PUSH1 0x8 DUP2 ADD DUP1 SLOAD SWAP1 SWAP3 SWAP2 SWAP1 CALLER PUSH1 0x1 PUSH1 0x1 PUSH1 0xA0 SHL SUB DUP3 AND EQ DUP1 ISZERO PUSH2 0x1672 JUMPI JUMPDEST ISZERO PUSH2 0x163C JUMPI PUSH1 0xFF DUP2 PUSH1 0xA8 SHR AND SWAP2 DUP3 PUSH2 0x162E JUMPI JUMPDEST POP DUP2 PUSH2 0x15F1 JUMPI JUMPDEST POP PUSH32 0xA8AD368DE07A46B4C9632FEE456E1227F02E971F82939D68BD4696B2E378DFA7 SWAP3 PUSH1 0x20 SWAP3 SWAP2 ISZERO PUSH2 0x15E1 JUMPI DUP1 SLOAD PUSH1 0xFF PUSH1 0xA0 SHL NOT AND PUSH1 0x1 PUSH1 0xA1 SHL OR SWAP1 SSTORE JUMPDEST PUSH1 0x40 MLOAD SWAP1 DUP2 MSTORE LOG1 STOP JUMPDEST DUP1 SLOAD PUSH1 0xFF PUSH1 0xA0 SHL NOT AND SWAP1 SSTORE PUSH2 0x15D8 JUMP JUMPDEST PUSH1 0xFF SWAP2 POP PUSH1 0xA0 SHR AND SWAP1 PUSH1 0x4 DUP3 LT ISZERO PUSH2 0x5CC JUMPI SWAP1 PUSH1 0x2 EQ ISZERO PUSH32 0xA8AD368DE07A46B4C9632FEE456E1227F02E971F82939D68BD4696B2E378DFA7 PUSH2 0x159A JUMP JUMPDEST PUSH1 0x3 ADD SLOAD ISZERO ISZERO SWAP2 POP DUP5 PUSH2 0x1593 JUMP JUMPDEST PUSH1 0x40 MLOAD PUSH3 0x461BCD PUSH1 0xE5 SHL DUP2 MSTORE PUSH1 0x20 PUSH1 0x4 DUP3 ADD MSTORE PUSH1 0xE PUSH1 0x24 DUP3 ADD MSTORE PUSH14 0x139BDD08185D5D1A1BDC9A5E9959 PUSH1 0x92 SHL PUSH1 0x44 DUP3 ADD MSTORE PUSH1 0x64 SWAP1 REVERT JUMPDEST POP CALLER PUSH1 0x0 SWAP1 DUP2 MSTORE PUSH1 0x0 DUP1 MLOAD PUSH1 0x20 PUSH2 0x5224 DUP4 CODECOPY DUP2 MLOAD SWAP2 MSTORE PUSH1 0x20 MSTORE PUSH1 0x40 SWAP1 KECCAK256 SLOAD PUSH1 0xFF AND PUSH2 0x1580 JUMP JUMPDEST CALLVALUE PUSH2 0x2FC JUMPI PUSH1 0x0 CALLDATASIZE PUSH1 0x3 NOT ADD SLT PUSH2 0x2FC JUMPI PUSH1 0x47 SLOAD PUSH1 0x40 MLOAD PUSH1 0x1 PUSH1 0x1 PUSH1 0xA0 SHL SUB SWAP1 SWAP2 AND DUP2 MSTORE PUSH1 0x20 SWAP1 RETURN JUMPDEST CALLVALUE PUSH2 0x2FC JUMPI PUSH1 0x60 CALLDATASIZE PUSH1 0x3 NOT ADD SLT PUSH2 0x2FC JUMPI PUSH2 0x16DA PUSH2 0x4349 JUMP JUMPDEST PUSH2 0x16E2 PUSH2 0x435F JUMP JUMPDEST PUSH1 0x4 CALLDATALOAD PUSH1 0x0 SWAP1 DUP2 MSTORE PUSH1 0xB PUSH1 0x20 SWAP1 DUP2 MSTORE PUSH1 0x40 DUP1 DUP4 KECCAK256 PUSH1 0x1 PUSH1 0x1 PUSH1 0xA0 SHL SUB SWAP6 DUP7 AND DUP5 MSTORE DUP3 MSTORE DUP1 DUP4 KECCAK256 SWAP5 SWAP1 SWAP4 AND DUP3 MSTORE SWAP3 DUP4 MSTORE DUP2 SWAP1 KECCAK256 SLOAD SWAP1 MLOAD SWAP1 DUP2 MSTORE RETURN JUMPDEST CALLVALUE PUSH2 0x2FC JUMPI PUSH1 0x0 CALLDATASIZE PUSH1 0x3 NOT ADD SLT PUSH2 0x2FC JUMPI PUSH1 0x20 PUSH1 0x40 MLOAD PUSH32 0xA49807205CE4D355092EF5A8A18F56E8913CF4A201FBE287825B095693C21775 DUP2 MSTORE RETURN JUMPDEST CALLVALUE PUSH2 0x2FC JUMPI PUSH1 0x40 CALLDATASIZE PUSH1 0x3 NOT ADD SLT PUSH2 0x2FC JUMPI PUSH2 0x1770 PUSH2 0x4349 JUMP JUMPDEST PUSH1 0x4 CALLDATALOAD PUSH1 0x0 MSTORE PUSH1 0x14 PUSH1 0x20 MSTORE PUSH1 0x40 PUSH1 0x0 KECCAK256 SWAP1 PUSH1 0x1 DUP1 PUSH1 0xA0 SHL SUB AND PUSH1 0x0 MSTORE PUSH1 0x20 MSTORE PUSH1 0x20 PUSH1 0xFF PUSH1 0x40 PUSH1 0x0 KECCAK256 SLOAD AND PUSH1 0x40 MLOAD SWAP1 ISZERO ISZERO DUP2 MSTORE RETURN JUMPDEST CALLVALUE PUSH2 0x2FC JUMPI PUSH1 0x20 CALLDATASIZE PUSH1 0x3 NOT ADD SLT PUSH2 0x2FC JUMPI PUSH1 0x4 CALLDATALOAD DUP1 PUSH1 0x0 MSTORE PUSH1 0x3 PUSH1 0x20 MSTORE PUSH2 0x17D2 PUSH1 0xFF PUSH1 0x40 PUSH1 0x0 KECCAK256 SLOAD AND PUSH2 0x4885 JUMP JUMPDEST DUP1 PUSH1 0x0 MSTORE PUSH1 0x2 PUSH1 0x20 MSTORE PUSH1 0x40 PUSH1 0x0 KECCAK256 PUSH2 0x17F1 PUSH1 0x9 PUSH1 0x3 DUP4 ADD SLOAD SWAP3 ADD PUSH2 0x47DC JUMP JUMPDEST DUP1 MLOAD SWAP1 PUSH2 0x1816 PUSH2 0x1800 DUP4 PUSH2 0x476E JUMP JUMPDEST SWAP3 PUSH2 0x180E PUSH1 0x40 MLOAD SWAP5 DUP6 PUSH2 0x43E1 JUMP JUMPDEST DUP1 DUP5 MSTORE PUSH2 0x476E JUMP JUMPDEST PUSH1 0x20 DUP4 ADD SWAP4 SWAP1 PUSH1 0x1F NOT ADD CALLDATASIZE DUP6 CALLDATACOPY PUSH1 0x0 JUMPDEST DUP3 MLOAD DUP2 LT ISZERO PUSH2 0x1876 JUMPI PUSH1 0x1 SWAP1 DUP7 PUSH1 0x0 MSTORE PUSH1 0xA PUSH1 0x20 MSTORE PUSH1 0x40 DUP1 PUSH1 0x0 KECCAK256 DUP4 DUP1 PUSH1 0xA0 SHL SUB PUSH2 0x1851 DUP5 DUP9 PUSH2 0x4830 JUMP JUMPDEST MLOAD AND SWAP1 PUSH1 0x0 SWAP2 DUP6 DUP1 PUSH1 0xA0 SHL SUB AND DUP3 MSTORE PUSH1 0x20 MSTORE KECCAK256 SLOAD PUSH2 0x186F DUP3 DUP8 PUSH2 0x4830 JUMP JUMPDEST MSTORE ADD PUSH2 0x1826 JUMP JUMPDEST POP SWAP3 SWAP2 SWAP1 SWAP4 POP PUSH1 0x20 PUSH2 0x1899 PUSH1 0x40 MLOAD SWAP6 DUP7 SWAP6 DUP7 MSTORE PUSH1 0x60 DUP4 DUP8 ADD MSTORE PUSH1 0x60 DUP7 ADD SWAP1 PUSH2 0x430C JUMP JUMPDEST SWAP2 DUP5 DUP4 SUB PUSH1 0x40 DUP7 ADD MSTORE MLOAD SWAP2 DUP3 DUP2 MSTORE ADD SWAP2 SWAP1 PUSH1 0x0 JUMPDEST DUP2 DUP2 LT PUSH2 0x18BB JUMPI POP POP POP SUB SWAP1 RETURN JUMPDEST DUP3 MLOAD DUP5 MSTORE DUP6 SWAP5 POP PUSH1 0x20 SWAP4 DUP5 ADD SWAP4 SWAP1 SWAP3 ADD SWAP2 PUSH1 0x1 ADD PUSH2 0x18AD JUMP JUMPDEST CALLVALUE PUSH2 0x2FC JUMPI PUSH1 0x0 CALLDATASIZE PUSH1 0x3 NOT ADD SLT PUSH2 0x2FC JUMPI PUSH1 0x20 PUSH1 0x40 MLOAD PUSH3 0x15180 DUP2 MSTORE RETURN JUMPDEST CALLVALUE PUSH2 0x2FC JUMPI PUSH1 0x40 CALLDATASIZE PUSH1 0x3 NOT ADD SLT PUSH2 0x2FC JUMPI PUSH2 0x190B PUSH2 0x4375 JUMP JUMPDEST PUSH1 0x24 CALLDATALOAD SWAP1 DUP2 ISZERO PUSH2 0x1A01 JUMPI PUSH1 0x1 PUSH1 0x1 PUSH1 0xA0 SHL SUB AND PUSH1 0x0 DUP2 DUP2 MSTORE PUSH1 0x7 PUSH1 0x20 MSTORE PUSH1 0x40 SWAP1 KECCAK256 SLOAD SWAP1 SWAP2 SWAP1 PUSH1 0xFF AND ISZERO PUSH2 0x19C8 JUMPI PUSH1 0x40 MLOAD PUSH4 0x23B872DD PUSH1 0xE0 SHL DUP2 MSTORE CALLER PUSH1 0x4 DUP3 ADD MSTORE ADDRESS PUSH1 0x24 DUP3 ADD MSTORE PUSH1 0x44 DUP2 ADD DUP3 SWAP1 MSTORE PUSH1 0x20 DUP2 PUSH1 0x64 DUP2 PUSH1 0x0 DUP8 GAS CALL DUP1 ISZERO PUSH2 0xC35 JUMPI PUSH2 0x197B SWAP2 PUSH1 0x0 SWAP2 PUSH2 0x19A9 JUMPI JUMPDEST POP PUSH2 0x4979 JUMP JUMPDEST PUSH1 0x40 MLOAD SWAP1 DUP2 MSTORE PUSH32 0xCEDEEC3D87BAB948B78578AA28E3A9A7A86436B9DB48E0CAB9B501A596FA8A33 PUSH1 0x20 CALLER SWAP3 LOG3 STOP JUMPDEST PUSH2 0x19C2 SWAP2 POP PUSH1 0x20 RETURNDATASIZE PUSH1 0x20 GT PUSH2 0xC2E JUMPI PUSH2 0xC21 DUP2 DUP4 PUSH2 0x43E1 JUMP JUMPDEST DUP5 PUSH2 0x1975 JUMP JUMPDEST PUSH1 0x40 MLOAD PUSH3 0x461BCD PUSH1 0xE5 SHL DUP2 MSTORE PUSH1 0x20 PUSH1 0x4 DUP3 ADD MSTORE PUSH1 0x11 PUSH1 0x24 DUP3 ADD MSTORE PUSH17 0x151BDAD95B881B9BDD08185B1B1BDDD959 PUSH1 0x7A SHL PUSH1 0x44 DUP3 ADD MSTORE PUSH1 0x64 SWAP1 REVERT JUMPDEST PUSH1 0x40 MLOAD PUSH3 0x461BCD PUSH1 0xE5 SHL DUP2 MSTORE PUSH1 0x20 PUSH1 0x4 DUP3 ADD MSTORE PUSH1 0x1D PUSH1 0x24 DUP3 ADD MSTORE PUSH32 0x416D6F756E74206D7573742062652067726561746572207468616E2030000000 PUSH1 0x44 DUP3 ADD MSTORE PUSH1 0x64 SWAP1 REVERT JUMPDEST CALLVALUE PUSH2 0x2FC JUMPI PUSH1 0x20 CALLDATASIZE PUSH1 0x3 NOT ADD SLT PUSH2 0x2FC JUMPI PUSH1 0x4 CALLDATALOAD PUSH1 0x0 MSTORE PUSH1 0xE PUSH1 0x20 MSTORE PUSH1 0x20 PUSH1 0x1 DUP1 PUSH1 0xA0 SHL SUB PUSH1 0x40 PUSH1 0x0 KECCAK256 SLOAD AND PUSH1 0x40 MLOAD SWAP1 DUP2 MSTORE RETURN JUMPDEST CALLVALUE PUSH2 0x2FC JUMPI PUSH1 0x0 CALLDATASIZE PUSH1 0x3 NOT ADD SLT PUSH2 0x2FC JUMPI PUSH1 0x20 PUSH1 0xFF PUSH1 0x12 SLOAD AND PUSH1 0x40 MLOAD SWAP1 ISZERO ISZERO DUP2 MSTORE RETURN JUMPDEST CALLVALUE PUSH2 0x2FC JUMPI PUSH1 0x20 CALLDATASIZE PUSH1 0x3 NOT ADD SLT PUSH2 0x2FC JUMPI PUSH1 0x4 CALLDATALOAD PUSH2 0x1AB9 PUSH2 0x4CCA JUMP JUMPDEST PUSH1 0x0 DUP2 DUP2 MSTORE PUSH1 0xC PUSH1 0x20 SWAP1 DUP2 MSTORE PUSH1 0x40 DUP1 DUP4 KECCAK256 CALLER DUP5 MSTORE SWAP1 SWAP2 MSTORE SWAP1 KECCAK256 SLOAD SWAP1 PUSH2 0x1ADF DUP3 ISZERO ISZERO PUSH2 0x4BC4 JUMP JUMPDEST DUP1 PUSH1 0x0 MSTORE PUSH1 0xC PUSH1 0x20 MSTORE PUSH1 0x40 PUSH1 0x0 KECCAK256 PUSH1 0x1 DUP1 PUSH1 0xA0 SHL SUB CALLER AND PUSH1 0x0 MSTORE PUSH1 0x20 MSTORE PUSH1 0x0 PUSH1 0x40 DUP2 KECCAK256 SSTORE PUSH1 0x0 DUP1 DUP1 DUP1 DUP6 CALLER GAS CALL PUSH2 0x1B14 PUSH2 0x4C06 JUMP JUMPDEST POP ISZERO PUSH2 0x1B5A JUMPI PUSH1 0x40 MLOAD SWAP2 DUP3 MSTORE PUSH32 0x67C42EDA1496B800B57C9FE634A9218DC00A15CB38247910F717D2650002421 PUSH1 0x20 CALLER SWAP4 LOG3 PUSH1 0x1 PUSH1 0x0 DUP1 MLOAD PUSH1 0x20 PUSH2 0x52A4 DUP4 CODECOPY DUP2 MLOAD SWAP2 MSTORE SSTORE STOP JUMPDEST PUSH1 0x40 MLOAD PUSH3 0x461BCD PUSH1 0xE5 SHL DUP2 MSTORE PUSH1 0x20 PUSH1 0x4 DUP3 ADD MSTORE PUSH1 0xD PUSH1 0x24 DUP3 ADD MSTORE PUSH13 0x1499599D5B990819985A5B1959 PUSH1 0x9A SHL PUSH1 0x44 DUP3 ADD MSTORE PUSH1 0x64 SWAP1 REVERT JUMPDEST CALLVALUE PUSH2 0x2FC JUMPI PUSH1 0x40 CALLDATASIZE PUSH1 0x3 NOT ADD SLT PUSH2 0x2FC JUMPI PUSH2 0x1BA8 PUSH2 0x4349 JUMP JUMPDEST PUSH1 0x4 CALLDATALOAD PUSH1 0x0 MSTORE PUSH1 0x0 PUSH1 0x20 MSTORE PUSH1 0x40 PUSH1 0x0 KECCAK256 SWAP1 PUSH1 0x1 DUP1 PUSH1 0xA0 SHL SUB AND PUSH1 0x0 MSTORE PUSH1 0x20 MSTORE PUSH1 0x20 PUSH1 0x40 PUSH1 0x0 KECCAK256 SLOAD PUSH1 0x40 MLOAD SWAP1 DUP2 MSTORE RETURN JUMPDEST PUSH1 0x20 CALLDATASIZE PUSH1 0x3 NOT ADD SLT PUSH2 0x2FC JUMPI PUSH1 0x4 CALLDATALOAD PUSH2 0x1BF5 PUSH1 0xFF PUSH1 0x12 SLOAD AND ISZERO PUSH2 0x4844 JUMP JUMPDEST PUSH2 0x1BFD PUSH2 0x4CCA JUMP JUMPDEST DUP1 PUSH1 0x0 MSTORE PUSH1 0x2 PUSH1 0x20 MSTORE PUSH1 0x40 PUSH1 0x0 KECCAK256 SWAP1 DUP1 PUSH1 0x0 MSTORE PUSH1 0x0 PUSH1 0x20 MSTORE PUSH1 0x40 PUSH1 0x0 KECCAK256 PUSH1 0x8 DUP4 ADD SWAP1 PUSH1 0xFF DUP3 SLOAD PUSH1 0xA0 SHR AND PUSH1 0x4 DUP2 LT ISZERO PUSH2 0x5CC JUMPI PUSH1 0x1 PUSH2 0x1C3C SWAP2 EQ PUSH2 0x48D1 JUMP JUMPDEST PUSH2 0x1C4B PUSH1 0x2 DUP6 ADD SLOAD TIMESTAMP LT PUSH2 0x491D JUMP JUMPDEST PUSH1 0x1 DUP1 PUSH1 0xA0 SHL SUB CALLER AND PUSH1 0x0 MSTORE PUSH1 0x20 MSTORE PUSH1 0x40 PUSH1 0x0 KECCAK256 PUSH2 0x1C6A CALLVALUE DUP3 SLOAD PUSH2 0x4C36 JUMP JUMPDEST SWAP1 SSTORE PUSH1 0x0 DUP3 DUP2 MSTORE PUSH1 0x14 PUSH1 0x20 SWAP1 DUP2 MSTORE PUSH1 0x40 DUP1 DUP4 KECCAK256 CALLER DUP5 MSTORE SWAP1 SWAP2 MSTORE SWAP1 KECCAK256 SLOAD PUSH1 0xFF AND ISZERO PUSH2 0x1EE7 JUMPI JUMPDEST DUP1 SLOAD PUSH1 0xFF DUP2 PUSH1 0xA8 SHR AND PUSH1 0x0 EQ PUSH2 0x1E6F JUMPI POP PUSH1 0x3 DUP4 ADD PUSH2 0x1CAF CALLVALUE DUP3 SLOAD PUSH2 0x4C36 JUMP JUMPDEST SWAP1 SSTORE PUSH1 0x6 DUP4 ADD PUSH2 0x1CC0 CALLVALUE DUP3 SLOAD PUSH2 0x4C36 JUMP JUMPDEST SWAP1 SSTORE JUMPDEST PUSH1 0x7 DUP4 ADD PUSH1 0x1 DUP2 SLOAD ADD SWAP1 SSTORE CALLVALUE PUSH1 0x6 SLOAD ADD PUSH1 0x6 SSTORE PUSH1 0x40 MLOAD CALLVALUE DUP2 MSTORE DUP3 PUSH32 0xC21CED65A5123CF3A616A47C5DB0322AC53C225FC7CD0B8006A899ED321EDC21 PUSH1 0x20 CALLER SWAP4 LOG3 PUSH1 0x40 MLOAD CALLVALUE DUP2 MSTORE PUSH1 0x0 PUSH1 0x20 DUP3 ADD MSTORE PUSH1 0x1 PUSH1 0x40 DUP3 ADD MSTORE DUP3 PUSH32 0xC0D2DCEFA652289D410A90D1E74F5483B1FE1F34F334A1DD364D282F66E1CBD0 PUSH1 0x60 CALLER SWAP4 LOG3 PUSH1 0xFF DUP2 SLOAD PUSH1 0xA8 SHR AND PUSH2 0x1D5E JUMPI PUSH1 0x1 PUSH1 0x0 DUP1 MLOAD PUSH1 0x20 PUSH2 0x52A4 DUP4 CODECOPY DUP2 MLOAD SWAP2 MSTORE SSTORE STOP JUMPDEST PUSH1 0x5 DUP4 ADD SWAP2 DUP3 SLOAD JUMPDEST DUP2 PUSH1 0x0 MSTORE PUSH1 0x1 PUSH1 0x20 MSTORE PUSH1 0x40 PUSH1 0x0 KECCAK256 SLOAD DUP2 LT ISZERO PUSH2 0x1E65 JUMPI DUP2 PUSH1 0x0 MSTORE PUSH1 0x1 PUSH1 0x20 MSTORE PUSH2 0x1D93 DUP2 PUSH1 0x40 PUSH1 0x0 KECCAK256 PUSH2 0x46E5 JUMP JUMPDEST POP SWAP1 PUSH1 0x2 DUP3 ADD DUP1 SLOAD SWAP3 PUSH1 0xFF DUP5 AND ISZERO DUP1 PUSH2 0x1E53 JUMPI JUMPDEST ISZERO PUSH2 0x1E42 JUMPI PUSH32 0xF7F51312954676ACD3EF3DA92D9CFD404E9AA38E628C180E066A02E54889F95 PUSH1 0x20 DUP7 SWAP3 PUSH2 0x1E02 PUSH1 0x0 DUP1 DUP1 DUP1 PUSH1 0x1 DUP15 DUP13 SWAP12 DUP3 SWAP15 DUP4 SWAP1 PUSH1 0xFF NOT AND OR SWAP1 SSTORE DUP2 DUP1 PUSH1 0xA0 SHL SUB SWAP1 SLOAD AND SWAP7 ADD SWAP6 DUP7 SLOAD SWAP1 GAS CALL PUSH2 0x8A9 PUSH2 0x4C06 JUMP JUMPDEST DUP1 SLOAD PUSH2 0x1E13 PUSH1 0x3 DUP14 ADD SWAP2 DUP3 SLOAD PUSH2 0x4A84 JUMP JUMPDEST SWAP1 SSTORE DUP1 SLOAD PUSH2 0x1E26 PUSH1 0x6 DUP14 ADD SWAP2 DUP3 SLOAD PUSH2 0x4A84 JUMP JUMPDEST SWAP1 SSTORE PUSH2 0x1E32 DUP11 SLOAD PUSH2 0x4785 JUMP JUMPDEST DUP11 SSTORE SLOAD PUSH1 0x40 MLOAD SWAP1 DUP2 MSTORE LOG3 ADD PUSH2 0x1D66 JUMP JUMPDEST POP POP POP POP POP POP POP POP JUMPDEST DUP1 DUP1 DUP1 PUSH2 0xAF0 JUMP JUMPDEST POP PUSH1 0x3 DUP9 ADD SLOAD PUSH1 0x1 DUP3 ADD SLOAD GT ISZERO PUSH2 0x1DA7 JUMP JUMPDEST POP POP POP POP POP PUSH2 0x1E4B JUMP JUMPDEST PUSH1 0x0 SWAP1 DUP2 SWAP1 DUP2 SWAP1 DUP2 SWAP1 CALLVALUE SWAP1 PUSH1 0x1 PUSH1 0x1 PUSH1 0xA0 SHL SUB AND GAS CALL PUSH2 0x1E8D PUSH2 0x4C06 JUMP JUMPDEST POP ISZERO PUSH2 0x1EA9 JUMPI PUSH1 0x3 DUP4 ADD PUSH2 0x1EA2 CALLVALUE DUP3 SLOAD PUSH2 0x4C36 JUMP JUMPDEST SWAP1 SSTORE PUSH2 0x1CC3 JUMP JUMPDEST PUSH1 0x40 MLOAD PUSH3 0x461BCD PUSH1 0xE5 SHL DUP2 MSTORE PUSH1 0x20 PUSH1 0x4 DUP3 ADD MSTORE PUSH1 0x16 PUSH1 0x24 DUP3 ADD MSTORE PUSH22 0x111A5C9958DD08191BDB985D1A5BDB8819985A5B1959 PUSH1 0x52 SHL PUSH1 0x44 DUP3 ADD MSTORE PUSH1 0x64 SWAP1 REVERT JUMPDEST PUSH1 0x0 DUP3 DUP2 MSTORE PUSH1 0x14 PUSH1 0x20 SWAP1 DUP2 MSTORE PUSH1 0x40 DUP1 DUP4 KECCAK256 CALLER DUP5 MSTORE SWAP1 SWAP2 MSTORE SWAP1 KECCAK256 DUP1 SLOAD PUSH1 0xFF NOT AND PUSH1 0x1 OR SWAP1 SSTORE PUSH2 0x1C8F JUMP JUMPDEST CALLVALUE PUSH2 0x2FC JUMPI PUSH1 0x0 CALLDATASIZE PUSH1 0x3 NOT ADD SLT PUSH2 0x2FC JUMPI PUSH32 0x0 PUSH1 0x1 PUSH1 0x1 PUSH1 0xA0 SHL SUB AND ADDRESS SUB PUSH2 0x1F69 JUMPI PUSH1 0x20 PUSH1 0x40 MLOAD PUSH1 0x0 DUP1 MLOAD PUSH1 0x20 PUSH2 0x5244 DUP4 CODECOPY DUP2 MLOAD SWAP2 MSTORE DUP2 MSTORE RETURN JUMPDEST PUSH4 0x703E46DD PUSH1 0xE1 SHL PUSH1 0x0 MSTORE PUSH1 0x4 PUSH1 0x0 REVERT JUMPDEST PUSH1 0x40 CALLDATASIZE PUSH1 0x3 NOT ADD SLT PUSH2 0x2FC JUMPI PUSH2 0x1F8E PUSH2 0x4375 JUMP JUMPDEST PUSH1 0x24 CALLDATALOAD PUSH1 0x1 PUSH1 0x1 PUSH1 0x40 SHL SUB DUP2 GT PUSH2 0x2FC JUMPI CALLDATASIZE PUSH1 0x23 DUP3 ADD SLT ISZERO PUSH2 0x2FC JUMPI PUSH2 0x1FBE SWAP1 CALLDATASIZE SWAP1 PUSH1 0x24 DUP2 PUSH1 0x4 ADD CALLDATALOAD SWAP2 ADD PUSH2 0x471C JUMP JUMPDEST PUSH1 0x1 PUSH1 0x1 PUSH1 0xA0 SHL SUB PUSH32 0x0 AND ADDRESS DUP2 EQ SWAP1 DUP2 ISZERO PUSH2 0x2143 JUMPI JUMPDEST POP PUSH2 0x1F69 JUMPI PUSH2 0x2000 PUSH2 0x4D06 JUMP JUMPDEST PUSH1 0x40 MLOAD PUSH4 0x52D1902D PUSH1 0xE0 SHL DUP2 MSTORE PUSH1 0x1 PUSH1 0x1 PUSH1 0xA0 SHL SUB DUP4 AND SWAP3 SWAP1 PUSH1 0x20 DUP2 PUSH1 0x4 DUP2 DUP8 GAS STATICCALL PUSH1 0x0 SWAP2 DUP2 PUSH2 0x210F JUMPI JUMPDEST POP PUSH2 0x2045 JUMPI DUP4 PUSH4 0x4C9C8CE3 PUSH1 0xE0 SHL PUSH1 0x0 MSTORE PUSH1 0x4 MSTORE PUSH1 0x24 PUSH1 0x0 REVERT JUMPDEST DUP1 PUSH1 0x0 DUP1 MLOAD PUSH1 0x20 PUSH2 0x5244 DUP4 CODECOPY DUP2 MLOAD SWAP2 MSTORE DUP6 SWAP3 SUB PUSH2 0x20FB JUMPI POP DUP2 EXTCODESIZE ISZERO PUSH2 0x20E7 JUMPI PUSH1 0x0 DUP1 MLOAD PUSH1 0x20 PUSH2 0x5244 DUP4 CODECOPY DUP2 MLOAD SWAP2 MSTORE DUP1 SLOAD PUSH1 0x1 PUSH1 0x1 PUSH1 0xA0 SHL SUB NOT AND DUP3 OR SWAP1 SSTORE PUSH32 0xBC7CD75A20EE27FD9ADEBAB32041F755214DBC6BFFA90CC0225B39DA2E5C2D3B PUSH1 0x0 DUP1 LOG2 DUP2 MLOAD ISZERO PUSH2 0x20CD JUMPI PUSH1 0x0 DUP1 DUP4 PUSH1 0x20 PUSH2 0xE SWAP6 MLOAD SWAP2 ADD DUP5 GAS DELEGATECALL PUSH2 0x20C7 PUSH2 0x4C06 JUMP JUMPDEST SWAP2 PUSH2 0x5182 JUMP JUMPDEST POP POP CALLVALUE PUSH2 0x20D6 JUMPI STOP JUMPDEST PUSH4 0xB398979F PUSH1 0xE0 SHL PUSH1 0x0 MSTORE PUSH1 0x4 PUSH1 0x0 REVERT JUMPDEST PUSH4 0x4C9C8CE3 PUSH1 0xE0 SHL PUSH1 0x0 MSTORE PUSH1 0x4 MSTORE PUSH1 0x24 PUSH1 0x0 REVERT JUMPDEST PUSH4 0x2A875269 PUSH1 0xE2 SHL PUSH1 0x0 MSTORE PUSH1 0x4 MSTORE PUSH1 0x24 PUSH1 0x0 REVERT JUMPDEST SWAP1 SWAP2 POP PUSH1 0x20 DUP2 RETURNDATASIZE PUSH1 0x20 GT PUSH2 0x213B JUMPI JUMPDEST DUP2 PUSH2 0x212B PUSH1 0x20 SWAP4 DUP4 PUSH2 0x43E1 JUMP JUMPDEST DUP2 ADD SUB SLT PUSH2 0x2FC JUMPI MLOAD SWAP1 DUP6 PUSH2 0x202B JUMP JUMPDEST RETURNDATASIZE SWAP2 POP PUSH2 0x211E JUMP JUMPDEST PUSH1 0x0 DUP1 MLOAD PUSH1 0x20 PUSH2 0x5244 DUP4 CODECOPY DUP2 MLOAD SWAP2 MSTORE SLOAD PUSH1 0x1 PUSH1 0x1 PUSH1 0xA0 SHL SUB AND EQ ISZERO SWAP1 POP DUP4 PUSH2 0x1FF3 JUMP JUMPDEST CALLVALUE PUSH2 0x2FC JUMPI PUSH1 0x40 CALLDATASIZE PUSH1 0x3 NOT ADD SLT PUSH2 0x2FC JUMPI PUSH1 0x4 CALLDATALOAD DUP1 PUSH1 0x0 MSTORE PUSH1 0x3 PUSH1 0x20 MSTORE PUSH2 0x2194 PUSH1 0xFF PUSH1 0x40 PUSH1 0x0 KECCAK256 SLOAD AND PUSH2 0x4885 JUMP JUMPDEST PUSH1 0x0 MSTORE PUSH1 0x2 PUSH1 0x20 MSTORE PUSH1 0x20 PUSH1 0xE PUSH1 0x40 PUSH1 0x0 KECCAK256 ADD PUSH1 0x40 MLOAD SWAP1 DUP3 DUP3 ADD SWAP1 DUP3 PUSH1 0x0 DUP3 SLOAD SWAP3 PUSH2 0x21BD DUP5 PUSH2 0x438B JUMP JUMPDEST SWAP4 PUSH1 0x1 DUP2 AND SWAP1 DUP2 ISZERO PUSH2 0x2233 JUMPI POP PUSH1 0x1 EQ PUSH2 0x21F6 JUMPI JUMPDEST POP PUSH2 0x21E6 SWAP3 POP SUB PUSH1 0x1F NOT DUP2 ADD DUP5 MSTORE DUP4 PUSH2 0x43E1 JUMP JUMPDEST PUSH1 0x24 CALLDATALOAD SWAP2 MLOAD SWAP1 KECCAK256 EQ PUSH1 0x40 MLOAD SWAP1 DUP2 MSTORE RETURN JUMPDEST SWAP2 POP POP PUSH1 0x0 MSTORE DUP3 DUP5 PUSH1 0x0 KECCAK256 PUSH1 0x0 SWAP1 JUMPDEST DUP4 DUP3 LT PUSH2 0x221C JUMPI POP POP DUP5 PUSH2 0x21E6 SWAP3 DUP3 ADD ADD DUP7 PUSH2 0x21D2 JUMP JUMPDEST DUP1 SLOAD DUP7 DUP4 ADD DUP9 ADD MSTORE DUP6 SWAP3 POP SWAP1 DUP7 ADD SWAP1 PUSH1 0x1 ADD PUSH2 0x2205 JUMP JUMPDEST PUSH1 0xFF NOT AND DUP7 MSTORE POP PUSH2 0x21E6 SWAP4 DUP1 ISZERO ISZERO MUL DUP4 ADD DUP8 ADD SWAP2 POP DUP8 SWAP1 POP PUSH2 0x21D2 JUMP JUMPDEST CALLVALUE PUSH2 0x2FC JUMPI PUSH1 0x20 CALLDATASIZE PUSH1 0x3 NOT ADD SLT PUSH2 0x2FC JUMPI PUSH1 0x4 CALLDATALOAD PUSH1 0x0 MSTORE PUSH1 0xF PUSH1 0x20 MSTORE PUSH1 0x20 PUSH1 0x40 PUSH1 0x0 KECCAK256 SLOAD PUSH1 0x40 MLOAD SWAP1 DUP2 MSTORE RETURN JUMPDEST CALLVALUE PUSH2 0x2FC JUMPI PUSH1 0x40 CALLDATASIZE PUSH1 0x3 NOT ADD SLT PUSH2 0x2FC JUMPI PUSH2 0x2295 PUSH2 0x4349 JUMP JUMPDEST PUSH1 0x4 CALLDATALOAD PUSH1 0x0 MSTORE PUSH1 0x11 PUSH1 0x20 MSTORE PUSH1 0x40 PUSH1 0x0 KECCAK256 SWAP1 PUSH1 0x1 DUP1 PUSH1 0xA0 SHL SUB AND PUSH1 0x0 MSTORE PUSH1 0x20 MSTORE PUSH1 0x20 PUSH1 0xFF PUSH1 0x40 PUSH1 0x0 KECCAK256 SLOAD AND PUSH1 0x40 MLOAD SWAP1 ISZERO ISZERO DUP2 MSTORE RETURN JUMPDEST CALLVALUE PUSH2 0x2FC JUMPI PUSH1 0x40 CALLDATASIZE PUSH1 0x3 NOT ADD SLT PUSH2 0x2FC JUMPI PUSH1 0x4 CALLDATALOAD PUSH2 0x22E5 PUSH2 0x4349 JUMP JUMPDEST SWAP1 PUSH2 0x22EE PUSH2 0x4CCA JUMP JUMPDEST PUSH1 0x0 DUP2 DUP2 MSTORE PUSH1 0x2 PUSH1 0x20 MSTORE PUSH1 0x40 SWAP1 KECCAK256 PUSH1 0x8 DUP2 ADD SLOAD SWAP1 SWAP3 SWAP1 PUSH1 0x1 PUSH1 0x1 PUSH1 0xA0 SHL SUB AND CALLER SUB PUSH2 0x24F2 JUMPI PUSH1 0x1 PUSH1 0x1 PUSH1 0xA0 SHL SUB AND SWAP2 DUP3 PUSH2 0x23FB JUMPI PUSH1 0x6 ADD DUP1 SLOAD SWAP2 SWAP3 POP DUP2 ISZERO PUSH2 0x23C1 JUMPI PUSH1 0x0 SWAP1 SSTORE PUSH1 0x0 DUP1 DUP1 DUP1 DUP5 CALLER GAS CALL PUSH2 0x2345 PUSH2 0x4C06 JUMP JUMPDEST POP ISZERO PUSH2 0x238A JUMPI PUSH1 0x20 PUSH32 0x7C02F2447B03B3F5F13DC0B6CF90D91FC6E3EEC2FFCC467B9D0B297D63AD2B6F SWAP2 PUSH1 0x40 MLOAD SWAP1 DUP2 MSTORE LOG2 PUSH1 0x1 PUSH1 0x0 DUP1 MLOAD PUSH1 0x20 PUSH2 0x52A4 DUP4 CODECOPY DUP2 MLOAD SWAP2 MSTORE SSTORE STOP JUMPDEST PUSH1 0x40 MLOAD PUSH3 0x461BCD PUSH1 0xE5 SHL DUP2 MSTORE PUSH1 0x20 PUSH1 0x4 DUP3 ADD MSTORE PUSH1 0xF PUSH1 0x24 DUP3 ADD MSTORE PUSH15 0x15DA5D1A191C985DC819985A5B1959 PUSH1 0x8A SHL PUSH1 0x44 DUP3 ADD MSTORE PUSH1 0x64 SWAP1 REVERT JUMPDEST PUSH1 0x40 MLOAD PUSH3 0x461BCD PUSH1 0xE5 SHL DUP2 MSTORE PUSH1 0x20 PUSH1 0x4 DUP3 ADD MSTORE PUSH1 0x12 PUSH1 0x24 DUP3 ADD MSTORE PUSH18 0x4E6F2045544820746F207769746864726177 PUSH1 0x70 SHL PUSH1 0x44 DUP3 ADD MSTORE PUSH1 0x64 SWAP1 REVERT JUMPDEST POP DUP1 PUSH1 0x0 MSTORE PUSH1 0x9 PUSH1 0x20 MSTORE PUSH1 0x40 PUSH1 0x0 KECCAK256 DUP3 PUSH1 0x0 MSTORE PUSH1 0x20 MSTORE PUSH1 0x40 PUSH1 0x0 KECCAK256 SLOAD DUP1 ISZERO PUSH2 0x24B6 JUMPI PUSH1 0x0 DUP3 DUP2 MSTORE PUSH1 0x9 PUSH1 0x20 SWAP1 DUP2 MSTORE PUSH1 0x40 DUP1 DUP4 KECCAK256 DUP7 DUP5 MSTORE DUP3 MSTORE DUP1 DUP4 KECCAK256 DUP4 SWAP1 SSTORE MLOAD PUSH4 0xA9059CBB PUSH1 0xE0 SHL DUP2 MSTORE CALLER PUSH1 0x4 DUP3 ADD MSTORE PUSH1 0x24 DUP2 ADD DUP5 SWAP1 MSTORE SWAP3 SWAP2 DUP4 SWAP1 PUSH1 0x44 SWAP1 DUP3 SWAP1 DUP9 GAS CALL SWAP1 DUP2 ISZERO PUSH2 0xC35 JUMPI PUSH32 0x46A80E63D2402A895805E446D536D1AE392C3D1C7DCFAF3C19F6B707FF075BFC SWAP3 PUSH1 0x20 SWAP3 PUSH2 0x249B JUMPI JUMPDEST POP PUSH1 0x40 MLOAD SWAP1 DUP2 MSTORE LOG3 PUSH2 0xAF0 JUMP JUMPDEST PUSH2 0x24B1 SWAP1 DUP4 RETURNDATASIZE DUP6 GT PUSH2 0xC2E JUMPI PUSH2 0xC21 DUP2 DUP4 PUSH2 0x43E1 JUMP JUMPDEST PUSH2 0x248E JUMP JUMPDEST PUSH1 0x40 MLOAD PUSH3 0x461BCD PUSH1 0xE5 SHL DUP2 MSTORE PUSH1 0x20 PUSH1 0x4 DUP3 ADD MSTORE PUSH1 0x14 PUSH1 0x24 DUP3 ADD MSTORE PUSH20 0x4E6F20746F6B656E20746F207769746864726177 PUSH1 0x60 SHL PUSH1 0x44 DUP3 ADD MSTORE PUSH1 0x64 SWAP1 REVERT JUMPDEST PUSH1 0x40 MLOAD PUSH3 0x461BCD PUSH1 0xE5 SHL DUP2 MSTORE PUSH1 0x20 PUSH1 0x4 DUP3 ADD MSTORE PUSH1 0x17 PUSH1 0x24 DUP3 ADD MSTORE PUSH32 0x4F6E6C79206F776E65722063616E207769746864726177000000000000000000 PUSH1 0x44 DUP3 ADD MSTORE PUSH1 0x64 SWAP1 REVERT JUMPDEST CALLVALUE PUSH2 0x2FC JUMPI PUSH1 0x40 CALLDATASIZE PUSH1 0x3 NOT ADD SLT PUSH2 0x2FC JUMPI PUSH2 0x2550 PUSH2 0x4349 JUMP JUMPDEST PUSH1 0x4 CALLDATALOAD PUSH1 0x0 MSTORE PUSH1 0x13 PUSH1 0x20 MSTORE PUSH1 0x40 PUSH1 0x0 KECCAK256 SWAP1 PUSH1 0x1 DUP1 PUSH1 0xA0 SHL SUB AND PUSH1 0x0 MSTORE PUSH1 0x20 MSTORE PUSH1 0x20 PUSH1 0xFF PUSH1 0x40 PUSH1 0x0 KECCAK256 SLOAD AND PUSH1 0x40 MLOAD SWAP1 ISZERO ISZERO DUP2 MSTORE RETURN JUMPDEST CALLVALUE PUSH2 0x2FC JUMPI PUSH1 0x40 CALLDATASIZE PUSH1 0x3 NOT ADD SLT PUSH2 0x2FC JUMPI PUSH1 0x4 CALLDATALOAD PUSH2 0x25A0 PUSH2 0x4349 JUMP JUMPDEST PUSH2 0x25A8 PUSH2 0x4CCA JUMP JUMPDEST PUSH1 0x0 DUP3 DUP2 MSTORE PUSH1 0xB PUSH1 0x20 SWAP1 DUP2 MSTORE PUSH1 0x40 DUP1 DUP4 KECCAK256 CALLER DUP5 MSTORE DUP3 MSTORE DUP1 DUP4 KECCAK256 PUSH1 0x1 PUSH1 0x1 PUSH1 0xA0 SHL SUB DUP6 AND DUP5 MSTORE SWAP1 SWAP2 MSTORE SWAP1 KECCAK256 SLOAD SWAP1 PUSH2 0x25DF DUP3 ISZERO ISZERO PUSH2 0x4BC4 JUMP JUMPDEST PUSH1 0x0 DUP4 DUP2 MSTORE PUSH1 0xB PUSH1 0x20 SWAP1 DUP2 MSTORE PUSH1 0x40 DUP1 DUP4 KECCAK256 CALLER DUP1 DUP6 MSTORE SWAP1 DUP4 MSTORE DUP2 DUP5 KECCAK256 PUSH1 0x1 PUSH1 0x1 PUSH1 0xA0 SHL SUB SWAP6 SWAP1 SWAP6 AND DUP1 DUP6 MSTORE SWAP5 DUP4 MSTORE DUP2 DUP5 KECCAK256 DUP5 SWAP1 SSTORE SWAP1 MLOAD PUSH4 0xA9059CBB PUSH1 0xE0 SHL DUP2 MSTORE PUSH1 0x4 DUP2 ADD SWAP2 SWAP1 SWAP2 MSTORE PUSH1 0x24 DUP2 ADD DUP6 SWAP1 MSTORE SWAP3 SWAP5 SWAP3 SWAP2 DUP3 SWAP1 PUSH1 0x44 SWAP1 DUP3 SWAP1 DUP9 GAS CALL DUP1 ISZERO PUSH2 0xC35 JUMPI PUSH2 0x2687 JUMPI JUMPDEST POP PUSH1 0x40 MLOAD SWAP2 DUP3 MSTORE PUSH32 0x91913F151E79C39ABA9F9FB1FCC36F5B229ACF1329F57F09D367B77C215651FE PUSH1 0x20 CALLER SWAP4 LOG4 PUSH1 0x1 PUSH1 0x0 DUP1 MLOAD PUSH1 0x20 PUSH2 0x52A4 DUP4 CODECOPY DUP2 MLOAD SWAP2 MSTORE SSTORE STOP JUMPDEST PUSH2 0x269F SWAP1 PUSH1 0x20 RETURNDATASIZE PUSH1 0x20 GT PUSH2 0xC2E JUMPI PUSH2 0xC21 DUP2 DUP4 PUSH2 0x43E1 JUMP JUMPDEST PUSH2 0x2646 JUMP JUMPDEST CALLVALUE PUSH2 0x2FC JUMPI PUSH1 0x20 CALLDATASIZE PUSH1 0x3 NOT ADD SLT PUSH2 0x2FC JUMPI PUSH1 0x4 CALLDATALOAD PUSH1 0x0 MSTORE PUSH1 0x3 PUSH1 0x20 MSTORE PUSH1 0x20 PUSH1 0xFF PUSH1 0x40 PUSH1 0x0 KECCAK256 SLOAD AND PUSH1 0x40 MLOAD SWAP1 ISZERO ISZERO DUP2 MSTORE RETURN JUMPDEST CALLVALUE PUSH2 0x2FC JUMPI PUSH2 0x26E3 CALLDATASIZE PUSH2 0x4522 JUMP JUMPDEST DUP2 DUP2 GT ISZERO PUSH2 0x2839 JUMPI PUSH1 0xD SLOAD DUP2 GT PUSH2 0x27F4 JUMPI PUSH2 0x2701 PUSH2 0xC95 DUP4 DUP4 PUSH2 0x4A84 JUMP JUMPDEST SWAP1 PUSH1 0x0 JUMPDEST DUP2 DUP5 LT PUSH2 0x271A JUMPI PUSH1 0x40 MLOAD DUP1 PUSH2 0x5C8 DUP6 DUP3 PUSH2 0x4685 JUMP JUMPDEST DUP4 PUSH1 0x0 MSTORE PUSH1 0x2 PUSH1 0x20 MSTORE PUSH1 0x40 PUSH1 0x0 KECCAK256 PUSH1 0x40 MLOAD SWAP2 PUSH2 0x2735 DUP4 PUSH2 0x43C5 JUMP JUMPDEST DUP2 SLOAD DUP4 MSTORE PUSH1 0x1 DUP3 ADD SLOAD PUSH1 0x20 DUP5 ADD MSTORE PUSH1 0x2 DUP3 ADD SLOAD PUSH1 0x40 DUP5 ADD MSTORE PUSH1 0x3 DUP3 ADD SLOAD PUSH1 0x60 DUP5 ADD MSTORE PUSH1 0x4 DUP3 ADD SLOAD PUSH1 0x80 DUP5 ADD MSTORE PUSH1 0x5 DUP3 ADD SLOAD PUSH1 0xA0 DUP5 ADD MSTORE PUSH1 0x6 DUP3 ADD SLOAD PUSH1 0xC0 DUP5 ADD MSTORE PUSH1 0x7 DUP3 ADD SLOAD PUSH1 0xE0 DUP5 ADD MSTORE PUSH1 0x8 DUP3 ADD SLOAD SWAP3 PUSH1 0x1 DUP1 PUSH1 0xA0 SHL SUB DUP5 AND PUSH2 0x100 DUP3 ADD MSTORE PUSH1 0xFF DUP5 PUSH1 0xA0 SHR AND PUSH1 0x4 DUP2 LT ISZERO PUSH2 0x5CC JUMPI PUSH1 0xE PUSH2 0x27EC SWAP5 PUSH1 0xFF PUSH1 0x1 SWAP8 PUSH2 0x27D1 SWAP5 PUSH2 0x120 DUP8 ADD MSTORE PUSH1 0xA8 SHR AND ISZERO ISZERO PUSH2 0x140 DUP6 ADD MSTORE PUSH2 0x55A PUSH1 0x9 DUP3 ADD PUSH2 0x47DC JUMP JUMPDEST PUSH2 0x200 DUP3 ADD MSTORE PUSH2 0x27E1 DUP3 DUP8 PUSH2 0x4830 JUMP JUMPDEST MSTORE PUSH2 0xDEE DUP2 DUP7 PUSH2 0x4830 JUMP JUMPDEST SWAP4 ADD SWAP3 PUSH2 0x2705 JUMP JUMPDEST PUSH1 0x40 MLOAD PUSH3 0x461BCD PUSH1 0xE5 SHL DUP2 MSTORE PUSH1 0x20 PUSH1 0x4 DUP3 ADD MSTORE PUSH1 0x17 PUSH1 0x24 DUP3 ADD MSTORE PUSH32 0x456E6420696E646578206F7574206F6620626F756E6473000000000000000000 PUSH1 0x44 DUP3 ADD MSTORE PUSH1 0x64 SWAP1 REVERT JUMPDEST PUSH1 0x40 MLOAD PUSH3 0x461BCD PUSH1 0xE5 SHL DUP2 MSTORE PUSH1 0x20 PUSH1 0x4 DUP3 ADD MSTORE PUSH1 0x24 DUP1 DUP3 ADD MSTORE PUSH32 0x456E6420696E646578206D7573742062652067726561746572207468616E2073 PUSH1 0x44 DUP3 ADD MSTORE PUSH4 0x1D185C9D PUSH1 0xE2 SHL PUSH1 0x64 DUP3 ADD MSTORE PUSH1 0x84 SWAP1 REVERT JUMPDEST CALLVALUE PUSH2 0x2FC JUMPI PUSH1 0x40 CALLDATASIZE PUSH1 0x3 NOT ADD SLT PUSH2 0x2FC JUMPI PUSH2 0x28A3 PUSH2 0x4349 JUMP JUMPDEST PUSH1 0x1 PUSH1 0x1 PUSH1 0xA0 SHL SUB PUSH2 0x28B3 PUSH2 0x5082 JUMP JUMPDEST AND PUSH1 0x1 PUSH1 0x1 PUSH1 0xA0 SHL SUB DUP3 AND SUB PUSH2 0x28CF JUMPI PUSH2 0xE SWAP1 PUSH1 0x4 CALLDATALOAD PUSH2 0x50A6 JUMP JUMPDEST PUSH4 0x334BD919 PUSH1 0xE1 SHL PUSH1 0x0 MSTORE PUSH1 0x4 PUSH1 0x0 REVERT JUMPDEST CALLVALUE PUSH2 0x2FC JUMPI PUSH2 0x140 CALLDATASIZE PUSH1 0x3 NOT ADD SLT PUSH2 0x2FC JUMPI PUSH2 0x28FA PUSH2 0x4375 JUMP JUMPDEST PUSH1 0x24 CALLDATALOAD PUSH1 0x1 PUSH1 0x1 PUSH1 0x40 SHL SUB DUP2 GT PUSH2 0x2FC JUMPI PUSH2 0x2919 SWAP1 CALLDATASIZE SWAP1 PUSH1 0x4 ADD PUSH2 0x4753 JUMP JUMPDEST SWAP1 PUSH1 0x44 CALLDATALOAD PUSH1 0x1 PUSH1 0x1 PUSH1 0x40 SHL SUB DUP2 GT PUSH2 0x2FC JUMPI PUSH2 0x2939 SWAP1 CALLDATASIZE SWAP1 PUSH1 0x4 ADD PUSH2 0x4753 JUMP JUMPDEST SWAP1 PUSH1 0x64 CALLDATALOAD PUSH1 0x84 CALLDATALOAD SWAP4 PUSH1 0xA4 CALLDATALOAD PUSH1 0x1 PUSH1 0x1 PUSH1 0x40 SHL SUB DUP2 GT PUSH2 0x2FC JUMPI PUSH2 0x2960 SWAP1 CALLDATASIZE SWAP1 PUSH1 0x4 ADD PUSH2 0x4753 JUMP JUMPDEST PUSH1 0xC4 CALLDATALOAD PUSH1 0x1 PUSH1 0x1 PUSH1 0x40 SHL SUB DUP2 GT PUSH2 0x2FC JUMPI PUSH2 0x297F SWAP1 CALLDATASIZE SWAP1 PUSH1 0x4 ADD PUSH2 0x4753 JUMP JUMPDEST PUSH1 0xE4 CALLDATALOAD PUSH1 0x1 PUSH1 0x1 PUSH1 0x40 SHL SUB DUP2 GT PUSH2 0x2FC JUMPI PUSH2 0x299E SWAP1 CALLDATASIZE SWAP1 PUSH1 0x4 ADD PUSH2 0x4753 JUMP JUMPDEST SWAP1 PUSH2 0x104 CALLDATALOAD SWAP3 DUP4 ISZERO ISZERO DUP1 SWAP5 SUB PUSH2 0x2FC JUMPI PUSH2 0x124 CALLDATALOAD SWAP7 PUSH1 0x1 PUSH1 0x1 PUSH1 0x40 SHL SUB DUP9 GT PUSH2 0x2FC JUMPI CALLDATASIZE PUSH1 0x23 DUP10 ADD SLT ISZERO PUSH2 0x2FC JUMPI DUP8 PUSH1 0x4 ADD CALLDATALOAD PUSH2 0x29DA DUP2 PUSH2 0x476E JUMP JUMPDEST SWAP9 PUSH2 0x29E8 PUSH1 0x40 MLOAD SWAP11 DUP12 PUSH2 0x43E1 JUMP JUMPDEST DUP2 DUP11 MSTORE PUSH1 0x24 PUSH1 0x20 DUP12 ADD SWAP3 PUSH1 0x5 SHL DUP3 ADD ADD SWAP1 CALLDATASIZE DUP3 GT PUSH2 0x2FC JUMPI PUSH1 0x24 ADD SWAP2 JUMPDEST DUP2 DUP4 LT PUSH2 0x3435 JUMPI POP POP POP PUSH2 0x2A1E PUSH1 0xFF PUSH1 0x12 SLOAD AND ISZERO PUSH2 0x4844 JUMP JUMPDEST PUSH1 0x1 DUP1 PUSH1 0xA0 SHL SUB AND SWAP9 DUP10 PUSH1 0x0 MSTORE PUSH1 0x4 PUSH1 0x20 MSTORE PUSH3 0x15180 PUSH2 0x2A43 PUSH1 0x40 PUSH1 0x0 KECCAK256 SLOAD TIMESTAMP PUSH2 0x4A84 JUMP JUMPDEST GT ISZERO PUSH2 0x33D7 JUMPI DUP6 MLOAD ISZERO PUSH2 0x339D JUMPI DUP9 MLOAD ISZERO PUSH2 0x3358 JUMPI DUP7 ISZERO PUSH2 0x3313 JUMPI TIMESTAMP DUP2 GT ISZERO PUSH2 0x32B9 JUMPI DUP2 MLOAD ISZERO PUSH2 0x327F JUMPI DUP3 MLOAD ISZERO PUSH2 0x3242 JUMPI PUSH1 0xD SLOAD SWAP7 DUP8 PUSH1 0x0 MSTORE PUSH1 0x2 PUSH1 0x20 MSTORE PUSH1 0x40 PUSH1 0x0 KECCAK256 SWAP10 DUP9 DUP12 SSTORE PUSH1 0x8 DUP12 ADD SWAP8 DUP13 PUSH12 0xFFFFFFFFFFFFFFFFFFFFFFFF PUSH1 0xA0 SHL DUP11 SLOAD AND OR DUP10 SSTORE PUSH1 0xA DUP13 ADD SWAP1 DUP1 MLOAD SWAP1 PUSH1 0x1 PUSH1 0x1 PUSH1 0x40 SHL SUB DUP3 GT PUSH2 0x2DD5 JUMPI DUP2 SWAP1 PUSH2 0x2AC7 DUP5 SLOAD PUSH2 0x438B JUMP JUMPDEST PUSH1 0x1F DUP2 GT PUSH2 0x31EF JUMPI JUMPDEST POP PUSH1 0x20 SWAP1 PUSH1 0x1F DUP4 GT PUSH1 0x1 EQ PUSH2 0x318A JUMPI PUSH1 0x0 SWAP3 PUSH2 0x317F JUMPI JUMPDEST POP POP DUP2 PUSH1 0x1 SHL SWAP2 PUSH1 0x0 NOT SWAP1 PUSH1 0x3 SHL SHR NOT AND OR SWAP1 SSTORE JUMPDEST DUP1 MLOAD PUSH1 0xB DUP13 ADD SWAP2 PUSH1 0x1 PUSH1 0x1 PUSH1 0x40 SHL SUB DUP3 GT PUSH2 0x2DD5 JUMPI DUP2 SWAP1 PUSH2 0x2B1D DUP5 SLOAD PUSH2 0x438B JUMP JUMPDEST PUSH1 0x1F DUP2 GT PUSH2 0x312C JUMPI JUMPDEST POP PUSH1 0x20 SWAP1 PUSH1 0x1F DUP4 GT PUSH1 0x1 EQ PUSH2 0x30C7 JUMPI PUSH1 0x0 SWAP3 PUSH2 0x30BC JUMPI JUMPDEST POP POP DUP2 PUSH1 0x1 SHL SWAP2 PUSH1 0x0 NOT SWAP1 PUSH1 0x3 SHL SHR NOT AND OR SWAP1 SSTORE JUMPDEST PUSH1 0x1 DUP11 ADD SSTORE PUSH1 0x2 DUP10 ADD SSTORE PUSH1 0x0 PUSH1 0x3 DUP10 ADD SSTORE DUP1 MLOAD PUSH1 0xC DUP10 ADD SWAP2 PUSH1 0x1 PUSH1 0x1 PUSH1 0x40 SHL SUB DUP3 GT PUSH2 0x2DD5 JUMPI DUP2 SWAP1 PUSH2 0x2B84 DUP5 SLOAD PUSH2 0x438B JUMP JUMPDEST PUSH1 0x1F DUP2 GT PUSH2 0x3069 JUMPI JUMPDEST POP PUSH1 0x20 SWAP1 PUSH1 0x1F DUP4 GT PUSH1 0x1 EQ PUSH2 0x3004 JUMPI PUSH1 0x0 SWAP3 PUSH2 0x2FF9 JUMPI JUMPDEST POP POP DUP2 PUSH1 0x1 SHL SWAP2 PUSH1 0x0 NOT SWAP1 PUSH1 0x3 SHL SHR NOT AND OR SWAP1 SSTORE JUMPDEST DUP1 MLOAD PUSH1 0xD DUP9 ADD SWAP2 PUSH1 0x1 PUSH1 0x1 PUSH1 0x40 SHL SUB DUP3 GT PUSH2 0x2DD5 JUMPI DUP2 SWAP1 PUSH2 0x2BDA DUP5 SLOAD PUSH2 0x438B JUMP JUMPDEST PUSH1 0x1F DUP2 GT PUSH2 0x2FA6 JUMPI JUMPDEST POP PUSH1 0x20 SWAP1 PUSH1 0x1F DUP4 GT PUSH1 0x1 EQ PUSH2 0x2F41 JUMPI PUSH1 0x0 SWAP3 PUSH2 0x2F36 JUMPI JUMPDEST POP POP DUP2 PUSH1 0x1 SHL SWAP2 PUSH1 0x0 NOT SWAP1 PUSH1 0x3 SHL SHR NOT AND OR SWAP1 SSTORE JUMPDEST DUP1 MLOAD PUSH1 0xE DUP8 ADD SWAP2 PUSH1 0x1 PUSH1 0x1 PUSH1 0x40 SHL SUB DUP3 GT PUSH2 0x2DD5 JUMPI DUP2 SWAP1 PUSH2 0x2C30 DUP5 SLOAD PUSH2 0x438B JUMP JUMPDEST PUSH1 0x1F DUP2 GT PUSH2 0x2EE3 JUMPI JUMPDEST POP PUSH1 0x20 SWAP1 PUSH1 0x1F DUP4 GT PUSH1 0x1 EQ PUSH2 0x2E7E JUMPI PUSH1 0x0 SWAP3 PUSH2 0x2E73 JUMPI JUMPDEST POP POP DUP2 PUSH1 0x1 SHL SWAP2 PUSH1 0x0 NOT SWAP1 PUSH1 0x3 SHL SHR NOT AND OR SWAP1 SSTORE JUMPDEST DUP2 SLOAD PUSH1 0xFF PUSH1 0xA8 SHL NOT AND PUSH1 0xA8 SWAP2 SWAP1 SWAP2 SHL PUSH1 0xFF PUSH1 0xA8 SHL AND OR DUP2 SSTORE TIMESTAMP PUSH1 0x4 DUP6 ADD SSTORE DUP1 SLOAD PUSH1 0xFF PUSH1 0xA0 SHL NOT AND PUSH1 0x1 PUSH1 0xA0 SHL OR SWAP1 SSTORE PUSH1 0x0 PUSH1 0x5 DUP1 DUP6 ADD DUP3 SWAP1 SSTORE DUP6 DUP3 MSTORE PUSH1 0x20 MSTORE PUSH1 0x40 SWAP1 KECCAK256 DUP1 SLOAD PUSH1 0x1 PUSH1 0x40 SHL DUP2 LT ISZERO PUSH2 0x2DD5 JUMPI PUSH2 0x2CC8 SWAP2 PUSH1 0x1 DUP3 SWAP8 SWAP7 SWAP8 ADD DUP2 SSTORE PUSH2 0x44F4 JUMP JUMPDEST DUP2 SLOAD SWAP1 PUSH1 0x3 SHL SWAP1 DUP4 DUP3 SHL SWAP2 PUSH1 0x0 NOT SWAP1 SHL NOT AND OR SWAP1 SSTORE DUP1 PUSH1 0x0 MSTORE PUSH1 0x3 PUSH1 0x20 MSTORE PUSH1 0x40 PUSH1 0x0 KECCAK256 PUSH1 0x1 PUSH1 0xFF NOT DUP3 SLOAD AND OR SWAP1 SSTORE DUP3 PUSH1 0x0 MSTORE PUSH1 0x4 PUSH1 0x20 MSTORE TIMESTAMP PUSH1 0x40 PUSH1 0x0 KECCAK256 SSTORE PUSH1 0x9 PUSH1 0x0 SWAP5 ADD SWAP4 JUMPDEST DUP3 MLOAD DUP2 LT ISZERO PUSH2 0x2E30 JUMPI PUSH1 0x1 PUSH1 0x1 PUSH1 0xA0 SHL SUB PUSH2 0x2D29 DUP3 DUP6 PUSH2 0x4830 JUMP JUMPDEST MLOAD AND PUSH1 0x0 MSTORE PUSH1 0x7 PUSH1 0x20 MSTORE PUSH1 0xFF PUSH1 0x40 PUSH1 0x0 KECCAK256 SLOAD AND ISZERO PUSH2 0x2DEB JUMPI PUSH1 0x0 DUP3 DUP2 MSTORE PUSH1 0x8 PUSH1 0x20 MSTORE PUSH1 0x40 SWAP1 DUP2 SWAP1 KECCAK256 PUSH1 0x1 PUSH1 0x1 PUSH1 0xA0 SHL SUB PUSH2 0x2D63 DUP5 DUP8 PUSH2 0x4830 JUMP JUMPDEST MLOAD PUSH1 0x1 PUSH1 0x1 PUSH1 0xA0 SHL SUB SWAP2 AND DUP2 AND PUSH1 0x0 SWAP1 DUP2 MSTORE PUSH1 0x20 SWAP3 SWAP1 SWAP3 MSTORE SWAP2 SWAP1 KECCAK256 DUP1 SLOAD PUSH1 0xFF NOT AND PUSH1 0x1 OR SWAP1 SSTORE PUSH2 0x2D93 DUP3 DUP6 PUSH2 0x4830 JUMP JUMPDEST MLOAD AND SWAP1 DUP6 SLOAD SWAP2 PUSH1 0x1 PUSH1 0x40 SHL DUP4 LT ISZERO PUSH2 0x2DD5 JUMPI PUSH2 0x2DB6 DUP4 PUSH1 0x1 DUP1 SWAP6 ADD DUP10 SSTORE DUP9 PUSH2 0x44F4 JUMP JUMPDEST DUP2 SWAP3 SWAP2 SLOAD SWAP1 PUSH1 0x3 SHL SWAP2 DUP3 SHL SWAP2 DUP6 DUP1 PUSH1 0xA0 SHL SUB SWAP1 SHL NOT AND OR SWAP1 SSTORE ADD PUSH2 0x2D0E JUMP JUMPDEST PUSH4 0x4E487B71 PUSH1 0xE0 SHL PUSH1 0x0 MSTORE PUSH1 0x41 PUSH1 0x4 MSTORE PUSH1 0x24 PUSH1 0x0 REVERT JUMPDEST PUSH1 0x40 MLOAD PUSH3 0x461BCD PUSH1 0xE5 SHL DUP2 MSTORE PUSH1 0x20 PUSH1 0x4 DUP3 ADD MSTORE PUSH1 0x1A PUSH1 0x24 DUP3 ADD MSTORE PUSH32 0x546F6B656E206E6F7420676C6F62616C6C7920616C6C6F776564000000000000 PUSH1 0x44 DUP3 ADD MSTORE PUSH1 0x64 SWAP1 REVERT JUMPDEST PUSH1 0x20 DUP3 DUP6 PUSH32 0x633109EEC20320EDED000FC1E2634211AA7E92BA3F5B15FAF6DCDAFCA05094E4 DUP4 PUSH1 0x40 MLOAD DUP5 DUP2 MSTORE LOG2 PUSH2 0x2E68 PUSH1 0xD SLOAD PUSH2 0x4785 JUMP JUMPDEST PUSH1 0xD SSTORE PUSH1 0x40 MLOAD SWAP1 DUP2 MSTORE RETURN JUMPDEST ADD MLOAD SWAP1 POP DUP10 DUP1 PUSH2 0x2C50 JUMP JUMPDEST PUSH1 0x0 DUP6 DUP2 MSTORE DUP3 DUP2 KECCAK256 SWAP4 POP PUSH1 0x1F NOT DUP6 AND SWAP1 JUMPDEST DUP2 DUP2 LT PUSH2 0x2ECB JUMPI POP SWAP1 DUP5 PUSH1 0x1 SWAP6 SWAP5 SWAP4 SWAP3 LT PUSH2 0x2EB2 JUMPI JUMPDEST POP POP POP DUP2 SHL ADD SWAP1 SSTORE PUSH2 0x2C65 JUMP JUMPDEST ADD MLOAD PUSH1 0x0 NOT PUSH1 0xF8 DUP5 PUSH1 0x3 SHL AND SHR NOT AND SWAP1 SSTORE DUP10 DUP1 DUP1 PUSH2 0x2EA5 JUMP JUMPDEST SWAP3 SWAP4 PUSH1 0x20 PUSH1 0x1 DUP2 SWAP3 DUP8 DUP7 ADD MLOAD DUP2 SSTORE ADD SWAP6 ADD SWAP4 ADD PUSH2 0x2E8F JUMP JUMPDEST SWAP1 SWAP2 POP DUP4 PUSH1 0x0 MSTORE PUSH1 0x20 PUSH1 0x0 KECCAK256 PUSH1 0x1F DUP5 ADD PUSH1 0x5 SHR DUP2 ADD SWAP2 PUSH1 0x20 DUP6 LT PUSH2 0x2F2C JUMPI JUMPDEST SWAP1 PUSH1 0x1F DUP6 SWAP5 SWAP4 SWAP3 ADD PUSH1 0x5 SHR ADD SWAP1 JUMPDEST DUP2 DUP2 LT PUSH2 0x2F1D JUMPI POP PUSH2 0x2C39 JUMP JUMPDEST PUSH1 0x0 DUP2 SSTORE DUP5 SWAP4 POP PUSH1 0x1 ADD PUSH2 0x2F10 JUMP JUMPDEST SWAP1 SWAP2 POP DUP2 SWAP1 PUSH2 0x2F02 JUMP JUMPDEST ADD MLOAD SWAP1 POP DUP11 DUP1 PUSH2 0x2BFA JUMP JUMPDEST PUSH1 0x0 DUP6 DUP2 MSTORE DUP3 DUP2 KECCAK256 SWAP4 POP PUSH1 0x1F NOT DUP6 AND SWAP1 JUMPDEST DUP2 DUP2 LT PUSH2 0x2F8E JUMPI POP SWAP1 DUP5 PUSH1 0x1 SWAP6 SWAP5 SWAP4 SWAP3 LT PUSH2 0x2F75 JUMPI JUMPDEST POP POP POP DUP2 SHL ADD SWAP1 SSTORE PUSH2 0x2C0F JUMP JUMPDEST ADD MLOAD PUSH1 0x0 NOT PUSH1 0xF8 DUP5 PUSH1 0x3 SHL AND SHR NOT AND SWAP1 SSTORE DUP11 DUP1 DUP1 PUSH2 0x2F68 JUMP JUMPDEST SWAP3 SWAP4 PUSH1 0x20 PUSH1 0x1 DUP2 SWAP3 DUP8 DUP7 ADD MLOAD DUP2 SSTORE ADD SWAP6 ADD SWAP4 ADD PUSH2 0x2F52 JUMP JUMPDEST SWAP1 SWAP2 POP DUP4 PUSH1 0x0 MSTORE PUSH1 0x20 PUSH1 0x0 KECCAK256 PUSH1 0x1F DUP5 ADD PUSH1 0x5 SHR DUP2 ADD SWAP2 PUSH1 0x20 DUP6 LT PUSH2 0x2FEF JUMPI JUMPDEST SWAP1 PUSH1 0x1F DUP6 SWAP5 SWAP4 SWAP3 ADD PUSH1 0x5 SHR ADD SWAP1 JUMPDEST DUP2 DUP2 LT PUSH2 0x2FE0 JUMPI POP PUSH2 0x2BE3 JUMP JUMPDEST PUSH1 0x0 DUP2 SSTORE DUP5 SWAP4 POP PUSH1 0x1 ADD PUSH2 0x2FD3 JUMP JUMPDEST SWAP1 SWAP2 POP DUP2 SWAP1 PUSH2 0x2FC5 JUMP JUMPDEST ADD MLOAD SWAP1 POP DUP12 DUP1 PUSH2 0x2BA4 JUMP JUMPDEST PUSH1 0x0 DUP6 DUP2 MSTORE DUP3 DUP2 KECCAK256 SWAP4 POP PUSH1 0x1F NOT DUP6 AND SWAP1 JUMPDEST DUP2 DUP2 LT PUSH2 0x3051 JUMPI POP SWAP1 DUP5 PUSH1 0x1 SWAP6 SWAP5 SWAP4 SWAP3 LT PUSH2 0x3038 JUMPI JUMPDEST POP POP POP DUP2 SHL ADD SWAP1 SSTORE PUSH2 0x2BB9 JUMP JUMPDEST ADD MLOAD PUSH1 0x0 NOT PUSH1 0xF8 DUP5 PUSH1 0x3 SHL AND SHR NOT AND SWAP1 SSTORE DUP12 DUP1 DUP1 PUSH2 0x302B JUMP JUMPDEST SWAP3 SWAP4 PUSH1 0x20 PUSH1 0x1 DUP2 SWAP3 DUP8 DUP7 ADD MLOAD DUP2 SSTORE ADD SWAP6 ADD SWAP4 ADD PUSH2 0x3015 JUMP JUMPDEST SWAP1 SWAP2 POP DUP4 PUSH1 0x0 MSTORE PUSH1 0x20 PUSH1 0x0 KECCAK256 PUSH1 0x1F DUP5 ADD PUSH1 0x5 SHR DUP2 ADD SWAP2 PUSH1 0x20 DUP6 LT PUSH2 0x30B2 JUMPI JUMPDEST SWAP1 PUSH1 0x1F DUP6 SWAP5 SWAP4 SWAP3 ADD PUSH1 0x5 SHR ADD SWAP1 JUMPDEST DUP2 DUP2 LT PUSH2 0x30A3 JUMPI POP PUSH2 0x2B8D JUMP JUMPDEST PUSH1 0x0 DUP2 SSTORE DUP5 SWAP4 POP PUSH1 0x1 ADD PUSH2 0x3096 JUMP JUMPDEST SWAP1 SWAP2 POP DUP2 SWAP1 PUSH2 0x3088 JUMP JUMPDEST ADD MLOAD SWAP1 POP DUP15 DUP1 PUSH2 0x2B3D JUMP JUMPDEST PUSH1 0x0 DUP6 DUP2 MSTORE DUP3 DUP2 KECCAK256 SWAP4 POP PUSH1 0x1F NOT DUP6 AND SWAP1 JUMPDEST DUP2 DUP2 LT PUSH2 0x3114 JUMPI POP SWAP1 DUP5 PUSH1 0x1 SWAP6 SWAP5 SWAP4 SWAP3 LT PUSH2 0x30FB JUMPI JUMPDEST POP POP POP DUP2 SHL ADD SWAP1 SSTORE PUSH2 0x2B52 JUMP JUMPDEST ADD MLOAD PUSH1 0x0 NOT PUSH1 0xF8 DUP5 PUSH1 0x3 SHL AND SHR NOT AND SWAP1 SSTORE DUP15 DUP1 DUP1 PUSH2 0x30EE JUMP JUMPDEST SWAP3 SWAP4 PUSH1 0x20 PUSH1 0x1 DUP2 SWAP3 DUP8 DUP7 ADD MLOAD DUP2 SSTORE ADD SWAP6 ADD SWAP4 ADD PUSH2 0x30D8 JUMP JUMPDEST SWAP1 SWAP2 POP DUP4 PUSH1 0x0 MSTORE PUSH1 0x20 PUSH1 0x0 KECCAK256 PUSH1 0x1F DUP5 ADD PUSH1 0x5 SHR DUP2 ADD SWAP2 PUSH1 0x20 DUP6 LT PUSH2 0x3175 JUMPI JUMPDEST SWAP1 PUSH1 0x1F DUP6 SWAP5 SWAP4 SWAP3 ADD PUSH1 0x5 SHR ADD SWAP1 JUMPDEST DUP2 DUP2 LT PUSH2 0x3166 JUMPI POP PUSH2 0x2B26 JUMP JUMPDEST PUSH1 0x0 DUP2 SSTORE DUP5 SWAP4 POP PUSH1 0x1 ADD PUSH2 0x3159 JUMP JUMPDEST SWAP1 SWAP2 POP DUP2 SWAP1 PUSH2 0x314B JUMP JUMPDEST ADD MLOAD SWAP1 POP DUP16 DUP1 PUSH2 0x2AE7 JUMP JUMPDEST PUSH1 0x0 DUP6 DUP2 MSTORE DUP3 DUP2 KECCAK256 SWAP4 POP PUSH1 0x1F NOT DUP6 AND SWAP1 JUMPDEST DUP2 DUP2 LT PUSH2 0x31D7 JUMPI POP SWAP1 DUP5 PUSH1 0x1 SWAP6 SWAP5 SWAP4 SWAP3 LT PUSH2 0x31BE JUMPI JUMPDEST POP POP POP DUP2 SHL ADD SWAP1 SSTORE PUSH2 0x2AFC JUMP JUMPDEST ADD MLOAD PUSH1 0x0 NOT PUSH1 0xF8 DUP5 PUSH1 0x3 SHL AND SHR NOT AND SWAP1 SSTORE DUP16 DUP1 DUP1 PUSH2 0x31B1 JUMP JUMPDEST SWAP3 SWAP4 PUSH1 0x20 PUSH1 0x1 DUP2 SWAP3 DUP8 DUP7 ADD MLOAD DUP2 SSTORE ADD SWAP6 ADD SWAP4 ADD PUSH2 0x319B JUMP JUMPDEST SWAP1 SWAP2 POP DUP4 PUSH1 0x0 MSTORE PUSH1 0x20 PUSH1 0x0 KECCAK256 PUSH1 0x1F DUP5 ADD PUSH1 0x5 SHR DUP2 ADD SWAP2 PUSH1 0x20 DUP6 LT PUSH2 0x3238 JUMPI JUMPDEST SWAP1 PUSH1 0x1F DUP6 SWAP5 SWAP4 SWAP3 ADD PUSH1 0x5 SHR ADD SWAP1 JUMPDEST DUP2 DUP2 LT PUSH2 0x3229 JUMPI POP PUSH2 0x2AD0 JUMP JUMPDEST PUSH1 0x0 DUP2 SSTORE DUP5 SWAP4 POP PUSH1 0x1 ADD PUSH2 0x321C JUMP JUMPDEST SWAP1 SWAP2 POP DUP2 SWAP1 PUSH2 0x320E JUMP JUMPDEST PUSH1 0x40 MLOAD PUSH3 0x461BCD PUSH1 0xE5 SHL DUP2 MSTORE PUSH1 0x20 PUSH1 0x4 DUP3 ADD MSTORE PUSH1 0x15 PUSH1 0x24 DUP3 ADD MSTORE PUSH21 0x21B0BA32B3B7B93C9034B9903932B8BAB4B932B217 PUSH1 0x59 SHL PUSH1 0x44 DUP3 ADD MSTORE PUSH1 0x64 SWAP1 REVERT JUMPDEST PUSH1 0x40 MLOAD PUSH3 0x461BCD PUSH1 0xE5 SHL DUP2 MSTORE PUSH1 0x20 PUSH1 0x4 DUP3 ADD MSTORE PUSH1 0x12 PUSH1 0x24 DUP3 ADD MSTORE PUSH18 0x24B6B0B3B29034B9903932B8BAB4B932B217 PUSH1 0x71 SHL PUSH1 0x44 DUP3 ADD MSTORE PUSH1 0x64 SWAP1 REVERT JUMPDEST PUSH1 0x40 MLOAD PUSH3 0x461BCD PUSH1 0xE5 SHL DUP2 MSTORE PUSH1 0x20 PUSH1 0x4 DUP3 ADD MSTORE PUSH1 0x2C PUSH1 0x24 DUP3 ADD MSTORE PUSH32 0x54686520646561646C696E652073686F756C642062652061206461746520696E PUSH1 0x44 DUP3 ADD MSTORE PUSH12 0x103A343290333ABA3AB93297 PUSH1 0xA1 SHL PUSH1 0x64 DUP3 ADD MSTORE PUSH1 0x84 SWAP1 REVERT JUMPDEST PUSH1 0x40 MLOAD PUSH3 0x461BCD PUSH1 0xE5 SHL DUP2 MSTORE PUSH1 0x20 PUSH1 0x4 DUP3 ADD MSTORE PUSH1 0x1E PUSH1 0x24 DUP3 ADD MSTORE PUSH32 0x546172676574206D7573742062652067726561746572207468616E20302E0000 PUSH1 0x44 DUP3 ADD MSTORE PUSH1 0x64 SWAP1 REVERT JUMPDEST PUSH1 0x40 MLOAD PUSH3 0x461BCD PUSH1 0xE5 SHL DUP2 MSTORE PUSH1 0x20 PUSH1 0x4 DUP3 ADD MSTORE PUSH1 0x18 PUSH1 0x24 DUP3 ADD MSTORE PUSH32 0x4465736372697074696F6E2069732072657175697265642E0000000000000000 PUSH1 0x44 DUP3 ADD MSTORE PUSH1 0x64 SWAP1 REVERT JUMPDEST PUSH1 0x40 MLOAD PUSH3 0x461BCD PUSH1 0xE5 SHL DUP2 MSTORE PUSH1 0x20 PUSH1 0x4 DUP3 ADD MSTORE PUSH1 0x12 PUSH1 0x24 DUP3 ADD MSTORE PUSH18 0x2A34BA36329034B9903932B8BAB4B932B217 PUSH1 0x71 SHL PUSH1 0x44 DUP3 ADD MSTORE PUSH1 0x64 SWAP1 REVERT JUMPDEST PUSH1 0x40 MLOAD PUSH3 0x461BCD PUSH1 0xE5 SHL DUP2 MSTORE PUSH1 0x20 PUSH1 0x4 DUP3 ADD MSTORE PUSH1 0x30 PUSH1 0x24 DUP3 ADD MSTORE PUSH32 0x596F752063616E206F6E6C7920637265617465206F6E652063616D706169676E PUSH1 0x44 DUP3 ADD MSTORE PUSH16 0x1032BB32B93C90191A103437BAB93997 PUSH1 0x81 SHL PUSH1 0x64 DUP3 ADD MSTORE PUSH1 0x84 SWAP1 REVERT JUMPDEST DUP3 CALLDATALOAD PUSH1 0x1 PUSH1 0x1 PUSH1 0xA0 SHL SUB DUP2 AND DUP2 SUB PUSH2 0x2FC JUMPI DUP2 MSTORE PUSH1 0x20 SWAP3 DUP4 ADD SWAP3 ADD PUSH2 0x2A05 JUMP JUMPDEST CALLVALUE PUSH2 0x2FC JUMPI PUSH1 0x40 CALLDATASIZE PUSH1 0x3 NOT ADD SLT PUSH2 0x2FC JUMPI PUSH2 0x346E PUSH2 0x4349 JUMP JUMPDEST PUSH1 0x4 CALLDATALOAD PUSH1 0x0 MSTORE PUSH1 0xA PUSH1 0x20 MSTORE PUSH1 0x40 PUSH1 0x0 KECCAK256 SWAP1 PUSH1 0x1 DUP1 PUSH1 0xA0 SHL SUB AND PUSH1 0x0 MSTORE PUSH1 0x20 MSTORE PUSH1 0x20 PUSH1 0x40 PUSH1 0x0 KECCAK256 SLOAD PUSH1 0x40 MLOAD SWAP1 DUP2 MSTORE RETURN JUMPDEST CALLVALUE PUSH2 0x2FC JUMPI PUSH2 0x34AB CALLDATASIZE PUSH2 0x4522 JUMP JUMPDEST SWAP1 PUSH1 0x0 MSTORE PUSH1 0x1 PUSH1 0x20 MSTORE PUSH1 0x40 PUSH1 0x0 KECCAK256 DUP1 SLOAD DUP3 LT ISZERO PUSH2 0x2FC JUMPI PUSH2 0x34FB SWAP2 PUSH2 0x34CF SWAP2 PUSH2 0x46E5 JUMP JUMPDEST POP PUSH2 0x34D9 DUP2 PUSH2 0x4402 JUMP JUMPDEST SWAP1 PUSH1 0xFF PUSH1 0x2 PUSH1 0x1 DUP4 ADD SLOAD SWAP3 ADD SLOAD AND PUSH1 0x40 MLOAD SWAP4 DUP5 SWAP4 PUSH1 0x60 DUP6 MSTORE PUSH1 0x60 DUP6 ADD SWAP1 PUSH2 0x44B3 JUMP JUMPDEST SWAP2 PUSH1 0x20 DUP5 ADD MSTORE ISZERO ISZERO PUSH1 0x40 DUP4 ADD MSTORE SUB SWAP1 RETURN JUMPDEST CALLVALUE PUSH2 0x2FC JUMPI PUSH1 0x40 CALLDATASIZE PUSH1 0x3 NOT ADD SLT PUSH2 0x2FC JUMPI PUSH2 0xE PUSH1 0x4 CALLDATALOAD PUSH2 0x352B PUSH2 0x4349 JUMP JUMPDEST SWAP1 PUSH2 0x3538 PUSH2 0x6C2 DUP3 PUSH2 0x4A91 JUMP JUMPDEST PUSH2 0x4FDD JUMP JUMPDEST CALLVALUE PUSH2 0x2FC JUMPI PUSH2 0x354B CALLDATASIZE PUSH2 0x4522 JUMP JUMPDEST SWAP1 DUP1 DUP3 GT DUP1 PUSH2 0x36B6 JUMPI JUMPDEST PUSH2 0x355E SWAP1 PUSH2 0x4AB2 JUMP JUMPDEST PUSH2 0x356B PUSH2 0xC95 DUP3 DUP5 PUSH2 0x4A84 JUMP JUMPDEST SWAP2 PUSH1 0x0 SWAP2 JUMPDEST DUP2 DUP2 LT PUSH2 0x35C5 JUMPI POP POP PUSH2 0x3582 DUP2 PUSH2 0x4B74 JUMP JUMPDEST SWAP2 PUSH1 0x0 JUMPDEST DUP3 DUP2 LT PUSH2 0x359B JUMPI PUSH1 0x40 MLOAD DUP1 PUSH2 0x5C8 DUP7 DUP3 PUSH2 0x4685 JUMP JUMPDEST DUP1 PUSH2 0x35A8 PUSH1 0x1 SWAP3 DUP5 PUSH2 0x4830 JUMP JUMPDEST MLOAD PUSH2 0x35B3 DUP3 DUP8 PUSH2 0x4830 JUMP JUMPDEST MSTORE PUSH2 0x35BE DUP2 DUP7 PUSH2 0x4830 JUMP JUMPDEST POP ADD PUSH2 0x3586 JUMP JUMPDEST DUP1 PUSH1 0x0 MSTORE PUSH1 0x2 PUSH1 0x20 MSTORE PUSH1 0xFF PUSH1 0x8 PUSH1 0x40 PUSH1 0x0 KECCAK256 ADD SLOAD PUSH1 0xA0 SHR AND PUSH1 0x4 DUP2 LT ISZERO PUSH2 0x5CC JUMPI PUSH1 0x2 EQ PUSH2 0x35F6 JUMPI JUMPDEST PUSH1 0x1 ADD PUSH2 0x3570 JUMP JUMPDEST SWAP2 DUP3 PUSH1 0x0 MSTORE PUSH1 0x2 PUSH1 0x20 MSTORE PUSH1 0x40 PUSH1 0x0 KECCAK256 PUSH1 0x40 MLOAD SWAP2 PUSH2 0x3612 DUP4 PUSH2 0x43C5 JUMP JUMPDEST DUP2 SLOAD DUP4 MSTORE PUSH1 0x1 DUP3 ADD SLOAD PUSH1 0x20 DUP5 ADD MSTORE PUSH1 0x2 DUP3 ADD SLOAD PUSH1 0x40 DUP5 ADD MSTORE PUSH1 0x3 DUP3 ADD SLOAD PUSH1 0x60 DUP5 ADD MSTORE PUSH1 0x4 DUP3 ADD SLOAD PUSH1 0x80 DUP5 ADD MSTORE PUSH1 0x5 DUP3 ADD SLOAD PUSH1 0xA0 DUP5 ADD MSTORE PUSH1 0x6 DUP3 ADD SLOAD PUSH1 0xC0 DUP5 ADD MSTORE PUSH1 0x7 DUP3 ADD SLOAD PUSH1 0xE0 DUP5 ADD MSTORE PUSH1 0x8 DUP3 ADD SLOAD SWAP3 PUSH1 0x1 DUP1 PUSH1 0xA0 SHL SUB DUP5 AND PUSH2 0x100 DUP3 ADD MSTORE PUSH1 0xFF DUP5 PUSH1 0xA0 SHR AND PUSH1 0x4 DUP2 LT ISZERO PUSH2 0x5CC JUMPI PUSH1 0xE PUSH2 0x36AE SWAP5 PUSH1 0xFF PUSH1 0x1 SWAP8 PUSH2 0xDD3 SWAP5 PUSH2 0x120 DUP8 ADD MSTORE PUSH1 0xA8 SHR AND ISZERO ISZERO PUSH2 0x140 DUP6 ADD MSTORE PUSH2 0x55A PUSH1 0x9 DUP3 ADD PUSH2 0x47DC JUMP JUMPDEST SWAP3 SWAP1 POP PUSH2 0x35EE JUMP JUMPDEST POP PUSH1 0xD SLOAD DUP3 GT ISZERO PUSH2 0x3555 JUMP JUMPDEST CALLVALUE PUSH2 0x2FC JUMPI PUSH1 0x20 CALLDATASIZE PUSH1 0x3 NOT ADD SLT PUSH2 0x2FC JUMPI PUSH1 0x20 PUSH2 0x36E0 PUSH1 0x4 CALLDATALOAD PUSH2 0x4A91 JUMP JUMPDEST PUSH1 0x40 MLOAD SWAP1 DUP2 MSTORE RETURN JUMPDEST CALLVALUE PUSH2 0x2FC JUMPI PUSH1 0x40 CALLDATASIZE PUSH1 0x3 NOT ADD SLT PUSH2 0x2FC JUMPI PUSH2 0x3701 PUSH2 0x4349 JUMP JUMPDEST PUSH1 0x4 CALLDATALOAD PUSH1 0x0 MSTORE PUSH1 0xC PUSH1 0x20 MSTORE PUSH1 0x40 PUSH1 0x0 KECCAK256 SWAP1 PUSH1 0x1 DUP1 PUSH1 0xA0 SHL SUB AND PUSH1 0x0 MSTORE PUSH1 0x20 MSTORE PUSH1 0x20 PUSH1 0x40 PUSH1 0x0 KECCAK256 SLOAD PUSH1 0x40 MLOAD SWAP1 DUP2 MSTORE RETURN JUMPDEST CALLVALUE PUSH2 0x2FC JUMPI PUSH1 0x40 CALLDATASIZE PUSH1 0x3 NOT ADD SLT PUSH2 0x2FC JUMPI PUSH2 0x3749 PUSH2 0x4375 JUMP JUMPDEST PUSH1 0x1 PUSH1 0x1 PUSH1 0xA0 SHL SUB AND PUSH1 0x0 SWAP1 DUP2 MSTORE PUSH1 0x5 PUSH1 0x20 MSTORE PUSH1 0x40 SWAP1 KECCAK256 DUP1 SLOAD PUSH1 0x24 CALLDATALOAD SWAP2 SWAP1 DUP3 LT ISZERO PUSH2 0x2FC JUMPI PUSH1 0x20 SWAP2 PUSH2 0x377A SWAP2 PUSH2 0x44F4 JUMP JUMPDEST SWAP1 SLOAD SWAP1 PUSH1 0x3 SHL SHR PUSH1 0x40 MLOAD SWAP1 DUP2 MSTORE RETURN JUMPDEST CALLVALUE PUSH2 0x2FC JUMPI PUSH1 0x20 CALLDATASIZE PUSH1 0x3 NOT ADD SLT PUSH2 0x2FC JUMPI PUSH1 0x4 CALLDATALOAD PUSH1 0x0 MSTORE PUSH1 0x2 PUSH1 0x20 MSTORE PUSH1 0x40 PUSH1 0x0 KECCAK256 DUP1 SLOAD PUSH1 0x1 DUP3 ADD SLOAD SWAP2 PUSH1 0x2 DUP2 ADD SLOAD SWAP1 PUSH1 0x3 DUP2 ADD SLOAD PUSH1 0x4 DUP3 ADD SLOAD PUSH1 0x5 DUP4 ADD SLOAD PUSH1 0x6 DUP5 ADD SLOAD PUSH1 0x7 DUP6 ADD SLOAD PUSH1 0x8 DUP7 ADD SLOAD SWAP2 PUSH1 0xA DUP8 ADD PUSH2 0x37E4 SWAP1 PUSH2 0x4402 JUMP JUMPDEST SWAP4 PUSH2 0x37F1 PUSH1 0xB DUP10 ADD PUSH2 0x4402 JUMP JUMPDEST SWAP6 PUSH2 0x37FE PUSH1 0xC DUP11 ADD PUSH2 0x4402 JUMP JUMPDEST SWAP8 PUSH2 0x380B PUSH1 0xD DUP12 ADD PUSH2 0x4402 JUMP JUMPDEST SWAP10 PUSH1 0xE ADD PUSH2 0x3818 SWAP1 PUSH2 0x4402 JUMP JUMPDEST SWAP11 PUSH1 0x40 MLOAD SWAP14 DUP15 DUP1 SWAP15 DUP2 MSTORE PUSH1 0x20 ADD MSTORE PUSH1 0x40 DUP14 ADD MSTORE PUSH1 0x60 DUP13 ADD MSTORE PUSH1 0x80 DUP12 ADD MSTORE PUSH1 0xA0 DUP11 ADD MSTORE PUSH1 0xC0 DUP10 ADD MSTORE PUSH1 0xE0 DUP9 ADD MSTORE PUSH1 0x1 PUSH1 0xA0 SHL PUSH1 0x1 SWAP1 SUB DUP2 AND PUSH2 0x100 DUP9 ADD MSTORE PUSH2 0x120 DUP8 ADD DUP2 PUSH1 0xA0 SHR PUSH1 0xFF AND SWAP1 PUSH2 0x386B SWAP2 PUSH2 0x44A6 JUMP JUMPDEST PUSH1 0xA8 SHR PUSH1 0xFF AND ISZERO ISZERO PUSH2 0x140 DUP8 ADD MSTORE PUSH2 0x160 DUP7 ADD PUSH2 0x200 SWAP1 MSTORE PUSH2 0x200 DUP7 ADD PUSH2 0x3891 SWAP2 PUSH2 0x44B3 JUMP JUMPDEST DUP6 DUP2 SUB PUSH2 0x180 DUP8 ADD MSTORE PUSH2 0x38A3 SWAP2 PUSH2 0x44B3 JUMP JUMPDEST DUP5 DUP2 SUB PUSH2 0x1A0 DUP7 ADD MSTORE PUSH2 0x38B5 SWAP2 PUSH2 0x44B3 JUMP JUMPDEST DUP4 DUP2 SUB PUSH2 0x1C0 DUP6 ADD MSTORE PUSH2 0x38C7 SWAP2 PUSH2 0x44B3 JUMP JUMPDEST DUP3 DUP2 SUB PUSH2 0x1E0 DUP5 ADD MSTORE PUSH2 0x5C8 SWAP2 PUSH2 0x44B3 JUMP JUMPDEST CALLVALUE PUSH2 0x2FC JUMPI PUSH1 0x60 CALLDATASIZE PUSH1 0x3 NOT ADD SLT PUSH2 0x2FC JUMPI PUSH1 0x4 CALLDATALOAD PUSH1 0x24 CALLDATALOAD PUSH2 0x38F8 PUSH2 0x435F JUMP JUMPDEST SWAP2 PUSH2 0x3901 PUSH2 0x4CCA JUMP JUMPDEST DUP1 PUSH1 0x0 MSTORE PUSH1 0x2 PUSH1 0x20 MSTORE PUSH1 0x40 PUSH1 0x0 KECCAK256 SWAP3 PUSH1 0x8 DUP5 ADD SWAP4 PUSH2 0x392F PUSH1 0xFF DUP7 SLOAD PUSH2 0x7E0 PUSH1 0x1 DUP1 PUSH1 0xA0 SHL SUB DUP3 AND CALLER EQ PUSH2 0x49BD JUMP JUMPDEST DUP3 PUSH1 0x0 MSTORE PUSH1 0x1 PUSH1 0x20 MSTORE PUSH2 0x3946 DUP5 PUSH1 0x40 PUSH1 0x0 KECCAK256 PUSH2 0x46E5 JUMP JUMPDEST POP SWAP2 PUSH1 0x2 DUP4 ADD SWAP1 DUP2 SLOAD PUSH2 0x395C PUSH1 0xFF DUP3 AND ISZERO PUSH2 0x4A45 JUMP JUMPDEST DUP6 PUSH1 0x0 MSTORE PUSH1 0x9 PUSH1 0x20 MSTORE PUSH1 0x40 PUSH1 0x0 KECCAK256 PUSH1 0x1 DUP1 PUSH1 0xA0 SHL SUB DUP4 AND PUSH1 0x0 MSTORE PUSH1 0x20 MSTORE PUSH1 0x1 PUSH1 0x40 PUSH1 0x0 KECCAK256 SLOAD SWAP6 ADD SWAP4 DUP5 SLOAD DUP1 SWAP7 LT PUSH2 0x3AB1 JUMPI PUSH2 0x3A41 SWAP6 PUSH1 0x20 SWAP5 PUSH1 0x1 PUSH1 0x5 SWAP5 PUSH1 0xFF NOT AND OR SWAP1 SSTORE DUP8 PUSH1 0x0 MSTORE PUSH1 0x9 DUP6 MSTORE PUSH1 0x40 PUSH1 0x0 KECCAK256 PUSH1 0x1 DUP1 PUSH1 0xA0 SHL SUB DUP6 AND PUSH1 0x0 MSTORE DUP6 MSTORE PUSH2 0x39CB PUSH1 0x40 PUSH1 0x0 KECCAK256 SWAP2 DUP3 SLOAD PUSH2 0x4A84 JUMP JUMPDEST SWAP1 SSTORE DUP5 SLOAD PUSH1 0x0 DUP9 DUP2 MSTORE PUSH1 0xA DUP7 MSTORE PUSH1 0x40 DUP1 DUP3 KECCAK256 PUSH1 0x1 PUSH1 0x1 PUSH1 0xA0 SHL SUB DUP8 AND DUP4 MSTORE DUP8 MSTORE SWAP1 KECCAK256 DUP1 SLOAD SWAP1 SWAP2 PUSH2 0x39FA SWAP2 PUSH2 0x4A84 JUMP JUMPDEST SWAP1 SSTORE ADD PUSH2 0x3A07 DUP2 SLOAD PUSH2 0x4785 JUMP JUMPDEST SWAP1 SSTORE SWAP6 SLOAD DUP3 SLOAD PUSH1 0x40 MLOAD PUSH4 0xA9059CBB PUSH1 0xE0 SHL DUP2 MSTORE PUSH1 0x1 PUSH1 0x1 PUSH1 0xA0 SHL SUB SWAP3 DUP4 AND PUSH1 0x4 DUP3 ADD MSTORE PUSH1 0x24 DUP2 ADD SWAP2 SWAP1 SWAP2 MSTORE SWAP7 AND SWAP6 SWAP3 DUP4 SWAP1 DUP2 SWAP1 PUSH1 0x44 DUP3 ADD SWAP1 JUMP JUMPDEST SUB DUP2 PUSH1 0x0 DUP10 GAS CALL SWAP1 DUP2 ISZERO PUSH2 0xC35 JUMPI PUSH32 0xD11C7324995CA828941E0AD466BE992DF3A15AC5A9AE444745353ABFD10AD32 SWAP3 PUSH1 0x20 SWAP3 PUSH2 0x3A96 JUMPI JUMPDEST POP SLOAD PUSH1 0x40 MLOAD SWAP1 DUP2 MSTORE LOG4 PUSH1 0x1 PUSH1 0x0 DUP1 MLOAD PUSH1 0x20 PUSH2 0x52A4 DUP4 CODECOPY DUP2 MLOAD SWAP2 MSTORE SSTORE STOP JUMPDEST PUSH2 0x3AAC SWAP1 DUP4 RETURNDATASIZE DUP6 GT PUSH2 0xC2E JUMPI PUSH2 0xC21 DUP2 DUP4 PUSH2 0x43E1 JUMP JUMPDEST PUSH2 0x3A79 JUMP JUMPDEST PUSH1 0x40 MLOAD PUSH3 0x461BCD PUSH1 0xE5 SHL DUP2 MSTORE PUSH1 0x20 PUSH1 0x4 DUP3 ADD MSTORE PUSH1 0x18 PUSH1 0x24 DUP3 ADD MSTORE PUSH32 0x496E73756666696369656E7420746F6B656E2066756E64730000000000000000 PUSH1 0x44 DUP3 ADD MSTORE PUSH1 0x64 SWAP1 REVERT JUMPDEST CALLVALUE PUSH2 0x2FC JUMPI PUSH1 0x60 CALLDATASIZE PUSH1 0x3 NOT ADD SLT PUSH2 0x2FC JUMPI PUSH1 0x4 CALLDATALOAD PUSH2 0x3B12 PUSH2 0x4349 JUMP JUMPDEST SWAP1 PUSH1 0x44 CALLDATALOAD PUSH2 0x3B25 PUSH1 0xFF PUSH1 0x12 SLOAD AND ISZERO PUSH2 0x4844 JUMP JUMPDEST PUSH2 0x3B2D PUSH2 0x4CCA JUMP JUMPDEST DUP2 PUSH1 0x0 MSTORE PUSH1 0x3 PUSH1 0x20 MSTORE PUSH2 0x3B47 PUSH1 0xFF PUSH1 0x40 PUSH1 0x0 KECCAK256 SLOAD AND PUSH2 0x4885 JUMP JUMPDEST DUP2 PUSH1 0x0 MSTORE PUSH1 0x2 PUSH1 0x20 MSTORE PUSH1 0x40 PUSH1 0x0 KECCAK256 SWAP2 PUSH1 0x8 DUP4 ADD SWAP4 PUSH1 0xFF DUP6 SLOAD PUSH1 0xA0 SHR AND PUSH1 0x4 DUP2 LT ISZERO PUSH2 0x5CC JUMPI PUSH1 0x1 PUSH2 0x3B78 SWAP2 EQ PUSH2 0x48D1 JUMP JUMPDEST PUSH2 0x3B87 PUSH1 0x2 DUP6 ADD SLOAD TIMESTAMP LT PUSH2 0x491D JUMP JUMPDEST PUSH1 0x1 PUSH1 0x1 PUSH1 0xA0 SHL SUB AND PUSH1 0x0 DUP2 DUP2 MSTORE PUSH1 0x7 PUSH1 0x20 MSTORE PUSH1 0x40 SWAP1 KECCAK256 SLOAD SWAP1 SWAP3 SWAP1 PUSH1 0xFF AND ISZERO PUSH2 0x3FB3 JUMPI DUP2 PUSH1 0x0 MSTORE PUSH1 0x8 PUSH1 0x20 MSTORE PUSH1 0x40 PUSH1 0x0 KECCAK256 DUP4 PUSH1 0x0 MSTORE PUSH1 0x20 MSTORE PUSH1 0xFF PUSH1 0x40 PUSH1 0x0 KECCAK256 SLOAD AND ISZERO PUSH2 0x3F62 JUMPI PUSH1 0x40 MLOAD PUSH4 0x23B872DD PUSH1 0xE0 SHL DUP2 MSTORE CALLER PUSH1 0x4 DUP3 ADD MSTORE ADDRESS PUSH1 0x24 DUP3 ADD MSTORE PUSH1 0x44 DUP2 ADD DUP3 SWAP1 MSTORE PUSH1 0x20 DUP2 PUSH1 0x64 DUP2 PUSH1 0x0 DUP9 GAS CALL DUP1 ISZERO PUSH2 0xC35 JUMPI PUSH2 0x3C0F SWAP2 PUSH1 0x0 SWAP2 PUSH2 0x3F43 JUMPI POP PUSH2 0x4979 JUMP JUMPDEST DUP2 PUSH1 0x0 MSTORE PUSH1 0x9 PUSH1 0x20 MSTORE PUSH1 0x40 PUSH1 0x0 KECCAK256 DUP4 PUSH1 0x0 MSTORE PUSH1 0x20 MSTORE PUSH1 0x40 PUSH1 0x0 KECCAK256 PUSH2 0x3C34 DUP3 DUP3 SLOAD PUSH2 0x4C36 JUMP JUMPDEST SWAP1 SSTORE DUP2 PUSH1 0x0 MSTORE PUSH1 0xA PUSH1 0x20 MSTORE PUSH1 0x40 PUSH1 0x0 KECCAK256 DUP4 PUSH1 0x0 MSTORE PUSH1 0x20 MSTORE PUSH1 0x40 PUSH1 0x0 KECCAK256 PUSH2 0x3C5B DUP3 DUP3 SLOAD PUSH2 0x4C36 JUMP JUMPDEST SWAP1 SSTORE PUSH1 0x0 DUP3 DUP2 MSTORE PUSH1 0x20 DUP2 DUP2 MSTORE PUSH1 0x40 DUP1 DUP4 KECCAK256 CALLER DUP5 MSTORE SWAP1 SWAP2 MSTORE SWAP1 KECCAK256 DUP1 SLOAD PUSH2 0x3C81 SWAP1 DUP4 SWAP1 PUSH2 0x4C36 JUMP JUMPDEST SWAP1 SSTORE PUSH1 0x0 DUP3 DUP2 MSTORE PUSH1 0x14 PUSH1 0x20 SWAP1 DUP2 MSTORE PUSH1 0x40 DUP1 DUP4 KECCAK256 CALLER DUP5 MSTORE SWAP1 SWAP2 MSTORE SWAP1 KECCAK256 SLOAD PUSH1 0xFF AND ISZERO PUSH2 0x3F1A JUMPI JUMPDEST PUSH1 0x0 DUP3 DUP2 MSTORE PUSH1 0x2 PUSH1 0x20 SWAP1 DUP2 MSTORE PUSH1 0x40 DUP1 DUP4 KECCAK256 PUSH1 0x7 ADD DUP1 SLOAD PUSH1 0x1 ADD SWAP1 SSTORE DUP3 DUP3 MSTORE DUP1 DUP4 KECCAK256 CALLER DUP5 MSTORE DUP3 MSTORE DUP1 DUP4 KECCAK256 SLOAD DUP6 DUP5 MSTORE PUSH1 0xF SWAP1 SWAP3 MSTORE SWAP1 SWAP2 KECCAK256 SLOAD DUP2 GT PUSH2 0x3EEA JUMPI JUMPDEST POP DUP3 PUSH1 0x40 MLOAD DUP3 DUP2 MSTORE DUP4 PUSH32 0xEF93377C4BC923EC37E393CC4F21198F90F74DF5908CED5585C4D4D0AB30A715 PUSH1 0x20 CALLER SWAP4 LOG4 PUSH1 0x40 MLOAD SWAP1 DUP2 MSTORE DUP3 PUSH1 0x20 DUP3 ADD MSTORE PUSH1 0x0 PUSH1 0x40 DUP3 ADD MSTORE DUP2 PUSH32 0xC0D2DCEFA652289D410A90D1E74F5483B1FE1F34F334A1DD364D282F66E1CBD0 PUSH1 0x60 CALLER SWAP4 LOG3 PUSH1 0xFF DUP5 SLOAD PUSH1 0xA8 SHR AND PUSH2 0x3D6C JUMPI PUSH1 0x1 PUSH1 0x0 DUP1 MLOAD PUSH1 0x20 PUSH2 0x52A4 DUP4 CODECOPY DUP2 MLOAD SWAP2 MSTORE SSTORE STOP JUMPDEST DUP1 PUSH1 0x0 MSTORE PUSH1 0x1 PUSH1 0x20 MSTORE PUSH1 0x5 PUSH1 0x40 PUSH1 0x0 KECCAK256 SWAP4 ADD SWAP1 DUP2 SLOAD JUMPDEST DUP5 SLOAD DUP2 LT ISZERO PUSH2 0x3EDF JUMPI PUSH2 0x3D95 DUP2 DUP7 PUSH2 0x46E5 JUMP JUMPDEST POP SWAP1 PUSH1 0x2 DUP3 ADD DUP1 SLOAD PUSH1 0xFF DUP2 AND ISZERO DUP1 PUSH2 0x3EB8 JUMPI JUMPDEST ISZERO PUSH2 0x3EA5 JUMPI PUSH1 0xFF NOT AND PUSH1 0x1 SWAP1 DUP2 OR SWAP1 SWAP2 SSTORE DUP8 SLOAD SWAP3 ADD DUP1 SLOAD PUSH1 0x40 MLOAD PUSH4 0xA9059CBB PUSH1 0xE0 SHL DUP2 MSTORE PUSH1 0x1 PUSH1 0x1 PUSH1 0xA0 SHL SUB SWAP1 SWAP5 AND PUSH1 0x4 DUP6 ADD MSTORE PUSH1 0x24 DUP5 ADD MSTORE SWAP2 PUSH1 0x20 DUP2 PUSH1 0x44 DUP2 PUSH1 0x0 DUP11 GAS CALL DUP1 ISZERO PUSH2 0xC35 JUMPI DUP5 PUSH32 0xD11C7324995CA828941E0AD466BE992DF3A15AC5A9AE444745353ABFD10AD32 PUSH1 0x20 PUSH1 0x1 SWAP7 DUP11 SWAP6 DUP8 SWAP6 PUSH2 0x3E8A JUMPI JUMPDEST POP DUP1 SLOAD DUP5 PUSH1 0x0 MSTORE PUSH1 0x9 DUP4 MSTORE PUSH2 0x3E48 PUSH1 0x40 DUP1 PUSH1 0x0 KECCAK256 PUSH1 0x0 SWAP1 DUP11 DUP3 MSTORE DUP7 MSTORE KECCAK256 SWAP2 DUP3 SLOAD PUSH2 0x4A84 JUMP JUMPDEST SWAP1 SSTORE DUP1 SLOAD DUP5 PUSH1 0x0 MSTORE PUSH1 0xA DUP4 MSTORE PUSH2 0x3E6E PUSH1 0x40 DUP1 PUSH1 0x0 KECCAK256 PUSH1 0x0 SWAP1 DUP11 DUP3 MSTORE DUP7 MSTORE KECCAK256 SWAP2 DUP3 SLOAD PUSH2 0x4A84 JUMP JUMPDEST SWAP1 SSTORE PUSH2 0x3E7A DUP11 SLOAD PUSH2 0x4785 JUMP JUMPDEST DUP11 SSTORE SLOAD PUSH1 0x40 MLOAD SWAP1 DUP2 MSTORE LOG4 ADD PUSH2 0x3D82 JUMP JUMPDEST PUSH2 0x3EA0 SWAP1 DUP4 RETURNDATASIZE DUP2 GT PUSH2 0xC2E JUMPI PUSH2 0xC21 DUP2 DUP4 PUSH2 0x43E1 JUMP JUMPDEST PUSH2 0x3E23 JUMP JUMPDEST POP POP POP POP POP POP POP POP POP JUMPDEST DUP1 DUP1 DUP1 DUP1 PUSH2 0xAF0 JUMP JUMPDEST POP DUP5 PUSH1 0x0 MSTORE PUSH1 0x9 PUSH1 0x20 MSTORE PUSH1 0x40 DUP1 PUSH1 0x0 KECCAK256 PUSH1 0x0 SWAP1 DUP10 DUP3 MSTORE PUSH1 0x20 MSTORE KECCAK256 SLOAD PUSH1 0x1 DUP6 ADD SLOAD GT ISZERO PUSH2 0x3DA8 JUMP JUMPDEST POP POP POP POP POP POP PUSH2 0x3EAF JUMP JUMPDEST PUSH1 0x0 DUP4 DUP2 MSTORE PUSH1 0xF PUSH1 0x20 SWAP1 DUP2 MSTORE PUSH1 0x40 DUP1 DUP4 KECCAK256 SWAP4 SWAP1 SWAP4 SSTORE PUSH1 0xE SWAP1 MSTORE KECCAK256 DUP1 SLOAD PUSH1 0x1 PUSH1 0x1 PUSH1 0xA0 SHL SUB NOT AND CALLER OR SWAP1 SSTORE DUP6 PUSH2 0x3CE3 JUMP JUMPDEST PUSH1 0x0 DUP3 DUP2 MSTORE PUSH1 0x14 PUSH1 0x20 SWAP1 DUP2 MSTORE PUSH1 0x40 DUP1 DUP4 KECCAK256 CALLER DUP5 MSTORE SWAP1 SWAP2 MSTORE SWAP1 KECCAK256 DUP1 SLOAD PUSH1 0xFF NOT AND PUSH1 0x1 OR SWAP1 SSTORE PUSH2 0x3CA6 JUMP JUMPDEST PUSH2 0x3F5C SWAP2 POP PUSH1 0x20 RETURNDATASIZE PUSH1 0x20 GT PUSH2 0xC2E JUMPI PUSH2 0xC21 DUP2 DUP4 PUSH2 0x43E1 JUMP JUMPDEST DUP8 PUSH2 0x1975 JUMP JUMPDEST PUSH1 0x40 MLOAD PUSH3 0x461BCD PUSH1 0xE5 SHL DUP2 MSTORE PUSH1 0x20 PUSH1 0x4 DUP3 ADD MSTORE PUSH1 0x23 PUSH1 0x24 DUP3 ADD MSTORE PUSH32 0x546F6B656E206E6F7420616363657074656420627920746869732063616D7061 PUSH1 0x44 DUP3 ADD MSTORE PUSH3 0x34B3B7 PUSH1 0xE9 SHL PUSH1 0x64 DUP3 ADD MSTORE PUSH1 0x84 SWAP1 REVERT JUMPDEST PUSH1 0x40 MLOAD PUSH3 0x461BCD PUSH1 0xE5 SHL DUP2 MSTORE PUSH1 0x20 PUSH1 0x4 DUP3 ADD MSTORE PUSH1 0x13 PUSH1 0x24 DUP3 ADD MSTORE PUSH19 0x151BDAD95B881B9BDD081CDD5C1C1BDC9D1959 PUSH1 0x6A SHL PUSH1 0x44 DUP3 ADD MSTORE PUSH1 0x64 SWAP1 REVERT JUMPDEST CALLVALUE PUSH2 0x2FC JUMPI PUSH1 0x0 CALLDATASIZE PUSH1 0x3 NOT ADD SLT PUSH2 0x2FC JUMPI PUSH1 0x20 PUSH1 0xD SLOAD PUSH1 0x40 MLOAD SWAP1 DUP2 MSTORE RETURN JUMPDEST CALLVALUE PUSH2 0x2FC JUMPI PUSH1 0x0 CALLDATASIZE PUSH1 0x3 NOT ADD SLT PUSH2 0x2FC JUMPI PUSH1 0x0 PUSH1 0xD SLOAD SWAP1 PUSH1 0x5 DUP3 MUL DUP3 DUP2 DIV PUSH1 0x5 EQ DUP4 ISZERO OR ISZERO PUSH2 0x4127 JUMPI PUSH2 0x403E SWAP1 PUSH2 0x47AA JUMP JUMPDEST SWAP2 DUP2 JUMPDEST DUP2 DUP2 LT PUSH2 0x409C JUMPI POP POP PUSH2 0x4053 DUP2 PUSH2 0x47AA JUMP JUMPDEST SWAP2 PUSH1 0x0 JUMPDEST DUP3 DUP2 LT PUSH2 0x4074 JUMPI PUSH1 0x40 MLOAD PUSH1 0x20 DUP1 DUP3 MSTORE DUP2 SWAP1 PUSH2 0x5C8 SWAP1 DUP3 ADD DUP8 PUSH2 0x430C JUMP JUMPDEST PUSH1 0x1 SWAP1 PUSH1 0x1 PUSH1 0x1 PUSH1 0xA0 SHL SUB PUSH2 0x4089 DUP3 DUP6 PUSH2 0x4830 JUMP JUMPDEST MLOAD AND PUSH2 0x4095 DUP3 DUP8 PUSH2 0x4830 JUMP JUMPDEST MSTORE ADD PUSH2 0x4057 JUMP JUMPDEST SWAP2 DUP3 PUSH1 0x0 SWAP5 SWAP3 SWAP5 MSTORE PUSH1 0x2 PUSH1 0x20 MSTORE PUSH2 0x40B9 PUSH1 0x9 PUSH1 0x40 PUSH1 0x0 KECCAK256 ADD PUSH2 0x47DC JUMP JUMPDEST PUSH1 0x0 JUMPDEST DUP2 MLOAD DUP2 LT ISZERO PUSH2 0x4118 JUMPI PUSH1 0x1 PUSH1 0x1 PUSH1 0xA0 SHL SUB PUSH2 0x40D7 DUP3 DUP5 PUSH2 0x4830 JUMP JUMPDEST MLOAD AND DUP1 PUSH1 0x0 MSTORE PUSH1 0x7 PUSH1 0x20 MSTORE PUSH1 0xFF PUSH1 0x40 PUSH1 0x0 KECCAK256 SLOAD AND PUSH2 0x40F9 JUMPI JUMPDEST POP PUSH1 0x1 ADD PUSH2 0x40BC JUMP JUMPDEST DUP4 PUSH2 0x4111 SWAP2 PUSH2 0x410B PUSH1 0x1 SWAP5 SWAP7 DUP9 PUSH2 0x4830 JUMP JUMPDEST MSTORE PUSH2 0x4785 JUMP JUMPDEST SWAP3 SWAP1 PUSH2 0x40F0 JUMP JUMPDEST POP POP SWAP2 PUSH1 0x1 SWAP1 SWAP4 SWAP2 SWAP4 ADD PUSH2 0x4041 JUMP JUMPDEST PUSH4 0x4E487B71 PUSH1 0xE0 SHL DUP3 MSTORE PUSH1 0x11 PUSH1 0x4 MSTORE PUSH1 0x24 DUP3 REVERT JUMPDEST CALLVALUE PUSH2 0x2FC JUMPI PUSH1 0x20 CALLDATASIZE PUSH1 0x3 NOT ADD SLT PUSH2 0x2FC JUMPI PUSH1 0x4 CALLDATALOAD PUSH4 0xFFFFFFFF PUSH1 0xE0 SHL DUP2 AND DUP1 SWAP2 SUB PUSH2 0x2FC JUMPI PUSH1 0x20 SWAP1 PUSH4 0x7965DB0B PUSH1 0xE0 SHL DUP2 EQ SWAP1 DUP2 ISZERO PUSH2 0x4180 JUMPI JUMPDEST POP PUSH1 0x40 MLOAD SWAP1 ISZERO ISZERO DUP2 MSTORE RETURN JUMPDEST PUSH4 0x1FFC9A7 PUSH1 0xE0 SHL EQ SWAP1 POP DUP3 PUSH2 0x4175 JUMP JUMPDEST CALLVALUE PUSH2 0x2FC JUMPI PUSH1 0x20 CALLDATASIZE PUSH1 0x3 NOT ADD SLT PUSH2 0x2FC JUMPI PUSH1 0x4 CALLDATALOAD PUSH1 0x0 DUP2 DUP2 MSTORE PUSH1 0x11 PUSH1 0x20 SWAP1 DUP2 MSTORE PUSH1 0x40 DUP1 DUP4 KECCAK256 CALLER DUP5 MSTORE SWAP1 SWAP2 MSTORE SWAP1 KECCAK256 SLOAD PUSH1 0xFF AND PUSH2 0x42D7 JUMPI PUSH1 0x0 DUP2 DUP2 MSTORE PUSH1 0x11 PUSH1 0x20 SWAP1 DUP2 MSTORE PUSH1 0x40 DUP1 DUP4 KECCAK256 CALLER DUP5 MSTORE DUP3 MSTORE DUP1 DUP4 KECCAK256 DUP1 SLOAD PUSH1 0xFF NOT AND PUSH1 0x1 OR SWAP1 SSTORE DUP4 DUP4 MSTORE PUSH1 0x10 SWAP1 SWAP2 MSTORE SWAP1 KECCAK256 DUP1 SLOAD PUSH2 0x41FF SWAP1 PUSH2 0x4785 JUMP JUMPDEST SWAP1 SSTORE DUP1 PUSH1 0x0 MSTORE PUSH1 0x10 PUSH1 0x20 MSTORE PUSH1 0x40 PUSH1 0x0 KECCAK256 SLOAD PUSH1 0x40 MLOAD SWAP1 DUP2 MSTORE DUP2 PUSH32 0x3AE2F909AC3BBB7FC64FCE737DB652FB059EBB23580805F68FA003466FD004CD PUSH1 0x20 CALLER SWAP4 LOG3 DUP1 PUSH1 0x0 MSTORE PUSH1 0x10 PUSH1 0x20 MSTORE PUSH1 0x64 PUSH1 0x40 PUSH1 0x0 KECCAK256 SLOAD LT ISZERO DUP1 PUSH2 0x42AC JUMPI JUMPDEST PUSH2 0x425C JUMPI STOP JUMPDEST PUSH1 0x0 DUP2 DUP2 MSTORE PUSH1 0x2 PUSH1 0x20 SWAP1 DUP2 MSTORE PUSH1 0x40 SWAP2 DUP3 SWAP1 KECCAK256 PUSH1 0x8 ADD DUP1 SLOAD PUSH1 0xFF PUSH1 0xA0 SHL NOT AND PUSH1 0x3 PUSH1 0xA0 SHL OR SWAP1 SSTORE SWAP1 MLOAD SWAP2 DUP3 MSTORE PUSH32 0x828635A891091ED676512AB0AB2E966391437A035BEB146B02CB74CB841D128B SWAP2 LOG1 STOP JUMPDEST POP DUP1 PUSH1 0x0 MSTORE PUSH1 0x2 PUSH1 0x20 MSTORE PUSH1 0xFF PUSH1 0x8 PUSH1 0x40 PUSH1 0x0 KECCAK256 ADD SLOAD PUSH1 0xA0 SHR AND PUSH1 0x4 DUP2 LT ISZERO PUSH2 0x5CC JUMPI PUSH1 0x3 EQ ISZERO PUSH2 0x4256 JUMP JUMPDEST PUSH1 0x40 MLOAD PUSH3 0x461BCD PUSH1 0xE5 SHL DUP2 MSTORE PUSH1 0x20 PUSH1 0x4 DUP3 ADD MSTORE PUSH1 0xD PUSH1 0x24 DUP3 ADD MSTORE PUSH13 0x105B1C9958591E481D9BDD1959 PUSH1 0x9A SHL PUSH1 0x44 DUP3 ADD MSTORE PUSH1 0x64 SWAP1 REVERT JUMPDEST SWAP1 PUSH1 0x20 DUP1 DUP4 MLOAD SWAP3 DUP4 DUP2 MSTORE ADD SWAP3 ADD SWAP1 PUSH1 0x0 JUMPDEST DUP2 DUP2 LT PUSH2 0x432A JUMPI POP POP POP SWAP1 JUMP JUMPDEST DUP3 MLOAD PUSH1 0x1 PUSH1 0x1 PUSH1 0xA0 SHL SUB AND DUP5 MSTORE PUSH1 0x20 SWAP4 DUP5 ADD SWAP4 SWAP1 SWAP3 ADD SWAP2 PUSH1 0x1 ADD PUSH2 0x431D JUMP JUMPDEST PUSH1 0x24 CALLDATALOAD SWAP1 PUSH1 0x1 PUSH1 0x1 PUSH1 0xA0 SHL SUB DUP3 AND DUP3 SUB PUSH2 0x2FC JUMPI JUMP JUMPDEST PUSH1 0x44 CALLDATALOAD SWAP1 PUSH1 0x1 PUSH1 0x1 PUSH1 0xA0 SHL SUB DUP3 AND DUP3 SUB PUSH2 0x2FC JUMPI JUMP JUMPDEST PUSH1 0x4 CALLDATALOAD SWAP1 PUSH1 0x1 PUSH1 0x1 PUSH1 0xA0 SHL SUB DUP3 AND DUP3 SUB PUSH2 0x2FC JUMPI JUMP JUMPDEST SWAP1 PUSH1 0x1 DUP3 DUP2 SHR SWAP3 AND DUP1 ISZERO PUSH2 0x43BB JUMPI JUMPDEST PUSH1 0x20 DUP4 LT EQ PUSH2 0x43A5 JUMPI JUMP JUMPDEST PUSH4 0x4E487B71 PUSH1 0xE0 SHL PUSH1 0x0 MSTORE PUSH1 0x22 PUSH1 0x4 MSTORE PUSH1 0x24 PUSH1 0x0 REVERT JUMPDEST SWAP2 PUSH1 0x7F AND SWAP2 PUSH2 0x439A JUMP JUMPDEST PUSH2 0x220 DUP2 ADD SWAP1 DUP2 LT PUSH1 0x1 PUSH1 0x1 PUSH1 0x40 SHL SUB DUP3 GT OR PUSH2 0x2DD5 JUMPI PUSH1 0x40 MSTORE JUMP JUMPDEST SWAP1 PUSH1 0x1F DUP1 NOT SWAP2 ADD AND DUP2 ADD SWAP1 DUP2 LT PUSH1 0x1 PUSH1 0x1 PUSH1 0x40 SHL SUB DUP3 GT OR PUSH2 0x2DD5 JUMPI PUSH1 0x40 MSTORE JUMP JUMPDEST SWAP1 PUSH1 0x40 MLOAD SWAP2 DUP3 PUSH1 0x0 DUP3 SLOAD SWAP3 PUSH2 0x4416 DUP5 PUSH2 0x438B JUMP JUMPDEST DUP1 DUP5 MSTORE SWAP4 PUSH1 0x1 DUP2 AND SWAP1 DUP2 ISZERO PUSH2 0x4484 JUMPI POP PUSH1 0x1 EQ PUSH2 0x443D JUMPI JUMPDEST POP PUSH2 0x443B SWAP3 POP SUB DUP4 PUSH2 0x43E1 JUMP JUMPDEST JUMP JUMPDEST SWAP1 POP PUSH1 0x0 SWAP3 SWAP2 SWAP3 MSTORE PUSH1 0x20 PUSH1 0x0 KECCAK256 SWAP1 PUSH1 0x0 SWAP2 JUMPDEST DUP2 DUP4 LT PUSH2 0x4468 JUMPI POP POP SWAP1 PUSH1 0x20 PUSH2 0x443B SWAP3 DUP3 ADD ADD CODESIZE PUSH2 0x442E JUMP JUMPDEST PUSH1 0x20 SWAP2 SWAP4 POP DUP1 PUSH1 0x1 SWAP2 SLOAD DUP4 DUP6 DUP10 ADD ADD MSTORE ADD SWAP2 ADD SWAP1 SWAP2 DUP5 SWAP3 PUSH2 0x444F JUMP JUMPDEST SWAP1 POP PUSH1 0x20 SWAP3 POP PUSH2 0x443B SWAP5 SWAP2 POP PUSH1 0xFF NOT AND DUP3 DUP5 ADD MSTORE ISZERO ISZERO PUSH1 0x5 SHL DUP3 ADD ADD CODESIZE PUSH2 0x442E JUMP JUMPDEST SWAP1 PUSH1 0x4 DUP3 LT ISZERO PUSH2 0x5CC JUMPI MSTORE JUMP JUMPDEST SWAP2 SWAP1 DUP3 MLOAD SWAP3 DUP4 DUP3 MSTORE PUSH1 0x0 JUMPDEST DUP5 DUP2 LT PUSH2 0x44DF JUMPI POP POP DUP3 PUSH1 0x0 PUSH1 0x20 DUP1 SWAP5 SWAP6 DUP5 ADD ADD MSTORE PUSH1 0x1F DUP1 NOT SWAP2 ADD AND ADD ADD SWAP1 JUMP JUMPDEST DUP1 PUSH1 0x20 DUP1 SWAP3 DUP5 ADD ADD MLOAD DUP3 DUP3 DUP7 ADD ADD MSTORE ADD PUSH2 0x44BE JUMP JUMPDEST DUP1 SLOAD DUP3 LT ISZERO PUSH2 0x450C JUMPI PUSH1 0x0 MSTORE PUSH1 0x20 PUSH1 0x0 KECCAK256 ADD SWAP1 PUSH1 0x0 SWAP1 JUMP JUMPDEST PUSH4 0x4E487B71 PUSH1 0xE0 SHL PUSH1 0x0 MSTORE PUSH1 0x32 PUSH1 0x4 MSTORE PUSH1 0x24 PUSH1 0x0 REVERT JUMPDEST PUSH1 0x40 SWAP1 PUSH1 0x3 NOT ADD SLT PUSH2 0x2FC JUMPI PUSH1 0x4 CALLDATALOAD SWAP1 PUSH1 0x24 CALLDATALOAD SWAP1 JUMP JUMPDEST SWAP2 SWAP1 SWAP2 PUSH2 0x220 DUP4 ADD SWAP3 DUP2 MLOAD DUP2 MSTORE PUSH1 0x20 DUP3 ADD MLOAD PUSH1 0x20 DUP3 ADD MSTORE PUSH1 0x40 DUP3 ADD MLOAD PUSH1 0x40 DUP3 ADD MSTORE PUSH1 0x60 DUP3 ADD MLOAD PUSH1 0x60 DUP3 ADD MSTORE PUSH1 0x80 DUP3 ADD MLOAD PUSH1 0x80 DUP3 ADD MSTORE PUSH1 0xA0 DUP3 ADD MLOAD PUSH1 0xA0 DUP3 ADD MSTORE PUSH1 0xC0 DUP3 ADD MLOAD PUSH1 0xC0 DUP3 ADD MSTORE PUSH1 0xE0 DUP3 ADD MLOAD PUSH1 0xE0 DUP3 ADD MSTORE PUSH1 0x1 DUP1 PUSH1 0xA0 SHL SUB PUSH2 0x100 DUP4 ADD MLOAD AND PUSH2 0x100 DUP3 ADD MSTORE PUSH2 0x45B3 PUSH2 0x120 DUP4 ADD MLOAD PUSH2 0x120 DUP4 ADD SWAP1 PUSH2 0x44A6 JUMP JUMPDEST PUSH2 0x140 DUP3 ADD MLOAD ISZERO ISZERO PUSH2 0x140 DUP3 ADD MSTORE PUSH2 0x160 DUP3 ADD MLOAD SWAP4 PUSH2 0x220 PUSH2 0x160 DUP4 ADD MSTORE DUP5 MLOAD DUP1 SWAP2 MSTORE PUSH1 0x20 PUSH2 0x240 DUP4 ADD SWAP6 ADD SWAP1 PUSH1 0x0 JUMPDEST DUP2 DUP2 LT PUSH2 0x4666 JUMPI POP POP POP PUSH2 0x200 PUSH2 0x4651 PUSH2 0x463D PUSH2 0x4629 PUSH2 0x4615 PUSH2 0x4663 SWAP8 SWAP9 PUSH2 0x180 DUP9 ADD MLOAD DUP8 DUP3 SUB PUSH2 0x180 DUP10 ADD MSTORE PUSH2 0x44B3 JUMP JUMPDEST PUSH2 0x1A0 DUP8 ADD MLOAD DUP7 DUP3 SUB PUSH2 0x1A0 DUP9 ADD MSTORE PUSH2 0x44B3 JUMP JUMPDEST PUSH2 0x1C0 DUP7 ADD MLOAD DUP6 DUP3 SUB PUSH2 0x1C0 DUP8 ADD MSTORE PUSH2 0x44B3 JUMP JUMPDEST PUSH2 0x1E0 DUP6 ADD MLOAD DUP5 DUP3 SUB PUSH2 0x1E0 DUP7 ADD MSTORE PUSH2 0x44B3 JUMP JUMPDEST SWAP3 ADD MLOAD SWAP1 PUSH2 0x200 DUP2 DUP5 SUB SWAP2 ADD MSTORE PUSH2 0x44B3 JUMP JUMPDEST SWAP1 JUMP JUMPDEST DUP3 MLOAD PUSH1 0x1 PUSH1 0x1 PUSH1 0xA0 SHL SUB AND DUP8 MSTORE PUSH1 0x20 SWAP7 DUP8 ADD SWAP7 SWAP1 SWAP3 ADD SWAP2 PUSH1 0x1 ADD PUSH2 0x45E3 JUMP JUMPDEST PUSH1 0x20 DUP2 ADD PUSH1 0x20 DUP3 MSTORE DUP3 MLOAD DUP1 SWAP2 MSTORE PUSH1 0x40 DUP3 ADD SWAP2 PUSH1 0x20 PUSH1 0x40 DUP4 PUSH1 0x5 SHL DUP4 ADD ADD SWAP5 ADD SWAP3 PUSH1 0x0 SWAP2 JUMPDEST DUP4 DUP4 LT PUSH2 0x46B8 JUMPI POP POP POP POP POP SWAP1 JUMP JUMPDEST SWAP1 SWAP2 SWAP3 SWAP4 SWAP5 PUSH1 0x20 DUP1 PUSH2 0x46D6 PUSH1 0x1 SWAP4 PUSH1 0x3F NOT DUP7 DUP3 SUB ADD DUP8 MSTORE DUP10 MLOAD PUSH2 0x4538 JUMP JUMPDEST SWAP8 ADD SWAP4 ADD SWAP4 ADD SWAP2 SWAP4 SWAP3 SWAP1 PUSH2 0x46A9 JUMP JUMPDEST DUP1 SLOAD DUP3 LT ISZERO PUSH2 0x450C JUMPI PUSH1 0x0 MSTORE PUSH1 0x3 PUSH1 0x20 PUSH1 0x0 KECCAK256 SWAP2 MUL ADD SWAP1 PUSH1 0x0 SWAP1 JUMP JUMPDEST PUSH1 0x1 PUSH1 0x1 PUSH1 0x40 SHL SUB DUP2 GT PUSH2 0x2DD5 JUMPI PUSH1 0x1F ADD PUSH1 0x1F NOT AND PUSH1 0x20 ADD SWAP1 JUMP JUMPDEST SWAP3 SWAP2 SWAP3 PUSH2 0x4728 DUP3 PUSH2 0x4701 JUMP JUMPDEST SWAP2 PUSH2 0x4736 PUSH1 0x40 MLOAD SWAP4 DUP5 PUSH2 0x43E1 JUMP JUMPDEST DUP3 SWAP5 DUP2 DUP5 MSTORE DUP2 DUP4 ADD GT PUSH2 0x2FC JUMPI DUP3 DUP2 PUSH1 0x20 SWAP4 DUP5 PUSH1 0x0 SWAP7 ADD CALLDATACOPY ADD ADD MSTORE JUMP JUMPDEST SWAP1 DUP1 PUSH1 0x1F DUP4 ADD SLT ISZERO PUSH2 0x2FC JUMPI DUP2 PUSH1 0x20 PUSH2 0x4663 SWAP4 CALLDATALOAD SWAP2 ADD PUSH2 0x471C JUMP JUMPDEST PUSH1 0x1 PUSH1 0x1 PUSH1 0x40 SHL SUB DUP2 GT PUSH2 0x2DD5 JUMPI PUSH1 0x5 SHL PUSH1 0x20 ADD SWAP1 JUMP JUMPDEST PUSH1 0x0 NOT DUP2 EQ PUSH2 0x4794 JUMPI PUSH1 0x1 ADD SWAP1 JUMP JUMPDEST PUSH4 0x4E487B71 PUSH1 0xE0 SHL PUSH1 0x0 MSTORE PUSH1 0x11 PUSH1 0x4 MSTORE PUSH1 0x24 PUSH1 0x0 REVERT JUMPDEST SWAP1 PUSH2 0x47B4 DUP3 PUSH2 0x476E JUMP JUMPDEST PUSH2 0x47C1 PUSH1 0x40 MLOAD SWAP2 DUP3 PUSH2 0x43E1 JUMP JUMPDEST DUP3 DUP2 MSTORE DUP1 SWAP3 PUSH2 0x47D2 PUSH1 0x1F NOT SWAP2 PUSH2 0x476E JUMP JUMPDEST ADD SWAP1 PUSH1 0x20 CALLDATASIZE SWAP2 ADD CALLDATACOPY JUMP JUMPDEST SWAP1 PUSH1 0x40 MLOAD SWAP2 DUP3 DUP2 SLOAD SWAP2 DUP3 DUP3 MSTORE PUSH1 0x20 DUP3 ADD SWAP1 PUSH1 0x0 MSTORE PUSH1 0x20 PUSH1 0x0 KECCAK256 SWAP3 PUSH1 0x0 JUMPDEST DUP2 DUP2 LT PUSH2 0x480E JUMPI POP POP PUSH2 0x443B SWAP3 POP SUB DUP4 PUSH2 0x43E1 JUMP JUMPDEST DUP5 SLOAD PUSH1 0x1 PUSH1 0x1 PUSH1 0xA0 SHL SUB AND DUP4 MSTORE PUSH1 0x1 SWAP5 DUP6 ADD SWAP5 DUP8 SWAP5 POP PUSH1 0x20 SWAP1 SWAP4 ADD SWAP3 ADD PUSH2 0x47F9 JUMP JUMPDEST DUP1 MLOAD DUP3 LT ISZERO PUSH2 0x450C JUMPI PUSH1 0x20 SWAP2 PUSH1 0x5 SHL ADD ADD SWAP1 JUMP JUMPDEST ISZERO PUSH2 0x484B JUMPI JUMP JUMPDEST PUSH1 0x40 MLOAD PUSH3 0x461BCD PUSH1 0xE5 SHL DUP2 MSTORE PUSH1 0x20 PUSH1 0x4 DUP3 ADD MSTORE PUSH1 0x12 PUSH1 0x24 DUP3 ADD MSTORE PUSH18 0x10DBDB9D1C9858DD081A5CC81C185D5CD959 PUSH1 0x72 SHL PUSH1 0x44 DUP3 ADD MSTORE PUSH1 0x64 SWAP1 REVERT JUMPDEST ISZERO PUSH2 0x488C JUMPI JUMP JUMPDEST PUSH1 0x40 MLOAD PUSH3 0x461BCD PUSH1 0xE5 SHL DUP2 MSTORE PUSH1 0x20 PUSH1 0x4 DUP3 ADD MSTORE PUSH1 0x18 PUSH1 0x24 DUP3 ADD MSTORE PUSH32 0x43616D706169676E20646F6573206E6F742065786973742E0000000000000000 PUSH1 0x44 DUP3 ADD MSTORE PUSH1 0x64 SWAP1 REVERT JUMPDEST ISZERO PUSH2 0x48D8 JUMPI JUMP JUMPDEST PUSH1 0x40 MLOAD PUSH3 0x461BCD PUSH1 0xE5 SHL DUP2 MSTORE PUSH1 0x20 PUSH1 0x4 DUP3 ADD MSTORE PUSH1 0x17 PUSH1 0x24 DUP3 ADD MSTORE PUSH32 0x43616D706169676E206973206E6F74206163746976652E000000000000000000 PUSH1 0x44 DUP3 ADD MSTORE PUSH1 0x64 SWAP1 REVERT JUMPDEST ISZERO PUSH2 0x4924 JUMPI JUMP JUMPDEST PUSH1 0x40 MLOAD PUSH3 0x461BCD PUSH1 0xE5 SHL DUP2 MSTORE PUSH1 0x20 PUSH1 0x4 DUP3 ADD MSTORE PUSH1 0x15 PUSH1 0x24 DUP3 ADD MSTORE PUSH21 0x21B0B6B830B4B3B7103430B99032BC3834B932B217 PUSH1 0x59 SHL PUSH1 0x44 DUP3 ADD MSTORE PUSH1 0x64 SWAP1 REVERT JUMPDEST SWAP1 DUP2 PUSH1 0x20 SWAP2 SUB SLT PUSH2 0x2FC JUMPI MLOAD DUP1 ISZERO ISZERO DUP2 SUB PUSH2 0x2FC JUMPI SWAP1 JUMP JUMPDEST ISZERO PUSH2 0x4980 JUMPI JUMP JUMPDEST PUSH1 0x40 MLOAD PUSH3 0x461BCD PUSH1 0xE5 SHL DUP2 MSTORE PUSH1 0x20 PUSH1 0x4 DUP3 ADD MSTORE PUSH1 0x15 PUSH1 0x24 DUP3 ADD MSTORE PUSH21 0x151BDAD95B881D1C985B9CD9995C8819985A5B1959 PUSH1 0x5A SHL PUSH1 0x44 DUP3 ADD MSTORE PUSH1 0x64 SWAP1 REVERT JUMPDEST ISZERO PUSH2 0x49C4 JUMPI JUMP JUMPDEST PUSH1 0x40 MLOAD PUSH3 0x461BCD PUSH1 0xE5 SHL DUP2 MSTORE PUSH1 0x20 PUSH1 0x4 DUP3 ADD MSTORE PUSH1 0x14 PUSH1 0x24 DUP3 ADD MSTORE PUSH20 0x4F6E6C79206F776E65722063616E20636C61696D PUSH1 0x60 SHL PUSH1 0x44 DUP3 ADD MSTORE PUSH1 0x64 SWAP1 REVERT JUMPDEST ISZERO PUSH2 0x4A07 JUMPI JUMP JUMPDEST PUSH1 0x40 MLOAD PUSH3 0x461BCD PUSH1 0xE5 SHL DUP2 MSTORE PUSH1 0x20 PUSH1 0x4 DUP3 ADD MSTORE PUSH1 0x16 PUSH1 0x24 DUP3 ADD MSTORE PUSH22 0x2737BA1030B71032B9B1B937BB9031B0B6B830B4B3B7 PUSH1 0x51 SHL PUSH1 0x44 DUP3 ADD MSTORE PUSH1 0x64 SWAP1 REVERT JUMPDEST ISZERO PUSH2 0x4A4C JUMPI JUMP JUMPDEST PUSH1 0x40 MLOAD PUSH3 0x461BCD PUSH1 0xE5 SHL DUP2 MSTORE PUSH1 0x20 PUSH1 0x4 DUP3 ADD MSTORE PUSH1 0x10 PUSH1 0x24 DUP3 ADD MSTORE PUSH16 0x105B1C9958591E481C995B19585CD959 PUSH1 0x82 SHL PUSH1 0x44 DUP3 ADD MSTORE PUSH1 0x64 SWAP1 REVERT JUMPDEST SWAP2 SWAP1 DUP3 SUB SWAP2 DUP3 GT PUSH2 0x4794 JUMPI JUMP JUMPDEST PUSH1 0x0 MSTORE PUSH1 0x0 DUP1 MLOAD PUSH1 0x20 PUSH2 0x5284 DUP4 CODECOPY DUP2 MLOAD SWAP2 MSTORE PUSH1 0x20 MSTORE PUSH1 0x1 PUSH1 0x40 PUSH1 0x0 KECCAK256 ADD SLOAD SWAP1 JUMP JUMPDEST ISZERO PUSH2 0x4AB9 JUMPI JUMP JUMPDEST PUSH1 0x40 MLOAD PUSH3 0x461BCD PUSH1 0xE5 SHL DUP2 MSTORE PUSH1 0x20 PUSH1 0x4 DUP3 ADD MSTORE PUSH1 0xD PUSH1 0x24 DUP3 ADD MSTORE PUSH13 0x496E76616C69642072616E6765 PUSH1 0x98 SHL PUSH1 0x44 DUP3 ADD MSTORE PUSH1 0x64 SWAP1 REVERT JUMPDEST PUSH1 0x40 MLOAD SWAP1 PUSH2 0x4AFB DUP3 PUSH2 0x43C5 JUMP JUMPDEST PUSH1 0x60 PUSH2 0x200 DUP4 PUSH1 0x0 DUP2 MSTORE PUSH1 0x0 PUSH1 0x20 DUP3 ADD MSTORE PUSH1 0x0 PUSH1 0x40 DUP3 ADD MSTORE PUSH1 0x0 DUP4 DUP3 ADD MSTORE PUSH1 0x0 PUSH1 0x80 DUP3 ADD MSTORE PUSH1 0x0 PUSH1 0xA0 DUP3 ADD MSTORE PUSH1 0x0 PUSH1 0xC0 DUP3 ADD MSTORE PUSH1 0x0 PUSH1 0xE0 DUP3 ADD MSTORE PUSH1 0x0 PUSH2 0x100 DUP3 ADD MSTORE PUSH1 0x0 PUSH2 0x120 DUP3 ADD MSTORE PUSH1 0x0 PUSH2 0x140 DUP3 ADD MSTORE DUP3 PUSH2 0x160 DUP3 ADD MSTORE DUP3 PUSH2 0x180 DUP3 ADD MSTORE DUP3 PUSH2 0x1A0 DUP3 ADD MSTORE DUP3 PUSH2 0x1C0 DUP3 ADD MSTORE DUP3 PUSH2 0x1E0 DUP3 ADD MSTORE ADD MSTORE JUMP JUMPDEST SWAP1 PUSH2 0x4B7E DUP3 PUSH2 0x476E JUMP JUMPDEST PUSH2 0x4B8B PUSH1 0x40 MLOAD SWAP2 DUP3 PUSH2 0x43E1 JUMP JUMPDEST DUP3 DUP2 MSTORE DUP1 SWAP3 PUSH2 0x4B9C PUSH1 0x1F NOT SWAP2 PUSH2 0x476E JUMP JUMPDEST ADD SWAP1 PUSH1 0x0 JUMPDEST DUP3 DUP2 LT PUSH2 0x4BAD JUMPI POP POP POP JUMP JUMPDEST PUSH1 0x20 SWAP1 PUSH2 0x4BB8 PUSH2 0x4AEE JUMP JUMPDEST DUP3 DUP3 DUP6 ADD ADD MSTORE ADD PUSH2 0x4BA1 JUMP JUMPDEST ISZERO PUSH2 0x4BCB JUMPI JUMP JUMPDEST PUSH1 0x40 MLOAD PUSH3 0x461BCD PUSH1 0xE5 SHL DUP2 MSTORE PUSH1 0x20 PUSH1 0x4 DUP3 ADD MSTORE PUSH1 0x13 PUSH1 0x24 DUP3 ADD MSTORE PUSH19 0x4E6F20726566756E6420617661696C61626C65 PUSH1 0x68 SHL PUSH1 0x44 DUP3 ADD MSTORE PUSH1 0x64 SWAP1 REVERT JUMPDEST RETURNDATASIZE ISZERO PUSH2 0x4C31 JUMPI RETURNDATASIZE SWAP1 PUSH2 0x4C17 DUP3 PUSH2 0x4701 JUMP JUMPDEST SWAP2 PUSH2 0x4C25 PUSH1 0x40 MLOAD SWAP4 DUP5 PUSH2 0x43E1 JUMP JUMPDEST DUP3 MSTORE RETURNDATASIZE PUSH1 0x0 PUSH1 0x20 DUP5 ADD RETURNDATACOPY JUMP JUMPDEST PUSH1 0x60 SWAP1 JUMP JUMPDEST SWAP2 SWAP1 DUP3 ADD DUP1 SWAP3 GT PUSH2 0x4794 JUMPI JUMP JUMPDEST ISZERO PUSH2 0x4C4A JUMPI JUMP JUMPDEST PUSH1 0x40 MLOAD PUSH3 0x461BCD PUSH1 0xE5 SHL DUP2 MSTORE PUSH1 0x20 PUSH1 0x4 DUP3 ADD MSTORE PUSH1 0x17 PUSH1 0x24 DUP3 ADD MSTORE PUSH32 0x4D696C6573746F6E65207061796F7574206661696C6564000000000000000000 PUSH1 0x44 DUP3 ADD MSTORE PUSH1 0x64 SWAP1 REVERT JUMPDEST ISZERO PUSH2 0x4C96 JUMPI JUMP JUMPDEST PUSH1 0x40 MLOAD PUSH3 0x461BCD PUSH1 0xE5 SHL DUP2 MSTORE PUSH1 0x20 PUSH1 0x4 DUP3 ADD MSTORE PUSH1 0xC PUSH1 0x24 DUP3 ADD MSTORE PUSH12 0x4D697373696E6720726F6C65 PUSH1 0xA0 SHL PUSH1 0x44 DUP3 ADD MSTORE PUSH1 0x64 SWAP1 REVERT JUMPDEST PUSH1 0x2 PUSH1 0x0 DUP1 MLOAD PUSH1 0x20 PUSH2 0x52A4 DUP4 CODECOPY DUP2 MLOAD SWAP2 MSTORE SLOAD EQ PUSH2 0x4CF5 JUMPI PUSH1 0x2 PUSH1 0x0 DUP1 MLOAD PUSH1 0x20 PUSH2 0x52A4 DUP4 CODECOPY DUP2 MLOAD SWAP2 MSTORE SSTORE JUMP JUMPDEST PUSH4 0x3EE5AEB5 PUSH1 0xE0 SHL PUSH1 0x0 MSTORE PUSH1 0x4 PUSH1 0x0 REVERT JUMPDEST PUSH2 0x4D0E PUSH2 0x5082 JUMP JUMPDEST PUSH1 0x1 PUSH1 0x1 PUSH1 0xA0 SHL SUB DUP2 AND PUSH1 0x0 SWAP1 DUP2 MSTORE PUSH1 0x0 DUP1 MLOAD PUSH1 0x20 PUSH2 0x5224 DUP4 CODECOPY DUP2 MLOAD SWAP2 MSTORE PUSH1 0x20 MSTORE PUSH1 0x40 SWAP1 KECCAK256 SLOAD PUSH1 0xFF AND ISZERO PUSH2 0x4D3F JUMPI POP JUMP JUMPDEST PUSH4 0xE2517D3F PUSH1 0xE0 SHL PUSH1 0x0 SWAP1 DUP2 MSTORE PUSH1 0x1 PUSH1 0x1 PUSH1 0xA0 SHL SUB SWAP2 SWAP1 SWAP2 AND PUSH1 0x4 MSTORE PUSH32 0xA49807205CE4D355092EF5A8A18F56E8913CF4A201FBE287825B095693C21775 PUSH1 0x24 MSTORE PUSH1 0x44 SWAP1 REVERT JUMPDEST PUSH2 0x4D8C PUSH2 0x5082 JUMP JUMPDEST DUP2 PUSH1 0x0 MSTORE PUSH1 0x0 DUP1 MLOAD PUSH1 0x20 PUSH2 0x5284 DUP4 CODECOPY DUP2 MLOAD SWAP2 MSTORE PUSH1 0x20 MSTORE PUSH1 0x40 PUSH1 0x0 KECCAK256 PUSH1 0x1 DUP1 PUSH1 0xA0 SHL SUB DUP3 AND PUSH1 0x0 MSTORE PUSH1 0x20 MSTORE PUSH1 0xFF PUSH1 0x40 PUSH1 0x0 KECCAK256 SLOAD AND ISZERO PUSH2 0x4DC8 JUMPI POP POP JUMP JUMPDEST PUSH4 0xE2517D3F PUSH1 0xE0 SHL PUSH1 0x0 MSTORE PUSH1 0x1 DUP1 PUSH1 0xA0 SHL SUB AND PUSH1 0x4 MSTORE PUSH1 0x24 MSTORE PUSH1 0x44 PUSH1 0x0 REVERT JUMPDEST PUSH1 0x1 PUSH1 0x1 PUSH1 0xA0 SHL SUB DUP2 AND PUSH1 0x0 SWAP1 DUP2 MSTORE PUSH32 0xB7DB2DD08FCB62D0C9E08C51941CAE53C267786A0B75803FB7960902FC8EF97D PUSH1 0x20 MSTORE PUSH1 0x40 SWAP1 KECCAK256 SLOAD PUSH1 0xFF AND PUSH2 0x4E95 JUMPI PUSH1 0x1 PUSH1 0x1 PUSH1 0xA0 SHL SUB DUP2 DUP2 AND PUSH1 0x0 SWAP1 DUP2 MSTORE PUSH32 0xB7DB2DD08FCB62D0C9E08C51941CAE53C267786A0B75803FB7960902FC8EF97D PUSH1 0x20 MSTORE PUSH1 0x40 SWAP1 KECCAK256 DUP1 SLOAD PUSH1 0xFF NOT AND PUSH1 0x1 OR SWAP1 SSTORE PUSH2 0x4E71 PUSH2 0x5082 JUMP JUMPDEST AND SWAP1 PUSH1 0x1 PUSH1 0x1 PUSH1 0xA0 SHL SUB AND PUSH1 0x0 PUSH1 0x0 DUP1 MLOAD PUSH1 0x20 PUSH2 0x51E4 DUP4 CODECOPY DUP2 MLOAD SWAP2 MSTORE DUP2 DUP1 LOG4 PUSH1 0x1 SWAP1 JUMP JUMPDEST POP PUSH1 0x0 SWAP1 JUMP JUMPDEST PUSH1 0x1 PUSH1 0x1 PUSH1 0xA0 SHL SUB DUP2 AND PUSH1 0x0 SWAP1 DUP2 MSTORE PUSH1 0x0 DUP1 MLOAD PUSH1 0x20 PUSH2 0x5224 DUP4 CODECOPY DUP2 MLOAD SWAP2 MSTORE PUSH1 0x20 MSTORE PUSH1 0x40 SWAP1 KECCAK256 SLOAD PUSH1 0xFF AND PUSH2 0x4E95 JUMPI PUSH1 0x1 PUSH1 0x1 PUSH1 0xA0 SHL SUB DUP2 DUP2 AND PUSH1 0x0 SWAP1 DUP2 MSTORE PUSH1 0x0 DUP1 MLOAD PUSH1 0x20 PUSH2 0x5224 DUP4 CODECOPY DUP2 MLOAD SWAP2 MSTORE PUSH1 0x20 MSTORE PUSH1 0x40 SWAP1 KECCAK256 DUP1 SLOAD PUSH1 0xFF NOT AND PUSH1 0x1 OR SWAP1 SSTORE PUSH2 0x4F01 PUSH2 0x5082 JUMP JUMPDEST AND SWAP1 PUSH1 0x1 PUSH1 0x1 PUSH1 0xA0 SHL SUB AND PUSH32 0xA49807205CE4D355092EF5A8A18F56E8913CF4A201FBE287825B095693C21775 PUSH1 0x0 DUP1 MLOAD PUSH1 0x20 PUSH2 0x51E4 DUP4 CODECOPY DUP2 MLOAD SWAP2 MSTORE PUSH1 0x0 DUP1 LOG4 PUSH1 0x1 SWAP1 JUMP JUMPDEST PUSH1 0x1 PUSH1 0x1 PUSH1 0xA0 SHL SUB DUP2 AND PUSH1 0x0 SWAP1 DUP2 MSTORE PUSH1 0x0 DUP1 MLOAD PUSH1 0x20 PUSH2 0x5264 DUP4 CODECOPY DUP2 MLOAD SWAP2 MSTORE PUSH1 0x20 MSTORE PUSH1 0x40 SWAP1 KECCAK256 SLOAD PUSH1 0xFF AND PUSH2 0x4E95 JUMPI PUSH1 0x1 PUSH1 0x1 PUSH1 0xA0 SHL SUB DUP2 DUP2 AND PUSH1 0x0 SWAP1 DUP2 MSTORE PUSH1 0x0 DUP1 MLOAD PUSH1 0x20 PUSH2 0x5264 DUP4 CODECOPY DUP2 MLOAD SWAP2 MSTORE PUSH1 0x20 MSTORE PUSH1 0x40 SWAP1 KECCAK256 DUP1 SLOAD PUSH1 0xFF NOT AND PUSH1 0x1 OR SWAP1 SSTORE PUSH2 0x4FAB PUSH2 0x5082 JUMP JUMPDEST AND SWAP1 PUSH1 0x1 PUSH1 0x1 PUSH1 0xA0 SHL SUB AND PUSH1 0x0 DUP1 MLOAD PUSH1 0x20 PUSH2 0x5204 DUP4 CODECOPY DUP2 MLOAD SWAP2 MSTORE PUSH1 0x0 DUP1 MLOAD PUSH1 0x20 PUSH2 0x51E4 DUP4 CODECOPY DUP2 MLOAD SWAP2 MSTORE PUSH1 0x0 DUP1 LOG4 PUSH1 0x1 SWAP1 JUMP JUMPDEST PUSH1 0x0 DUP2 DUP2 MSTORE PUSH1 0x0 DUP1 MLOAD PUSH1 0x20 PUSH2 0x5284 DUP4 CODECOPY DUP2 MLOAD SWAP2 MSTORE PUSH1 0x20 SWAP1 DUP2 MSTORE PUSH1 0x40 DUP1 DUP4 KECCAK256 PUSH1 0x1 PUSH1 0x1 PUSH1 0xA0 SHL SUB DUP7 AND DUP5 MSTORE SWAP1 SWAP2 MSTORE SWAP1 KECCAK256 SLOAD PUSH1 0xFF AND PUSH2 0x507B JUMPI PUSH1 0x0 DUP2 DUP2 MSTORE PUSH1 0x0 DUP1 MLOAD PUSH1 0x20 PUSH2 0x5284 DUP4 CODECOPY DUP2 MLOAD SWAP2 MSTORE PUSH1 0x20 SWAP1 DUP2 MSTORE PUSH1 0x40 DUP1 DUP4 KECCAK256 PUSH1 0x1 PUSH1 0x1 PUSH1 0xA0 SHL SUB DUP7 DUP2 AND DUP6 MSTORE SWAP3 MSTORE SWAP1 SWAP2 KECCAK256 DUP1 SLOAD PUSH1 0xFF NOT AND PUSH1 0x1 OR SWAP1 SSTORE PUSH2 0x5057 PUSH2 0x5082 JUMP JUMPDEST AND SWAP2 PUSH1 0x1 PUSH1 0x1 PUSH1 0xA0 SHL SUB AND SWAP1 PUSH1 0x0 DUP1 MLOAD PUSH1 0x20 PUSH2 0x51E4 DUP4 CODECOPY DUP2 MLOAD SWAP2 MSTORE PUSH1 0x0 DUP1 LOG4 PUSH1 0x1 SWAP1 JUMP JUMPDEST POP POP PUSH1 0x0 SWAP1 JUMP JUMPDEST PUSH1 0x47 SLOAD CALLER PUSH1 0x1 PUSH1 0x1 PUSH1 0xA0 SHL SUB SWAP1 SWAP2 AND SUB PUSH2 0x50A2 JUMPI CALLDATASIZE PUSH1 0x13 NOT ADD CALLDATALOAD PUSH1 0x60 SHR SWAP1 JUMP JUMPDEST CALLER SWAP1 JUMP JUMPDEST PUSH1 0x0 DUP2 DUP2 MSTORE PUSH1 0x0 DUP1 MLOAD PUSH1 0x20 PUSH2 0x5284 DUP4 CODECOPY DUP2 MLOAD SWAP2 MSTORE PUSH1 0x20 SWAP1 DUP2 MSTORE PUSH1 0x40 DUP1 DUP4 KECCAK256 PUSH1 0x1 PUSH1 0x1 PUSH1 0xA0 SHL SUB DUP7 AND DUP5 MSTORE SWAP1 SWAP2 MSTORE SWAP1 KECCAK256 SLOAD PUSH1 0xFF AND ISZERO PUSH2 0x507B JUMPI PUSH1 0x0 DUP2 DUP2 MSTORE PUSH1 0x0 DUP1 MLOAD PUSH1 0x20 PUSH2 0x5284 DUP4 CODECOPY DUP2 MLOAD SWAP2 MSTORE PUSH1 0x20 SWAP1 DUP2 MSTORE PUSH1 0x40 DUP1 DUP4 KECCAK256 PUSH1 0x1 PUSH1 0x1 PUSH1 0xA0 SHL SUB DUP7 DUP2 AND DUP6 MSTORE SWAP3 MSTORE SWAP1 SWAP2 KECCAK256 DUP1 SLOAD PUSH1 0xFF NOT AND SWAP1 SSTORE PUSH2 0x511E PUSH2 0x5082 JUMP JUMPDEST AND SWAP2 PUSH1 0x1 PUSH1 0x1 PUSH1 0xA0 SHL SUB AND SWAP1 PUSH32 0xF6391F5C32D9C69D2A47EA670B442974B53935D1EDC7FD64EB21E047A839171B PUSH1 0x0 DUP1 LOG4 PUSH1 0x1 SWAP1 JUMP JUMPDEST PUSH1 0xFF PUSH1 0x0 DUP1 MLOAD PUSH1 0x20 PUSH2 0x52C4 DUP4 CODECOPY DUP2 MLOAD SWAP2 MSTORE SLOAD PUSH1 0x40 SHR AND ISZERO PUSH2 0x5171 JUMPI JUMP JUMPDEST PUSH4 0x1AFCD79F PUSH1 0xE3 SHL PUSH1 0x0 MSTORE PUSH1 0x4 PUSH1 0x0 REVERT JUMPDEST SWAP1 PUSH2 0x51A8 JUMPI POP DUP1 MLOAD ISZERO PUSH2 0x5197 JUMPI DUP1 MLOAD SWAP1 PUSH1 0x20 ADD REVERT JUMPDEST PUSH4 0xD6BDA275 PUSH1 0xE0 SHL PUSH1 0x0 MSTORE PUSH1 0x4 PUSH1 0x0 REVERT JUMPDEST DUP2 MLOAD ISZERO DUP1 PUSH2 0x51DA JUMPI JUMPDEST PUSH2 0x51B9 JUMPI POP SWAP1 JUMP JUMPDEST PUSH4 0x9996B315 PUSH1 0xE0 SHL PUSH1 0x0 SWAP1 DUP2 MSTORE PUSH1 0x1 PUSH1 0x1 PUSH1 0xA0 SHL SUB SWAP2 SWAP1 SWAP2 AND PUSH1 0x4 MSTORE PUSH1 0x24 SWAP1 REVERT JUMPDEST POP DUP1 EXTCODESIZE ISZERO PUSH2 0x51B1 JUMP INVALID 0x2F DUP8 DUP9 GT PUSH31 0x7EFF1D82E926EC794901D17C78024A50270940304540A733656F0D3B5D4CC6 0xD RETURNDATACOPY 0xC3 MLOAD PUSH15 0xE8AE083BD60934F6EB2A6C54B12299 DUP6 0xC4 SHL 0xFB MULMOD 0x2B 0x26 SUB 0xB1 PUSH15 0x88C42FD4E48DF2DD6A2EABD6BC9AEC PUSH6 0x4EC170056B47 ADDMOD NOT 0xF8 DUP10 0x2C 0xC6 NUMBER SHR CALLDATASIZE ADDMOD SWAP5 LOG1 EXTCODESIZE LOG1 LOG3 0x21 MOD PUSH8 0xC828492DB98DCA3E KECCAK256 PUSH23 0xCC3735A920A3CA505D382BBC349FD74217C063F9853C0A INVALID PUSH8 0x67003C31CB4E1A17 DUP14 0x2A 0x1F DUP6 0xEA JUMPI EXP SLOAD 0xB8 LOG4 0xE9 MUL 0xDD PUSH28 0xC7DEC4DCEEDDA775E58DD541E08A116C6C53815C0BD028192F7B6268 STOP SWAP12 PUSH24 0x9B17422D0DF92223018B32B4D1FA46E071723D6817E2486D STOP EXTCODESIZE 0xEC 0xC5 PUSH0 STOP CREATE 0xC5 PUSH31 0x16840DF040F15088DC2F81FE391C3923BEC73E23A9662EFC9C229C6A00A264 PUSH10 0x706673582212200F7A23 0xB8 COINBASE ORIGIN 0x4E 0xBE DUP12 0xEE BLOCKHASH 0xE5 PUSH5 0x4F74E4F41 0x2C 0xA7 PUSH20 0xAE6DFAA932A0571A4DAF4464736F6C634300081C STOP CALLER "
        },
        "methodIdentifiers": {
          "ADMIN_ROLE()": "75b238fc",
          "CAMPAIGN_CREATION_COOLDOWN()": "636a5467",
          "DAO_ROLE()": "e9c26518",
          "DEFAULT_ADMIN_ROLE()": "a217fddf",
          "UPGRADE_INTERFACE_VERSION()": "ad3cb1cc",
          "UPVOTE_THRESHOLD()": "ff367af4",
          "allowedTokens(address)": "e744092e",
          "campaignAllowedTokens(uint256,address)": "db9fc9f7",
          "campaignDonations(uint256,address)": "564a7ac1",
          "campaignExists(uint256)": "3b594a68",
          "campaignMilestones(uint256,uint256)": "3178492a",
          "campaigns(uint256)": "141961bc",
          "claimMilestone(uint256,uint256)": "c266aef7",
          "claimMilestoneToken(uint256,uint256,address)": "1212d4f5",
          "claimRefund(uint256)": "5b7baf64",
          "claimTokenRefund(uint256,address)": "3bb1f28b",
          "createCampaign(address,string,string,uint256,uint256,string,string,string,bool,address[])": "353c5bd2",
          "deactivateCampaign(uint256)": "7eca30fe",
          "donateTokenToTreasury(address,uint256)": "5f259cfe",
          "donateWithEth(uint256)": "560184f8",
          "donateWithToken(uint256,address,uint256)": "11eb9498",
          "ethRefunds(uint256,address)": "1f74645e",
          "getActiveCampaigns(uint256,uint256)": "b6531458",
          "getAllowedTokens()": "024ece89",
          "getCampaignById(uint256)": "e6ffcaa1",
          "getCampaignRange(uint256,uint256)": "3aa2d4b1",
          "getCompletedCampaigns(uint256,uint256)": "249e659f",
          "getExpiredCampaigns(uint256,uint256)": "95e60f46",
          "getLastCreated(address)": "8aab2c7e",
          "getRoleAdmin(bytes32)": "248a9ca3",
          "getStats()": "c59d4847",
          "getTotalDonatedForCampaign(uint256)": "6bf8fd42",
          "getUserCampaigns(address)": "a1e5084c",
          "grantRole(bytes32,address)": "2f2ff15d",
          "hasDonatedToCampaign(uint256,address)": "6c9016ce",
          "hasRole(bytes32,address)": "91d14854",
          "hasVoted(uint256,address)": "43859632",
          "initialize()": "8129fc1c",
          "isCampaignDonor(uint256,address)": "3e019901",
          "lastCreated(address)": "6c713c8f",
          "markAsCompleted(uint256)": "c0a6026c",
          "numberOfCampaigns()": "07ca140d",
          "paused()": "5c975abb",
          "proxiableUUID()": "52d1902d",
          "refunds(uint256,address,address)": "7c0971fd",
          "renounceRole(bytes32,address)": "36568abe",
          "revokeRole(bytes32,address)": "d547741f",
          "setAllowedToken(address,bool)": "8aaa2284",
          "setTrustedForwarder(address)": "da742228",
          "supportsInterface(bytes4)": "01ffc9a7",
          "togglePause()": "c4ae3168",
          "tokenAmountCollected(uint256,address)": "325e84e6",
          "tokenEscrowed(uint256,address)": "8d9ed5f9",
          "topDonationAmount(uint256)": "471c027c",
          "topDonors(uint256)": "5cbaddab",
          "totalAmountDonated()": "f0f89eea",
          "trustedForwarder()": "7da0a877",
          "upgradeToAndCall(address,bytes)": "4f1ef286",
          "upvote(uint256)": "01ddf070",
          "upvotes(uint256)": "96114c3f",
          "userCampaigns(address,uint256)": "19ac74bd",
          "validateMetadataURI(uint256,bytes32)": "4ad04197",
          "verifyCampaign(uint256)": "f52cb29b",
          "withdrawCampaignFunds(uint256,address)": "4138de6a",
          "withdrawTreasuryBalance(address,address,uint256)": "bf3ec80c"
        }
      }
    }
  }
}